:020000040000FA
:1000000000040020E508000079050000C508000094
:10001000830500008D05000097050000000000002A
:1000200000000000000000000000000009090000BE
:10003000A105000000000000AB050000B5050000B0
:10004000BF050000C9050000D3050000DD05000064
:10005000E7050000F1050000FB05000005060000B3
:100060000F06000019060000230600002D06000000
:1000700037060000410600004B0600005506000050
:100080005F06000069060000730600007D060000A0
:1000900087060000910600009B060000A5060000F0
:1000A000AF060000B9060000C3060000CD06000040
:1000B000D7060000E1060000EB060000F506000090
:1000C000FF06000009070000130700001D070000DD
:1000D00027070000310700003B070000450700002C
:1000E0004F07000059070000630700006D0700007C
:1000F00077070000810700008B07000095070000CC
:100100009F0700001FB500F003F88DE80F001FBD2A
:1001100000F0DEBB1FB56FF00100009040100390AF
:10012000029001904FF010208069000B420900F00E
:100130001F045DF822300120A04083434DF8223097
:10014000684600F044F91FBDF0B54FF6FF734FF459
:10015000B4751A466E1E11E0A94201D3344600E080
:100160000C46091B30F8027B641E3B441A44F9D14B
:100170009CB204EB134394B204EB12420029EBD17E
:1001800098B200EB134002EB124140EA0140F0BD8F
:10019000DD4992B00446D1E90001CDE91001FF220A
:1001A0004021684600F03AFB94E80F008DE80F000C
:1001B000684610A902E004C841F8042D8842FAD12B
:1001C00010216846FFF7C0FF1090AA208DF8440068
:1001D000FFF7A0FF00F0F2F84FF01024A069102202
:1001E0006946803000F001F9A069082210A900F0EA
:1001F000FCF800F0D7F84FF080510A6949690068AF
:100200004A43824201D8102070470020704710B541
:10021000D0E900214FF0805002EB8103026944696C
:100220006243934209D84FF01022536903EB8103D4
:100230000169406941438B4201D9092010BD5069D1
:10024000401C01D0002010BD0F2010BD70B501680A
:100250000446AE4D4FF01020062951D2DFE801F0E0
:10026000320318283B1DD4E90265646829463046EC
:1002700000F0CDF82A462146304600F0B6F8AA0034
:100280002146304600F09EFA002800D0032070BDC1
:1002900000F050FB4FF4805007E0201DFFF7ABFF4C
:1002A0000028F4D100F046FB60682860002070BD93
:1002B000241D94E80700920000F084FA0028F6D08C
:1002C0000E2070BD8069401C12D0201DFFF79FFFDB
:1002D0000028F6D109E08069401C09D0201DFFF7F5
:1002E0008AFF0028EDD1606820B12046FFF750FF5B
:1002F000042070BDFFF70EFF00F060F800F052F828
:10030000072070BD10B50C46182802D001200860E7
:1003100010BD2068FFF79AFF206010BD4FF0102439
:10032000A069401C05D0A569A66980353079AA2846
:1003300008D06069401C2DD060690068401C29D03D
:1003400060692CE010212846FFF7FEFE31688142EB
:100350001CD1A16901F18002C03105E030B108CAA9
:1003600051F8040D984201D1012000E000208A429A
:10037000F4D158B1286810B1042803D0FEE728460C
:1003800000F057F861496868086008E000F016F866
:1003900000F008F84FF480500168491C01D000F0CB
:1003A000A3FAFEE7BFF34F8F59480168594A01F499
:1003B000E06111430160BFF34F8FFEE74FF0102063
:1003C0008169491C02D0806900F0ADB87047524A7B
:1003D00001681160121D416811604F4A8168103236
:1003E0001160111DC068086070472DE9F041174683
:1003F0000D460646002406E03046296800F0A6F8BF
:10040000641C2D1D361DBC42F6D3BDE8F08170B5CD
:100410000C4605464FF4806608E0284600F083F855
:10042000B44205D3A4F5806405F58055002CF4D1C1
:1004300070BD4168044609B1012500E000254FF078
:1004400010267069A268920000F0BCF9C8B120467D
:1004500000F01AF89DB17669A56864684FF4002031
:1004600084420AD2854208D229463046FFF7CFFFA0
:100470002A4621463046FFF7B8FFFFF79FFFFFF7F8
:1004800091FFFFF747FEF8E72DE9FF414FF01024F9
:10049000616980680D0B01EB800000F6FF70010BB5
:1004A00000200090019002900246039068460123CC
:1004B0000BE0560902F01F0C50F8267003FA0CFCF2
:1004C00047EA0C0740F82670521CAA42F1D30AE012
:1004D0004A0901F01F0650F8225003FA06F6354388
:1004E00040F82250491C8029F2D3A169090B4A091E
:1004F00001F01F0150F822408B409C4340F82240FD
:10050000FFF765FFBDE8FF815809000000000020EB
:100510000CED00E00400FA050006004014480168F4
:100520000029FCD07047134A0221116010490B6862
:10053000002BFCD00F4B1B1D186008680028FCD056
:100540000020106008680028FCD07047094B10B5E7
:1005500001221A60064A1468002CFCD00160106861
:100560000028FCD00020186010680028FCD010BDC6
:1005700000E4014004E5014008208F49096809585A
:10058000084710208C4909680958084714208A49EF
:100590000968095808471820874909680958084711
:1005A0003020854909680958084738208249096878
:1005B000095808473C2080490968095808474020E5
:1005C0007D4909680958084744207B49096809584A
:1005D0000847482078490968095808474C20764957
:1005E000096809580847502073490968095808479D
:1005F0005420714909680958084758206E4909680C
:10060000095808475C206C49096809580847602068
:100610006949096809580847642067490968095801
:100620000847682064490968095808476C206249EE
:1006300009680958084770205F4909680958084740
:1006400074205D4909680958084778205A490968A3
:10065000095808477C2058490968095808478020EC
:1006600055490968095808478420534909680958B9
:100670000847882050490968095808478C204E4986
:1006800009680958084790204B49096809580847E4
:10069000942049490968095808479820464909683B
:1006A000095808479C204449096809580847A02070
:1006B0004149096809580847A4203F490968095871
:1006C0000847A8203C49096809580847AC203A491E
:1006D000096809580847B020374909680958084788
:1006E000B4203549096809580847B82032490968D3
:1006F00009580847BC203049096809580847C020F4
:100700002D49096809580847C4202B490968095828
:100710000847C8202849096809580847CC202649B5
:10072000096809580847D02023490968095808472B
:10073000D4202149096809580847D8201E4909686A
:1007400009580847DC201C49096809580847E02077
:100750001949096809580847E420174909680958E0
:100760000847E8201449096809580847EC2012494D
:10077000096809580847F0200F49096809580847CF
:10078000F4200D49096809580847F8200A49096802
:1007900009580847FC2008490968095808475FF4C8
:1007A0008070054909680958084700000348044952
:1007B000024A034B70470000000000206809000057
:1007C0006809000040EA010310B59B070FD1042A15
:1007D0000DD310C808C9121F9C42F8D020BA19BA0C
:1007E000884201D9012010BD4FF0FF3010BD1AB171
:1007F000D30703D0521C07E0002010BD10F8013BC6
:1008000011F8014B1B1B07D110F8013B11F8014BEC
:100810001B1B01D1921EF1D1184610BD02F0FF033F
:1008200043EA032242EA024200F005B870477047EB
:1008300070474FF000020429C0F0128010F0030C42
:1008400000F01B80CCF1040CBCF1020F18BF00F8C3
:10085000012BA8BF20F8022BA1EB0C0100F00DB872
:100860005FEAC17C24BF00F8012B00F8012B48BFD0
:1008700000F8012B70474FF0000200B51346944674
:100880009646203922BFA0E80C50A0E80C50B1F1E8
:100890002001BFF4F7AF090728BFA0E80C5048BFFC
:1008A0000CC05DF804EB890028BF40F8042B08BF9A
:1008B000704748BF20F8022B11F0804F18BF00F896
:1008C000012B7047014B1B68DB68184700000020B4
:1008D00009480A497047FFF7FBFFFFF713FC00BD0B
:1008E00020BFFDE7064B1847064A1060016881F3F8
:1008F0000888406800470000680900006809000097
:100900001D030000000000201EF0040F0CBFEFF3D9
:100910000881EFF30981886902380078182803D12B
:1009200000E00000074A1047074A12682C3212689C
:100930001047000000B5054B1B68054A9B589847B7
:1009400000BD000005030000000000205409000065
:1009500004000000001000000000000000FFFFFF86
:040960000090D00330
:10100000F016002075780200B5A40000E377020016
:10101000B5A40000B5A40000B5A4000000000000C5
:10102000000000000000000000000000CD78020079
:10103000B5A4000000000000B5A40000B5A40000A5
:10104000357902003B790200B5A40000B5A4000088
:10105000B5A40000B5A40000B5A40000B5A400002C
:1010600041790200B5A40000B5A400004779020050
:10107000B5A400004D7902005379020059790200AD
:10108000B5A40000B5A40000B5A40000B5A40000FC
:10109000B5A40000B5A40000B5A40000B5A40000EC
:1010A000B5A400005F790200B5A40000B5A400005B
:1010B000B5A40000B5A40000B5A40000B5A40000CC
:1010C00065790200B5A40000B5A40000B5A4000035
:1010D000B5A40000B5A40000B5A40000B5A40000AC
:1010E000B5A40000B5A40000B5A40000B5A400009C
:1010F000B5A40000B5A40000B5A40000B5A400008C
:10110000B5A40000B5A4000000F002F826F09FFB93
:101110000AA090E8000C82448344AAF10107DA4552
:1011200001D126F094FBAFF2090EBAE80F0013F0DC
:10113000010F18BFFB1A43F001031847646E020049
:10114000846E02000A444FF0000C10F8013B13F0CB
:10115000070408BF10F8014B1D1108BF10F8015B10
:10116000641E05D010F8016B641E01F8016BF9D103
:1011700013F0080F1EBF10F8014BAD1C0C1B09D15A
:101180006D1E58BF01F801CBFAD505E014F8016BCC
:1011900001F8016B6D1EF9D59142D6D3704700005E
:1011A0000023002400250026103A28BF78C1FBD870
:1011B000520728BF30C148BF0B6070471FB500F011
:1011C000B5F88DE80F001FBD8269034981614FF0BA
:1011D0000100104470470000DD11000001B41EB48E
:1011E00000B501F0E7FE01B40198864601BC01B0EC
:1011F0001EBD00001EF0040F0CBFEFF30880EFF3DC
:101200000980014A104700008F440000F0B44046B6
:10121000494652465B460FB402A0013001B506486C
:10122000004700BF01BC86460FBC804689469246F7
:101230009B46F0BC7047000009110000401E00BF33
:1012400000BF00BF00BF00BF00BF00BF00BF00BFA6
:1012500000BF00BF00BF00BF00BF00BF00BF00BF96
:1012600000BF00BF00BF00BF00BF00BF00BF00BF86
:1012700000BF00BF00BF00BF00BF00BF00BF00BF76
:1012800000BF00BF00BF00BF00BF00BF00BF00BF66
:1012900000BF00BF00BF00BF00BF00BF00BF00BF56
:1012A00000BF00BF00BF00BF00BF00BF00BFC5D16F
:1012B00070470000401E00BF00BF00BF00BF00BF5E
:1012C00000BF00BF00BF00BF00BF00BF00BF00BF26
:1012D00000BF00BF00BF00BF00BF00BF00BF00BF16
:1012E00000BF00BF00BF00BF00BF00BF00BF00BF06
:1012F00000BF00BF00BF00BF00BF00BF00BF00BFF6
:1013000000BF00BF00BF00BF00BF00BF00BF00BFE5
:1013100000BF00BF00BF00BF00BF00BF00BF00BFD5
:1013200000BF00BF00BFC5D17047000026F08CBAD7
:10133000554800210170417010218170704770B5CF
:10134000054616460C46022000F033F94E490120AE
:1013500008704E49F01E08604D480560001F04608B
:1013600070BD10B5022000F024F947490120087033
:1013700048480021C0F80011C0F80411C0F8081155
:1013800045494FF40000086010BD3F480178D9B1CD
:10139000424A4FF4000111603E49D1F80031002269
:1013A000002B1CBFD1F80431002B02D0D1F808115A
:1013B00019B142704FF0100104E04FF0010141708B
:1013C00037490968817002704FF0000000F0F1B8F1
:1013D0002D480178002904BF407870472D48D0F887
:1013E0000011002904BF02207047D0F80011002925
:1013F0001CBFD0F80411002905D0D0F8080100283E
:1014000004BF01207047002070471F4800B50278D4
:10141000204B4078C821491EC9B282B1D3F800C11F
:10142000BCF1000F10D0D3F8000100281CBFD3F886
:10143000040100280BD0D3F8080150B107E00228BE
:1014400002D0012805D002E00029E4D1FFDF00200E
:1014500000BD012000BD0C480178002904BF807840
:1014600070470C48D0F8001100291CBFD0F80411B7
:10147000002902D0D0F8080110B14FF010007047D9
:1014800007480068C0B270470800002010F500400F
:1014900008F5004000F0004004F5014008F5014067
:1014A00000F400403348002101704170704770B56E
:1014B000064614460D46012000F07BF82D49012018
:1014C00008702D480660001D0460001D056070BD99
:1014D0002DE9F04105460C46012000F06AF8254848
:1014E00001262649067045EA044040F080700860F5
:1014F000234C0027C4F8047122494FF04070086063
:10150000002D02BFC4F800622660BDE8F081012D05
:1015100018BFFFDFC4F8007226604FF000701A4950
:101520000860BDE8F0811348017879B1154A4FF0A1
:10153000407111601249D1F804210021002A08BF2E
:10154000417002D0114A126842700170002000F010
:1015500030B808480178002904BF4078704708482F
:10156000D0F80401002808BF704708480068C0B2DE
:10157000704700000B00002008F5004004F5004013
:1015800000F0004008F5014004F5014000F400407F
:101590004FF0E0224FF400410020C2F88011BFF369
:1015A0004F8FBFF36F8F2049087020499002086069
:1015B000704730B51C4D04462878A04218BF002C57
:1015C00002D0002818BFFFDF2878A04208BF30BD36
:1015D0002C701749154A0020ECB1164DDFF858C0A1
:1015E000131F012C0DD0022C1CBFFFDF30BD086083
:1015F00003200860CCF800504FF400001060186021
:1016000030BD086002200860CCF800504FF04070F8
:101610001060186030BD086008604FF060701060A6
:1016200030BD00B5FFDF00BD0D00002008F5014012
:1016300000F500409C02002014F5004010B500F0B9
:1016400009F8FFF7A5FFFFF773FEBDE81040FFF7AD
:1016500029BF000070B5F74C00250120657025708A
:1016600025626572A572E07284F82950256304F141
:101670003C00A56301F0F6FB002818BFFFDF84F8EB
:101680002450ED4826F08AF9EC494FF011300860FB
:10169000091D0860091D0860E9490860E9490D60F5
:1016A000091D0860091D0860091D0860091D086002
:1016B000091D0860091D0860091D0860091D0860F2
:1016C000091D0860657770BD30B4DA490268DFF83B
:1016D0007CC34A6142688A61007A08770A7DDA4BE6
:1016E000ACF1040401204AB10A7E00FA02F21A6049
:1016F0008D7D002D0CBF2260CCF800204A7D002A91
:1017000004BF30BC70474A7E90401860C97D0029F4
:101710000CBF2060CCF8000030BC7047CD49CC48ED
:101720000860091DCC4808607047CA4A00B5CB491B
:101730001160C0B240F44030111D40F000700860EC
:10174000C748D0F80001002818BFFFDF00BD30B542
:10175000C04D296821F08074291F002808BF03208C
:1017600008D0012812BFFFDF44F08074042001D0AC
:101770002C6030BD0860FBE770B502244FF0E02517
:1017800001200022C5F88041BFF34F8FBFF36F8F58
:10179000B4490A600860B4490B6823F0770343F04A
:1017A000880343F000430B60B04B40F25B6119606B
:1017B0001B1F40F203111960191F0860AC48032376
:1017C0000360AC49962008609A4EAB4896F9241005
:1017D00011F1080F08BFF8213CD014DC11F1280FDB
:1017E00008BFD82136D011F1140F08BFEC2131D039
:1017F00011F1100F08BFF0212CD011F10C0F08BF10
:10180000F42127D010E011F1040F08BFFC2121D0F2
:10181000002908BF026008D0032908BF036004D074
:10182000042908BF016000D0FFDF707F002814BFCB
:101830004FF4C0209148924908609349914808604C
:10184000091F92480860C5F8804285491020C1F8F8
:10185000040370BD0160E8E7764A0368C2F802300D
:101860008088D08011727047724890F829007047C4
:10187000704A517010707047F0B50546800000F155
:10188000804000F580508B88C0F820360B78D1F866
:10189000011043EA0121C0F8001605F108000127F4
:1018A00007FA00F67A4C002A04BF2068B04304D03F
:1018B000012A18BFFFDF206830432060206807FA44
:1018C00005F108432060F0BD10B56B49044610F1E6
:1018D000080F08BFF8202CD014DC14F1280F08BF23
:1018E000D82026D014F1140F08BFEC2021D014F119
:1018F000100F08BFF0201CD014F10C0F08BFF4200B
:1019000017D011E014F1040F08BFFC2011D0002CF7
:1019100008BF00200DD0032C08BF032009D0042CE1
:1019200004BF0420086000D0FFDF424880F8244054
:1019300010BD0860F9E73F4890F8340070473D4813
:1019400090F836007047534AC178116000685249D8
:10195000000208607047252808BF02210ED0262803
:1019600008BF1A210AD0272808BF502106D00A280C
:1019700094BF0422062202EB4001C9B2474A11601B
:101980004749086070472B490862704729498A7A9D
:10199000012A4AD0022A18BF70474B7D002B08BF8E
:1019A0007047DFF800C1012A43D0CA7D4B7E002A70
:1019B00018BF012210F17D00CCF80000DFF8E8C06C
:1019C0000020CCF84C01180282F0010240EA0250DB
:1019D00040F00312087F830003F1804303F5C04306
:1019E000C3F81025314A02EB8002887EC30003F160
:1019F000804303F5F833C3F81425DFF8B4C0C3F807
:101A000010C5C97ECB0003F1804303F5F833C3F85A
:101A100014251E4AC3F81025012202FA00F002FA2A
:101A200001F108432349086070470B7D002BB8D1B2
:101A3000704741E0A8030020BC030020040E0040D2
:101A4000000E0040100E0040180500500C0500501C
:101A500006010200141500402500030208011000D1
:101A600000100040FC1F00403C17004038150040AB
:101A700010150040441500400C15004000000404FF
:101A800008F5014040800040A4F5014010110040DD
:101A900040160040241500401C1500400815004069
:101AA000541500404C85004000800040006000401C
:101AB0004C81004004F501408A7D0B7E002A18BF4E
:101AC00001227E3078E72DE9F84F00280CBF012273
:101AD0000222FE4DFE4C0320AA72C4F80002687F69
:101AE000002814BF4FF4C020FA48FB4F38604FF075
:101AF0000108002933D001294ED002291CBFFFDF85
:101B0000BDE8F88F286A002808BFFFDF296A286B24
:101B10000844F2490860F349F1480860A97AF2489C
:101B200001290EBF0460F1490160A86B40F4002058
:101B3000A863D4F800924FF0100AC4F808A3002656
:101B4000C4F80062EA484FF4802BC0F800B0FF20D0
:101B50008DF80000C4F81061C4F810803BE0012A41
:101B600013D0C4F80480022A18BFBDE8F88F687D3E
:101B7000002808BFBDE8F88FDE48C0F84C80DE487A
:101B80000068BDE8F84F0A3000E7C4F80080287DFF
:101B90000028F1D1BDE8F88FCC48012A806B07D02E
:101BA000022A18BFFFDF09D0BDE8F84F0A20EDE692
:101BB00040F48010A8634FF4801004E040F400105B
:101BC000A8634FF400103860EEE700BF9DF80000F6
:101BD000401E8DF800009DF8000018B1D4F81001E7
:101BE0000028F3D09DF80000002808BFFFDFC4F8EC
:101BF0000061C4F80C61C4F81061C4F80461C4F851
:101C00001461C4F81861C4F82861BC4800680090E9
:101C1000C4F80092C7F800B0C4F804A34FF4002041
:101C20003860296A286BBDE8F84F08440A30ADE6F1
:101C30002DE9F847A64CD4F8000220F00309D4F8A7
:101C400004034FF0100AC0F30018C4F808A30026DC
:101C5000C4F800629D4D687F002814BF4FF4C02077
:101C60009C48A3490860A87A0127012802D00228CD
:101C700003D014E0287D10B911E0687D78B1A87E0A
:101C8000EA7E07FA00F007FA02F210430860287FA4
:101C9000800000F1804000F5C040C0F81065FF20D2
:101CA0008DF80000C4F81061276104E09DF8000081
:101CB000401E8DF800009DF8000018B1D4F8100106
:101CC0000028F3D09DF80000002808BFFFDFC4F80B
:101CD0001061C4F828616E72AE72EF72C4F800929F
:101CE000B8F1000F18BFC4F804A3BDE8F887006876
:101CF000834920F07F40086070474FF0E0210220C8
:101D0000C1F88001BFF34F8FBFF36F8F70474FF063
:101D1000E0200221C0F8801100F5C070BFF34F8FA2
:101D2000BFF36F8FC0F8001170474FF0E021022021
:101D3000C1F80001704773490870704710B57248C8
:101D400001F098F8002818BFFFDF10BD6E4801F0C1
:101D5000A7B86E490860704730B55C4C0546206BEB
:101D6000A84228BFFFDF012020732561607F40B1BA
:101D7000A81C20615648D0F8001241F04001C0F87C
:101D800000125C490020C1F84401614920690860E3
:101D9000A06B514940F48000A0634FF480000860BC
:101DA00030BD4A4802210173CA210161417F41B11E
:101DB000CC2101614649D1F8002242F04002C1F82D
:101DC00000224C4A0021C2F844110269016B1144FF
:101DD0004F4A1160816B41F4800181633E494FF4A9
:101DE000800008607047394901204877494902203E
:101DF00008604A4948480860091F49480860704718
:101E0000324900204877704739494FF48000086014
:101E10002E48816B21F4800181630021017370479A
:101E2000344801214160C1600021C0F844113848A4
:101E30000160264801637047244800B5407F0028B0
:101E400018BFFFDF4020334908602148D0F8001256
:101E500041F04001C0F8001200BD1C4800B5407FB1
:101E6000002818BFFFDF1A48D0F8001221F0400107
:101E7000C0F8001227490020086000BD1448D0F8BF
:101E8000001221F01001C0F8001201218161704799
:101E90000F480021C0F81C11D0F8001241F01001C9
:101EA000C0F8001270470A4981B0D1F81C21012AFC
:101EB0001EBF002001B070471A4A126802F07F026C
:101EC000524202700020C1F81C012DE0A80300203E
:101ED000001000400000040404F501404885004063
:101EE00048810040A8F50140ACF5014004100040D5
:101EF00008F50140008000404C850040181100406A
:101F00003C1500400E000020E403002004150040B2
:101F10004485004060150040448000409CF501402D
:101F20002811004048150040FD480068009001203D
:101F300001B0704730B50C00054608BFFFDF14F054
:101F4000010F1CBF012CFFDF002D0CBF0120022060
:101F5000F44901284872CC72F34904BFD1F8000259
:101F600040F0040007D0022807BFD1F8000240F07B
:101F70000800FFDF30BDC1F8000230BD70B5E94C8C
:101F80000022E17A11F0020F18BF10F0040F16D1F1
:101F900011F0100F1CBF94F83530002B02D094F8CC
:101FA000373063B111F0080F1CBF94F82830002BB4
:101FB00005D111F0040F04D094F8291009B94FF09D
:101FC0000102657AD8494FF000034FF0010C35B19A
:101FD00000F00200104314D0BDE8704028E6607F96
:101FE000002814BF4FF4C020D048D14A1060D1F867
:101FF000000220F00300C1F80002A37284F80BC0B5
:1020000070BD012D14D0022D18BFFFDF1CD0A07AA7
:1020100001280CBFC748C8484FF47A7100F2E73076
:10202000B0FBF1F0216BBDE87040081A8C30ADE4D4
:10203000D1F8000220F00400C1F80002637284F8B5
:102040000BC084F80AC0E2E7D1F8000220F00800D3
:10205000C1F80002637284F80BC00220A072D6E7B8
:102060002DE9F84FB54FD7F84C21AE4CB0494FF0A1
:102070000108A07A0026CAB1012802D0022803D0A4
:1020800014E0227D12B911E0627D7AB1A27EE37E76
:1020900008FA02F208FA03F31A430A60227F920058
:1020A00002F1804202F5C042C2F81065A26B0A60DC
:1020B000A663217B29B1D7F84411012908BF012269
:1020C00000D00022984DD5F8101101290CBF4021F5
:1020D0000021012805BFD5F80C31012B0023202356
:1020E00043EA0101012805BFD5F80431012B002383
:1020F000102343EA01039249022804BFD1F800C02B
:10210000BCF1010F07D1D5F80CC1BCF1010F08BF1C
:102110004FF0080C01D04FF0000C4CEA03030228EA
:1021200004BF0968002905D1D5F80C11012908BFA1
:10213000042100D000211943022803D1002A18BF2E
:10214000022200D100221143022804BFD5F8040165
:10215000012805D1D7F84401012818BF012000D17A
:10216000002040EA01097748016811F0FF0F03D011
:10217000D5F81411012900D0002184F8341000682A
:1021800010F0FF0F03D0D5F81801012800D000206F
:1021900084F835006C48006884F836006B480068A5
:1021A00018B1FFF715F9012800D0002084F8370096
:1021B000C5F80061C5F80C61C5F81061C5F8046187
:1021C000C5F81461C5F81861C5F828616048006851
:1021D0000090C7F844615F4800684D46DFF8789189
:1021E0000090D9F80000E062617F00291CBF801ECA
:1021F000E0625A4800682063A07ADFF864A10228F0
:102200000CD1607850B1DAF80010097808402178D4
:1022100031EA000008BF84F8288001D084F82860E3
:10222000DFF8408115F0010F16D098F800104E4AE3
:102230004908E06A52F821108847012198F80020E7
:102240004A4B5208206B53F82220904798F8000020
:1022500010F0010F0BD01FE015F0200F18BF022166
:10226000ECD115F0020F18BF0021E7D1EEE7DAF844
:102270000000062200F10901A01C25F09BF940B9DD
:10228000207ADAF800100978B0EBD11F08BF0120DE
:1022900000D0002084F829002846FFF76FFE15F0D3
:1022A000020F05D0324898F8001050F821008047FE
:1022B00015F00C0F07D02F4898F8001050F8211097
:1022C000C5F3C000884715F0200F05D02A4898F8BC
:1022D000001050F82100804798F80000022805D12E
:1022E00005F06E00402806D105F047F898F8000088
:1022F000042828BFFFDFA07A022818BFBDE8F88FA6
:10230000207B002808BFBDE8F88FC7F84461022889
:1023100044D0012818BFFFDF216B206988422DE0DF
:102320001C110040A803002000100040000004041D
:1023300008F50140F0FE0100B0F801000080004007
:102340000014004040160040081400406015004092
:102350001811004044810040448500404085004001
:10236000041500400E000020B0790200B879020088
:10237000C0790200D0790200E079020098BFFFDF47
:10238000D4F81000C9F80000A06B064940F48000A2
:10239000A0634FF480000860BDE8F88F2169206BCE
:1023A0000844EFE704F5014010B504460021012080
:1023B00000F048F800210B2000F044F80421192017
:1023C00000F040F804210D2000F03CF804210E201C
:1023D00000F038F804210F2000F034F80421C8433D
:1023E00000F030F80721162000F02CF80721152006
:1023F00000F028F8204608F009F8204608F07EF89A
:10240000002010BD94210180704710B508F00EF82F
:10241000BDE8104008F087B812487047124A10B55E
:102420001468114B114A08331A60C02802D308F00F
:10243000B7FE01E007F0FCFF0B48001D046010BD73
:10244000704770474907090E002804DB00F1E020BF
:1024500080F80014704700F00F0000F1E02080F8D1
:10246000141D704703F900421005024001000001ED
:102470002DE9F0410C4611490D68104A1049083207
:102480001160A0F120012A2901D301200CE03E288F
:1024900010D040CC0B4F94E80E0007EB8000241FB7
:1024A00050F8807C3046B84720600448001D056025
:1024B000BDE8F0812046FEF787FEF5E710050240F3
:1024C00001000001F079020010B5EFF3108000F078
:1024D000010472B6E9484178491C417040780128EE
:1024E00001D100F0E1FB002C00D162B610BD70B547
:1024F000E24CE07848B90125E570FFF7E5FF00F010
:10250000DBFB20B1002000F0B7FB002070BD4FF0D6
:1025100080406571C0F80453F7E770B5EFF31080A1
:1025200000F0010572B6D54C607800B9FFDF607825
:10253000401E6070607808B900F0BAFB002D00D131
:1025400062B670BDCD4810B5C17821B1002141718E
:10255000C170FFF7E2FF002010BD10B5044600F087
:10256000ABFBC649C978084000D00120206000209C
:1025700010BD2DE9F05FDFF804934278817889F887
:102580000620002689F80710074689F808600078B9
:10259000354620B101280FD002280FD0FFDF00F010
:1025A00098FB98B100F09CFBB0420FD1304600F090
:1025B0009BFB0028FAD047E00126F0E7FFF784FFF5
:1025C00000F07AFB0028FBD00226E8E70120840710
:1025D000E060C4F80451AA490E600107D1F8441222
:1025E000A74AC1F3423124321160A5494FF0020BD2
:1025F00034310860C4F804B3A060DFF888A2DAF8C8
:102600000010C94341F3001101F10108DAF800108C
:1026100041F01001CAF8001000E020BFD4F8040116
:102620000028FAD0304600F05FFB0028FAD0B8F15D
:10263000000F05D1DAF8001021F01001CAF80010DF
:10264000C4F808B3C4F8045199F807004C4670B1B7
:10265000387860B900F030FB074601F075FC6FF088
:10266000004117B1C4E9031001E0C4E9030116B148
:102670002571BDE8F09F0127BE0727714FF01908AB
:10268000C6F80883B761C6F80051C6F80C51C6F801
:10269000105100F011FB10B1A770376100E02770F6
:1026A000FFF712FF7649A07920310860C6F804834D
:1026B000DFE770B5050000D1FFDF4FF080424FF03B
:1026C000FF30C2F808030021C2F80011C2F804115B
:1026D000C2F80C11C2F81011684C617000F0F2FAE7
:1026E00010B10120E07060702846BDE8704040E7FE
:1026F0002DE9F041614C4FF080470125E079F0B1C0
:10270000012803D0217A401E814218DA00F0D4FA61
:10271000064601F019FCE179012902D9217A491C08
:1027200021720EB1216900E0E168411A022902DA42
:1027300011F1020F0BDC0EB1206100E0E060FFF749
:10274000C3FE00F0B9FA28B13D61A57003E07D61D8
:10275000BDE8F081257000202072F9E72DE9F05FD7
:102760004948D0F800B0484A484908321160840608
:10277000D4F8080110B14FF0010801E04FF0000853
:10278000D4F8000100B101208146D4F8040108B159
:10279000012600E00026D4F80C0100B10120824699
:1027A000D4F8100108B1012700E0002748EA090128
:1027B00026EA010020EA0A00B84300D0FFDF002526
:1027C000B8F1000F04D0C4F80851012000F054FA09
:1027D0005FEA0900DFF8A4804FF0010913D0C4F8C4
:1027E000005198F8050020B188F80550002000F04D
:1027F00043FA98F8000030B100F05EFA18B188F89A
:102800000290C4F810900EB1C4F80451BAF1000F50
:102810000CD0C4F80C5198F80200464600B9FFDF0E
:10282000B5703570C4F81490FFF777FE37B1C4F86F
:10283000105198F8040008B1FFF75AFF1249091D1A
:10284000C1F800B015E770B50C4DE87808B900F094
:102850002FFA01208407A061A87850B1D4F80C01A8
:1028600020B9002000F040FA0028F7D10020C4F879
:102870000C014FF0FF30C4F8080370BD10000020B9
:102880001805004010ED00E01005024001000001B5
:10289000F0B57E4AD2F800327D4D002401212E7819
:1028A00056B97C4E34607B4F03263F1D3E60794F06
:1028B00004260C373E602970C2F80042D1601160D6
:1028C000744C4834D16425688542FBD35160D16093
:1028D000C2F80032F0BD2DE9F041044680074FF008
:1028E00000054FF0010604D56B480560066024F032
:1028F0000204E0044FF0FF3705D568484660C0F891
:10290000087324F48054600003D56548056024F002
:102910008044E0050FD55D48C0F80052C0F8087348
:102920005C490D60091D0D605A4A04210C3211608A
:10293000066124F48074A00409D55A484660C0F8A2
:102940000052C0F808735848056024F40054C4F3DA
:102950008030C4F3C031884200D0FFDF14F4404F10
:1029600014D052484660C0F8087351488660C0F8D9
:102970000052C0F808734F490D600A1D166086604A
:10298000C0F808730D60166024F4404420050AD591
:10299000494846608660C0F80873C0F848734748E5
:1029A000056024F4006400F025FE4548044200D090
:1029B000FFDFBDE8F081F0B5002220250123144699
:1029C00020FA02F1C9072DD051B2002910DB00BF57
:1029D0004FEA51174FEA870701F01F0607F1E0277A
:1029E00003FA06F6C7F88061BFF34F8FBFF36F8F0E
:1029F0000CDB00BF4FEA51174FEA870701F01F06B3
:102A000007F1E02703FA06F6C7F8806204DB01F15C
:102A1000E02181F8004405E001F00F0101F1E0211F
:102A200081F8144D02F10102AA42C9D3F0BD70B57C
:102A3000174C0D466060FFF74EFF6068FFF7BBFF65
:102A40002846FFF736FE00F03DF801F082F800F06E
:102A5000D1FD00F01CFD01F0EDF9BDE8704000F083
:102A6000DBBA10B50A4C6068FFF735FF6068FFF706
:102A7000A2FF00F0BFFDFFF7E6FE0020606010BD82
:102A80000348406870470A207047000000800040FB
:102A90002400002004850040FC1F004000C00040CE
:102AA00004E5014000D0004004D5004000E00040B3
:102AB00000F0004000F5004000B0004008B50040C4
:102AC000FEFF0FFD10B5534800F0CCF900B1FFDF59
:102AD0005048401C00F0C6F9002800D0FFDF10BDB0
:102AE0002DE9F14F4C4ED6F800B00127494800F0CF
:102AF000C1F9DFF8208128B95FF0000708F1010073
:102B000000F0CEF9454C00254FF00309012060602C
:102B1000C4F80051C4F80451009931602060DFF816
:102B200000A118E0DAF80000C00614D50E2000F06D
:102B300064F8EFF3108010F0010072B600D00120AD
:102B4000C4F80493D4F8001119B9D4F8041101B9E8
:102B500020BF00B962B6D4F8000118B9D4F8040156
:102B60000028DFD0D4F804010028CFD137B1C6F84F
:102B700000B008F1010000F07DF911E008F101005A
:102B800000F078F90028B9D1C4F80893C4F80451CA
:102B9000C4F800510E2000F030F81E4800F080F913
:102BA0000020BDE8F88F2DE9F0438DB00D460646B4
:102BB00000240DF110090DF1200817E004EB440783
:102BC000102255F82710684624F03FFD05EB8707D3
:102BD00010224846796824F038FD6846FFF780FFE8
:102BE00010224146B86824F030FD641CB442E5DB95
:102BF0000DB00020BDE8F08372E7002809DB00F08B
:102C00001F02012191404009800000F1E020C0F83E
:102C1000801270472C00002004E5004000E00040D6
:102C200010ED00E070B51F490A68BAB100231D46D7
:102C300001244A68521C4A60092A00D34D600E796B
:102C400004FA06F20E6816420AD072B60B68934375
:102C50000B6062B649680160002070BD052070BD40
:102C60005B1C092BE5D3FFDFF8E74FF0E0214FF4C1
:102C70008000C1F800027047EFF3108111F0010FDE
:102C800072B64FF0010202FA00F20648036842EA07
:102C90000302026000D162B6E7E70248002101604A
:102CA00041607047300000200120810708607047B4
:102CB000012081074860704712480068C00700D0B3
:102CC000012070470F48001F0068C00700D0012096
:102CD00070470C4808300068C00700D001207047DA
:102CE000084810300068704706490C310A68D20362
:102CF00006D5096801F00301814201D10120704726
:102D0000002070470C0400400B4A022111600B495F
:102D10000B68002BFCD0084B1B1D186008680028AE
:102D2000FCD00020106008680028FCD070474FF0ED
:102D3000805040697047000004E5014000E4014014
:102D400010B50D2000F077F8C4B26FF0040000F069
:102D500072F8C0B2844200D0FFDF3E490120086013
:102D600010BD70B50D2000F048F83B4C0020C4F8B1
:102D700000010125C4F804530D2000F04FF8256030
:102D80004FF0E0216014C1F8000170BD10B50D20B6
:102D900000F033F83048012141600021C0F80011F3
:102DA000BDE810400D2000F039B82C4810B504687B
:102DB0002A492B48083108602749D1F80001012829
:102DC00004D0FFDF2548001D046010BD2148001D10
:102DD00000680022C0B2C1F8002100F072FFF1E7E4
:102DE00010B51D48D0F800110029FBD0FFF7DDFF1A
:102DF000BDE810400D2000F011B800280DDB00F0F8
:102E00001F02012191404009800000F1E020C0F83C
:102E10008011BFF34F8FBFF36F8F7047002809DB1E
:102E200000F01F02012191404009800000F1E020E4
:102E3000C0F880127047002804DB00F1E02090F811
:102E4000000405E000F00F0000F1E02090F8140D00
:102E50004009704704D5004000D0004010050240F2
:102E60000100000100210170084670470146002062
:102E700008707047EFF3108101F0010172B602781B
:102E8000012A01D0012200E000220123037001B9D0
:102E900062B60AB1002070474FF400507047E9E76E
:102EA000EFF3108111F0010F72B64FF000020270C3
:102EB00000D162B600207047F2E700001F490968A0
:102EC000014201D001207047002070471B49091DB5
:102ED0000968014201D0012070470020704717495E
:102EE00010310968014201D001207047002070476D
:102EF000124914310968014201D0012070470020B5
:102F0000704710B50D4C2060201D01600B4810303B
:102F10000260001D0360002010BD09490A6848F2E4
:102F200002139A4302430A607047054A116848F247
:102F3000021301EA03009943116070470006004044
:102F4000C806024002000B464FF00000014620D0A8
:102F5000012A04D0022A04D0032A0DD103E0012063
:102F600002E0022015E00320072B05D2DFE803F082
:102F70000406080A0C0E100007207047012108E023
:102F8000022106E0032104E0042102E0052100E023
:102F9000062101F044BE0000164908784A78401C1A
:102FA000C0B2904205D0144B01221A60BFF34F8F7C
:102FB000087070472DE9F0410E4C4FF0E02600BF3D
:102FC00001F060FA20BF40BF20BF677820786070B2
:102FD000D6F80052FFF720FA854305D1D6F804024F
:102FE00010B92078B842EBD001F047FA0020BDE8D4
:102FF000F081000070000020180502407047704703
:1030000018FFFFFFDBE5B151009002009400FFFFC5
:103010004C01000002093D00CC4800210170817084
:10302000704770B5CA4D01232B60CA4B1C68002C39
:10303000FCD0002407E00E6806601E68002EFCD05D
:10304000001D091D641C9442F5D3002028601868F7
:103050000028FCD070BD70B5BC4E0446BE4D307823
:10306000022800D0FFDFAC4200D3FFDF7169BB480C
:10307000012903D847F23052944201DD0322427104
:10308000491C7161291BC160B449707802F0A2F833
:10309000002800D1FFDF70BD70B5AC4C0D466178E3
:1030A000884200D0FFDFAC4E082D4ED2DFE805F09D
:1030B0004D0421304D4D4D3B2078022800D0FFDFDC
:1030C00003202070A078022802D0012804D008E054
:1030D000A068FFF719FE04E004F1080007C8FFF735
:1030E000A0FF052020700020A070BDE8704001F016
:1030F000FFBC01F0F7FD0146606802F0CFFBB04273
:1031000002D2616902290BD30320FFF7B5FD12E05B
:1031100001F0E8FD0146606802F0C0FBB042F3D266
:10312000BDE8704097E7207802280AD0052806D02D
:10313000FFDF04202070BDE8704000F0FCB80220E2
:1031400000E00320FFF798FDF3E7FFDF70BD70B5E7
:10315000054601F0C7FD7D4C60602078012800D055
:10316000FFDF7E4901200870002008718D60042077
:1031700048717948C86002202070607802F02AF80F
:10318000002800D1FFDF70BD10B5704CA07808B9E1
:10319000207808B1112010BD714801F023FD607046
:1031A0006078202804D0012020700020606110BDCC
:1031B000032010BD0246010B0120B2F5003F02D2F0
:1031C0008840FFF77BBEB2F5802F03D220398840BC
:1031D000FFF77CBEB2F5C02F03D240398840FFF71D
:1031E0007EBEB2F5002F03D260398840FFF780BE63
:1031F000002070472DE9F041144600EB84070E468D
:1032000005463F1FFFF793FD4FF080510A69504379
:1032100006EB8402121FB24201D2012200E000221A
:103220001CB10969B4EB910F02D90920BDE8F08106
:103230004C498D421AD3AF4218D3854201D28742FE
:1032400003D3494828447C2803D845EA0600800770
:1032500001D01020EAE78E4208D33AB92846FFF79A
:10326000A9FF18B93846FFF7A5FF08B10F20DDE721
:103270003E483F490068884205D0224631462846EC
:10328000FFF7CFFE10E0FFF77FFF0028CED12F48D9
:1032900001218560C0E9036481704FF4A97104FBCA
:1032A00001F01830FFF753FF0020BFE770B54FF073
:1032B0008055044628692B49B1FBF0F084420AD3BB
:1032C000FFF735FDA04201D8102070BD286960438A
:1032D000FFF770FF08B10F2070BD24482449006833
:1032E000884204D028696043FFF70EFD0CE0FFF729
:1032F0004BFF0028F0D12969144861438160022105
:1033000081701C48FFF723FF002070BD1548010B9A
:1033100001208840401E704770B50D460446FFF7F7
:10332000F5FF204201D00F2070BD29462046BDE8A0
:103330007040FFF7E6BD10B5044C607801F0B3FCB7
:1033400000B9FFDF00202070A07010BD3800002001
:1033500004E5014000E40140105C0C00E80300209B
:10336000993000000090020080EFFFEFF400002091
:10337000BEBAFECA7C5E01004C49096801600020AB
:1033800070474A4908600020704701218A0720B130
:10339000012804D042F204007047916700E0D16731
:1033A0000020704742490120086042F20600704741
:1033B00008B504233E4A1907103230B1C1F804336E
:1033C000106840F0010010600BE0106820F0010070
:1033D0001060C1F808330020C1F8080135480068C2
:1033E0000090002008BD011F0B2909D83049103179
:1033F0000A6822F01E0242EA40000860002070477E
:1034000042F205007047000100F18040C0F8041945
:1034100000207047000100F18040C0F8081900202A
:103420007047000100F18040D0F8000908600020DA
:103430007047012801D9072070471F4A52F8200021
:1034400002680A43026000207047012801D9072062
:103450007047194A52F8200002688A43026000202F
:103460007047012801D907207047134A52F82000FD
:103470000068086000207047020010494FF000000B
:1034800003D0012A01D0072070470A6070474FF02F
:1034900080410020C1F808014FF0E020802180F831
:1034A00000140121C0F80011704700000004004022
:1034B0000005004008010040987A020078050040AD
:1034C0006249634B0A6863499A42096801D1C1F3B2
:1034D00010010160002070475C495D4B0A685D493E
:1034E000091D9A4201D1C0F3100008600020704706
:1034F0005649574B0A68574908319A4201D1C0F3DF
:10350000100008600020704730B5504B504D1C68CB
:1035100042F20803AC4202D0142802D203E0112880
:1035200001D3184630BDC3004B481844C0F81015ED
:10353000C0F81425002030BD4449454B0A6842F2CA
:1035400009019A4202D0062802D203E0042801D3DE
:1035500008467047404A012142F830100020704769
:103560003A493B4B0A6842F209019A4202D00628C6
:1035700002D203E0042801D308467047364A0121ED
:1035800002EBC00041600020704770B52F4A304EFA
:10359000314C156842F2090304EB8002B54204D0B5
:1035A000062804D2C2F8001807E0042801D3184600
:1035B00070BDC1F31000C2F80008002070BD70B5E6
:1035C000224A234E244C156842F2090304EB800280
:1035D000B54204D0062804D2D2F8000807E0042837
:1035E00001D3184670BDD2F80008C0F3100008607F
:1035F000002070BD174910B5083118480860112027
:10360000154A002102EBC003C3F81015C3F81415C6
:10361000401C1428F6D3002006E0042804D302EB53
:103620008003C3F8001807E002EB8003D3F80048DA
:10363000C4F31004C3F80048401C0628EDD310BDA5
:10364000044906480831086070470000F400002073
:10365000BEBAFECA00F5014000F001400000FEFFC6
:10366000FB4805218170002101704170C1708160AB
:103670007047F8490A78012A06D0CA681044C86021
:10368000C868323802F0C8B88A6810448860886810
:10369000F7E710B5EE4CE07801F005FB00B9FFDF6D
:1036A0000820FFF7E9FA0520A07000202070607064
:1036B00010BD0378E849E94A13B1012B0ED011E09F
:1036C0000379012B00D06BB943790BB1012B09D1E0
:1036D0008368643B8B4205D2C0680EE00379012BFE
:1036E00002D00BB10020704743790BB1012BF9D107
:1036F000C368643B8B42F5D280689042F2D80120C7
:1037000070472DE9F0410446022701F05AFF006896
:1037100000B1FFDFCE4D01263CB12078B0B10128C9
:1037200005D0022810D0032813D02E710CE0606859
:10373000C82807D302F0DDF820B16068FFF799FFD1
:10374000012703E0002701E000F0CCF93846BDE88E
:10375000F08128780028F7D16068FFF7AAFF0028D9
:10376000E3D06068DFF8EC82007828B3A8780428FA
:1037700000D0FFDF0020464688F80000606800792E
:10378000C8B30020307160684079A8B3042070711C
:1037900060688168E86800F069FFB0606068C068D0
:1037A0003230F0600320A870AA49E87801F012FDD9
:1037B0000028C9D1FFDFC7E7404688F8006061688C
:1037C0000979D1B10021017161684979B9B1042148
:1037D000417161688968323181606168C968C1601E
:1037E000C0689B4C1434606001F07CFA20606E70FD
:1037F0000220A870A8E704E005E00321E3E7032125
:10380000E6E70120BEE70320C1E72DE9F047904C31
:103810008846E178884200D0FFDFDFF83492002547
:1038200001278C4E09F11409B8F1080F79D2DFE8AD
:1038300008F0040D2A557E849199A078032803D0BE
:10384000A078022800D0FFDFBDE8F087A078032829
:1038500003D0A078022800D0FFDF0420A0702571DB
:10386000207800287AD1FFF704FF3078012806D0AD
:10387000B068E060FFF759FB2061002062E0E0786B
:1038800001F071FBF5E7A078032803D0A0780228A7
:1038900000D0FFDF207800286FD1A078032816D051
:1038A00001F020FA01464F46D9F8000001F0F6FF7A
:1038B00000280EDB796881420BDB081AF06065494D
:1038C000E07801F087FC0028BED1FFDFBCE70420D0
:1038D00029E00420FFF7D0F9A570B5E7A078032808
:1038E00003D0A078022800D0FFDF207888BBA07822
:1038F000032817D001F0F6F901464F46D9F8000029
:1039000001F0CCFF0028E4DB79688142E1DB081A92
:10391000F0605049E07801F05DFC002894D1FFDFB1
:1039200092E740E00520FFF7A7F9A7708CE7A078A1
:10393000042800D0FFDF022004E0A078042800D093
:10394000FFDF0120A1688847FFF7DBFE054630E076
:1039500004E012E0A078042800D0FFDFBDE8F047C3
:1039600000F0C0B8A078042805D0607810B1A07825
:10397000022800D0FFDF207810B1BDE8F04788E6CC
:10398000207920B10620FFF777F92571CDE760781F
:1039900038B13049E07801F01DFC00B9FFDF6570F7
:1039A00052E70720BFE7FFDF4EE73DB1012D03D00F
:1039B000FFDF022DF9D147E70420C3E70320C1E769
:1039C00070B5050005D0224CA078052803D0112041
:1039D00070BD102070BD224801F004F9E070E0785D
:1039E000202803D0A5600020A07070BD032070BD0A
:1039F000174810B5017809B1112010BD817805294B
:103A00000CD0817801290BD0817849B10121017056
:103A10008178012904D0807810B103E00F2010BD17
:103A2000FFF737FE002010BD70B5094E0446B07890
:103A300008B101280AD1ACB12046FFF73AFE98B18F
:103A40002078044D90B1B07801282AD00F2070BDA5
:103A500050000020F80300203D860100FF1FA10751
:103A60000B3800001020F2E70720F0E70120287053
:103A7000207990B100202871607980B104206871AC
:103A8000A0683230A860E068E860E8681A4C6060BE
:103A900001F028F92060022016E00320EBE7032064
:103AA000EDE7002028702079A8B100202871607906
:103AB00098B104206871A168F06800F0D7FDA86093
:103AC000E0683230E8600320B0700C49F07801F013
:103AD00081FB28B903E00320E8E70320EAE7FFDFE2
:103AE0000020B4E7044810B514380069FFF715FA50
:103AF000BDE8104000F0FCBF64000020F803002087
:103B0000C84911F8210F4978884201D3401A02E0D0
:103B1000C1F121010844C0B27047C249233111F8F4
:103B2000210F4978884201D3401A02E0C1F12101F6
:103B30000844C0B27047BB49463111F8210F49789B
:103B4000884201D3401A02E0C1F121010844C0B209
:103B50007047B54910B5802081F80004B1490020B4
:103B6000233101F8210F4870AE4901F8210F487048
:103B7000AC49463101F8210F4870AC48FFF772F9A3
:103B8000AA48401CFFF76EF9FFF7DAF8BDE81040CD
:103B900000F03DB920207047B2E770B50C460546ED
:103BA0000026FFF7ADFF01469E48A14212D3002236
:103BB000641EE4B20DD390F82210435C491CC9B2D4
:103BC00005F8013B80F822102129F1D180F822204C
:103BD000EEE7012600F01BF9304670BD202070474B
:103BE0009BE770B50C4605460026FFF796FF014699
:103BF0008C482330A14212D30022641EE4B20DD3BC
:103C000090F82210435C491CC9B205F8013B80F8CA
:103C100022102129F1D180F82220EEE7012600F0C0
:103C2000F6F8304670BD202101700020704710B5B5
:103C30000446FFF780FF2070002010BD70B50C46D1
:103C40000546FFF778FF014676484630A14213D378
:103C50000022641EE4B20DD390F82210435C491C8C
:103C6000C9B205F8013B80F822102129F1D180F872
:103C70002220EEE7002401E042F2070400F0C7F83A
:103C8000204670BD70B50C460546212900D9FFDFDE
:103C900067480068103840B200F0A0F8C6B20D20A6
:103CA00000F09CF8C0B2864204D2FFDF02E000BF01
:103CB000FFF796F821462846FFF76FFF0028F7D058
:103CC00070BD2DE9F047DFF86481564CA8F101087A
:103CD0000746233498F80000DFF84891002604F1E5
:103CE000230A38B994F8221094F82100212200F018
:103CF00084F890B14D4699F8221099F821002122BC
:103D000000F07BF8B8B155469AF822109AF82100D5
:103D1000212200F072F848B335E094F821002754CE
:103D200094F82100401CC0B284F8210021282AD137
:103D300084F8216027E095F821002F5495F82100A0
:103D4000401CC0B285F82100212801D185F82160EE
:103D500098F800004746B0B195F8221095F8210078
:103D6000212200F04AF870B13E700CE095F8210075
:103D70002F5495F82100401CC0B285F8210021285D
:103D800001D185F8216094F8221094F821002122B5
:103D900000F033F800281FD099F8221099F821007C
:103DA000212200F02AF8002816D09AF822109AF85A
:103DB0002100212200F021F800280DD0FEF7E6FFB7
:103DC0001A48FFF757F8B0F5005F00D0FFDFBDE8F5
:103DD000F0471648FFF764B8BDE8F087002804DB19
:103DE00000F1E02090F8000405E000F00F0000F181
:103DF000E02090F8140D40097047401C884204D020
:103E0000904200D109B1002070470120704710B5E1
:103E10000648FFF72FF8002803D1BDE81040FEF751
:103E2000A0BF10BD080400200DE000E06D000020E0
:103E300004ED00E04FF0E0214FF00070C1F8800188
:103E400001F5C071BFF34F8FBFF36F8FC1F8000151
:103E5000384B802283F8002441F8800C704700B56D
:103E600002460620344903E001EBC0031B792BB165
:103E7000401EC0B2F8D2FFDFFF2000BD41F8302065
:103E800001EBC00100224A718A7101220A7100BD52
:103E9000294A002102EBC0000171704710B50446A9
:103EA000062800D3FFDF244800EBC4042079012852
:103EB00000D0FFDF6079A179401CC0B2814200D000
:103EC00060714FF0E0214FF00070C1F8000210BDAA
:103ED0002DE9F0411948056818491948083108606A
:103EE0001448062690F80004134F4009154C042886
:103EF00018D0FFDF16E0217807EBC1000279012A14
:103F000008D1427983799A4204D04279827157F874
:103F1000310080472078401CC0B22070062801D3B1
:103F200000202070761EF6B2E5D20448001D056020
:103F3000BDE8F08119E000E07404002010050240A3
:103F4000010000016F0000202DE9F0410125280348
:103F50004FF0E0210026C1F88001BFF34F8FBFF37F
:103F60006F8F1F4CC4F800610C2000F02CF81D4826
:103F700001680268C94341F3001142F01002026077
:103F8000C4F804532560491C00E020BFD4F8002188
:103F9000002AFAD019B9016821F010010160124815
:103FA00007686560C4F80853C4F800610C2000F08D
:103FB0000AF83846BDE8F08110B50446FFF7C4FFA3
:103FC0002060002010BD002809DB00F01F02012145
:103FD00091404009800000F1E020C0F88012704755
:103FE00000C0004010ED00E008C500402DE9F0479A
:103FF000F94C0646FF21606800EB0612117021782B
:10400000FF2910D04FF0080909EB011109EB061741
:104010004158C05900F0E2F9002807DD61682078B6
:1040200001EB061108702670BDE8F08794F8008057
:1040300045460DE0606809EB05114158C05900F094
:10404000CDF9002806DC6068A84600EB081005786A
:10405000FF2DEFD1606800EB061100EB08100D702A
:104060000670E1E7F0B5DC4B0446002001255A68F4
:104070000C261B7A0CE000BF05EB0017D75DA742AA
:1040800004D106EB0017D7598F4204D0401CC0B2B0
:104090008342F1D8FF20F0BD70B501F028FCCE4C72
:1040A00008252278616805EB0212895800F096F91C
:1040B000012808DD2178606805EB01114058BDE852
:1040C000704001F00BBC01F07FFABDE87040FFF7D3
:1040D000E5BE2DE9F041C04C257801F008FCFF2D2C
:1040E0006ED04FF00808626808EB0516915900F091
:1040F00075F90228606801DD80595DE000EB05116B
:1041000009782170022101EB0511425C5AB1521E5F
:104110004254815901F5800121F07F4181512846A7
:10412000FFF764FF34E00423012203EB051302EBE5
:10413000051250F803C0875CBCF1000F10D0BCF52D
:10414000007F10D9CCF3080250F806C00CEB423CBB
:104150002CF07F4C40F806C0C3589A1A520A09E066
:10416000FF2181540AE0825902EB4C3222F07F4257
:104170008251002242542846FFF738FF0C21606824
:1041800001EB05114158E06850F827203846904768
:104190002078FF2814D001F0AAFB2278616808EB90
:1041A00002124546895800F019F9012893DD21785B
:1041B000606805EB01114058BDE8F04101F08EBB8D
:1041C000BDE8F081F0B51D4614460E460746FF2BAC
:1041D00000D3FFDFA00700D0FFDF7F48FF210022D0
:1041E000C760446005720674017042701046012277
:1041F00005E000BF02EB0013401CE154C0B2A8422E
:10420000F8D3F0BD70B5744C06466578207C8542C5
:1042100000D3FFDFE06840F825606078401C6070E4
:10422000284670BD2DE9FF5F1D468B460746FF24DB
:1042300001F05DFBDFF8A091064699F80100B84255
:1042400000D8FFDF00214FF001084FF00C0A99F869
:104250000820D9F804000EE008EB0113C35CFF2B23
:1042600027D0BB4205D10AEB011350F803C0DC454F
:1042700021D0491CC9B28A42EED8FF2C1BD008EBD2
:1042800004110AEB0412475440F802B00421029BC7
:104290000022012B01EB041111D042504FF40078A1
:1042A00008234FF0020C454519D9E905C90D08D07E
:1042B00008E00C46DDE7FF2004B0BDE8F09F455064
:1042C000ECE7414606EB413203EB041322F07F4258
:1042D000C250691A0CEB0412490A81540BE005B96B
:1042E000012506EB453103EB041321F07F41C1505A
:1042F0000CEB0411425499F800502046FFF776FE6B
:1043000099F80000A84201D0FFF7C6FE3846D3E76F
:1043100070B50C46054601F0EAFA064621462846E5
:10432000FFF7A0FE0446FF281AD02B4D082101EB11
:10433000041168684158304600F050F800F580508C
:10434000C11700EBD140401302216A6801EB041150
:10435000515C09B100EB4120002800DC012070BD58
:10436000002070BD2DE9F0410F468046FFF77AFE30
:10437000FF281BD0184E357871682A462C4605E078
:10438000844206D0254601EB05131C78FF2CF7D19B
:104390000CE0FF2C0AD0A5420CD101EB02100078F2
:1043A0003070FF2804D0FFF777FE03E0002007E716
:1043B00001F09AFA39464046FFF7AAFFFF2201238F
:1043C000716803EB0413CA5401EB041201EB0511ED
:1043D00012780A70F4E60000A4040020081A000213
:1043E000C11700EB116000127047000010B52020CB
:1043F00000F075F8202000F083F84849202081F86B
:104400000004474900060860091D46480860FEF799
:1044100003F84349C83108604348D0F8041341F019
:104420000101C0F80413D0F8041341F08071C0F802
:1044300004133A4901201C39C1F8000110BD10B520
:10444000202000F04CF8364800210160001D01607A
:10445000334A481EE83A1060334AC2F80803304B2A
:10446000C8331960C2F80001C2F860012F49086022
:10447000BDE81040202000F043B829492C48EC3911
:104480000860704726492A48E8390860704770B5C7
:10449000234A8069E83A264911602349D1F800612E
:1044A0000023244D214A5C1E1EB1A84206D30021E0
:1044B0000FE0D1F8606186B1A84209D2C1F800319D
:1044C000C1F860311460BDE87040202000F018B8D9
:1044D0001168BDE8704023F083B9FFDF70BD00288C
:1044E0000DDB00F01F02012191404009800000F126
:1044F000E020C0F88011BFF34F8FBFF36F8F70477C
:10450000002809DB00F01F020121914040098000D2
:1045100000F1E020C0F880127047000020E000E0C9
:10452000000602407C170020000002400004024008
:10453000010000010090020070B50446A0F50000E3
:104540002D4EB0F1786F02D23444A4F500042B480C
:10455000844201D2012500E0002500F043F848B173
:1045600025B9B44204D32648006808E0012070BD94
:10457000002070BD002DF9D1B442F9D32148844206
:10458000F6D2F3E710B50446A0F50000B0F1786F5D
:1045900003D219480444A4F5000400F023F84FF0B6
:1045A000804130B11648006804E08C4204D20120FA
:1045B00003E014488442F8D2002080F0010010BDCE
:1045C00010B520B1FFF7DEFF08B1012010BD0020BB
:1045D00010BD10B520B1FFF7AFFF08B1012010BD2D
:1045E000002010BD084809490068884201D1012017
:1045F000704700207047000000000020009002007B
:104600000801002008000020F4000020BEBAFECA05
:104610002DE9F04190460C4607460025FE48072F3D
:1046200000EB881607D2DFE807F007070707040446
:104630000400012500E0FFDF06F81470002D08BF1C
:10464000BDE8F081F54800EB880090F8271020299C
:104650000EBF80F8264006EB41014C70202106EB8E
:104660004402517080F82740BDE8F08130B50D4616
:10467000EB4A44190021101A71EB010038BFFFDF2B
:10468000E8488542C8BFFFDFE7488542B8BFFFDF83
:10469000E6488442A8BFE64804DA002CAABF2046B8
:1046A000E24830BD201830BD2DE9F05FDB4D95F8B4
:1046B0002D6005EB860090F82640202C08BFBDE851
:1046C000F09FDFF854934FF0200BA9F5007A09EB27
:1046D0008618072718F8140001280AD0042808BFF4
:1046E000022706D0052808BF032702D0062818BFD6
:1046F000FFDFEFF3108000F0010072B608EB440119
:104700004A7805EB860181F8262091F82720A242FD
:1047100008BF81F827B000B962B6324621460120B1
:10472000FFF776FF0AEB04103946026820469047EF
:1047300095F82D6005EB860090F82640202CC6D118
:10474000BDE8F09F10B5B54C202184F8251084F801
:10475000261084F82710002084F8280084F82D0003
:1047600084F82E10411EA160206084F8200084F897
:10477000210020776077A077AE4984F82F0084F875
:10478000240008704870A4F182011022887001F89A
:10479000040F521EFAD1012001F018FB002001F095
:1047A00015FB012084F82200FFF744FBA248FFF725
:1047B00056FBA24C2070A248FFF751FB6070BDE889
:1047C000104001F091BA10B501F0BFFA9B4C20786F
:1047D000FFF75EFB6078FFF75BFB904C94F82400DA
:1047E000002808BF10BDFDF798FE002084F82400C3
:1047F00010BD202070472DE9F04F8246874897B0C2
:1048000000EB8A0BA0F520779BF82550202D3CD09B
:104810002C4601F08BFB07EB04118A4E4A6889682D
:10482000121A081A22F07F4220F07F40012A04D396
:10483000B2F5800F01D286421BD2774800EB8A196D
:10484000A04609EB48004478202C12D001F06EFB02
:1048500007EB041251689268091A101A21F07F417F
:1048600020F07F400129EBD3B1F5800FE8D28642DA
:10487000E6D3AC4209D0534642462021042001F041
:1048800023F917B00020BDE8F08F01F04FFB634C17
:1048900094F82F1069B1E168421C511A0902CA1735
:1048A00001EB126109120029C2BF002017B0BDE858
:1048B000F08F06469BF82500202835D04FF00008E1
:1048C0004FF0FF3107EB0010CDF8388010910790C2
:1048D000D0E90112C0681191CDE912205A48B0F810
:1048E0009C12ADF8541090F89E028DF856009DF879
:1048F0004D0000280CBF4FF004094FF00209534946
:1049000051F82070119907EB0902114421F07F4101
:104910000F91002F14BF022100218DF850100228A2
:1049200018BF012815D030E04FF0010001F04EFA19
:10493000002001F04BFA01F02FFA94F8240020B186
:10494000FDF7EBFD002084F82400002084F82F0000
:10495000C0E0119809EB07010844801B20F07F405C
:1049600033280BD903208DF84D001198C7F132017F
:10497000401A20F07F403227119012E094F8240072
:1049800018B9FEF799F9002845D0322F09D247B15E
:1049900094F8240060B9FDF797FD012084F8240005
:1049A00006E094F8240018B1FDF7B7FD84F82480E0
:1049B000204A117871B352780020D21B9DF850C064
:1049C000119F012916BF0329012300238DF85630BA
:1049D000002A04DDBA1A119201228DF850209DF8A8
:1049E0005420002A18BF0220119ADDF848E022F076
:1049F0007F421192921B134B22F07F42AEEB0606D0
:104A000026F07F46904298BFB2F5800F01D2B342A4
:104A10002BD21DE029E061E0B80600203807002015
:104A2000FF7F841E0020A10700E05EF80080841E46
:104A300000807BE174000020D34000007200002061
:104A4000A9460000FFFF3F00B8040020A07A020042
:104A50009DF85500002808BF03293FD08DF85480E9
:104A600011978DF850C08DF856809DF8500050B1C8
:104A700011984FF0010300EB09014FF000021846B6
:104A800001F0EDF902E0012001F0A0F907980123FF
:104A90000F9990F90C20002001F0E1F9012084F831
:104AA0002F008BF828800EADFB4895E80E10C0F85B
:104AB0008012C0F88422C0F88832C0F88CC212ADCF
:104AC00095E80E10C0F89012C0F89422C0F8983201
:104AD000C0F89CC217B00120BDE8F08F53462A46AB
:104AE0002021042000F0F0FF17B00020BDE8F08F77
:104AF0002DE9F041E94C256901F018FA401B00024C
:104B0000C11700EB1160001258BFFFDF94F82200BC
:104B1000002818BFFFDF012784F8227094F82E00C8
:104B2000202808BFFFDF94F82E60202084F82E0094
:104B3000002584F82F5084F8205084F82150D8485C
:104B400025600078022816BF032801200020207766
:104B5000A068B0F1FF3F05D04FF0FF30A06001200A
:104B600001F034F9002001F031F901F068FA01F0A8
:104B70005DFA01F011F9FEF763FDCA4805600560B2
:104B80004FF0E0214FF40040C1F8800201F0D5FA67
:104B900094F82D804046FFF72EFE0028FAD0C24838
:104BA00000EB881010F81600022804D14246314666
:104BB0000620FFF72DFD84F8237004EB880090F8A1
:104BC0002600202803D0B9484078FFF767F9207FF6
:104BD000002808BFBDE8F08101F01AFA2577657753
:104BE000BDE8F0810346AD4810B590F82D200024B3
:104BF000803800EB821000BF10F8141029B1611C3E
:104C0000CCB2202CF8D3202010BDA348214600EBC5
:104C1000041003600120FFF7FBFC204610BD0128B3
:104C200004D0032808BF002934D000E079B39B4AA0
:104C300092F82D30DFF870C24FF000020CEB8313B6
:104C400013F812C0BCF1000F01D008207047521CAD
:104C5000D2B2202AF4D3924A002812BF022800219F
:104C600051700BD0072915D2DFE801F01404060BB0
:104C70000D0F12001B2100E03A215170107000202E
:104C800070475821F9E77721F7E79621F5E701E02A
:104C9000B521F2E707207047814810B5407801F050
:104CA000E3F980B210BD10B5202811D27B4991F8EC
:104CB0002D30A1F1800202EB831C1CF810303BB1B7
:104CC00091F82D3002EB831212F81020012A01D046
:104CD000002010BD91F82D2001460020FFF798FC20
:104CE000012010BD10B501F021F9BDE8104001F020
:104CF000BBB92DE9F04F694A82B002EB810B20234A
:104D00009BF825204FF0000A6E4601AF8DF8003069
:104D1000202A08BF8DF8043000F02181DFF888C117
:104D2000DFF88CE10CEB8118ACF5007404EB021396
:104D300003F1040C9B680568EB1A1B024FEAE37948
:104D400003EB19631B1223D4437ACBB19CF809906F
:104D5000B9F1000F14D15EF82330DCF800C02B4409
:104D6000DEF800509B1CAC440CF1040CA3EB0C03CC
:104D70001B024FEAE37C03EB1C631B12322B07DBA5
:104D8000327008EB42025278202ACFD13378A1E06A
:104D900033783B70202A7DD004EB0213D0F804C096
:104DA0005E681D1DA6EB0C0C4FEA0C2C4FEAEC794B
:104DB0000CEB196C5FEA2C2C1ED495F809C0BCF1E1
:104DC000000F67D0457A002D64D15EF82CC00568CD
:104DD000B444DEF800600CF1020C35442D1DACEB40
:104DE000050C4FEA0C2C4FEAEC750CEB156C4FEAF6
:104DF0002C2CBCF1320F4DDA3A709B7B90F80AC034
:104E0000634505D908EB42025278202AC4D1A6E0B6
:104E10009DF80420D0E900C304EB0212A3EB0C03BD
:104E200092684FF0010A22F07F4C1A4422F07F4230
:104E3000C0E900C29BF825202023E8468DF8003009
:104E4000202A1CBF184B03EB81164BD004EB021336
:104E500003F1040C9B680568EB1A1B024FEAE37927
:104E600003EB19631B1237D4437AA3B19CF8099062
:104E7000B9F1000F25D15EF82330DCF800C02B44D7
:104E8000DEF800509B1CAC440CF1040CA3EB0C03AB
:104E90001B020FE063E014E0B80400203807002094
:104EA0007400002000F50040B806002072000020C9
:104EB000A07A02004FEAE37C03EB1C631B12322B47
:104EC0000ADB88F8002006EB42025278202ABDD186
:104ED00098F800303B7042E098F800303B70202A90
:104EE00004D13CE0DBB28DF8043038E004EB02156D
:104EF0004368D5F8048005F1040CA8EB03031B02FA
:104F00004FEAE37903EB19631B121CD49CF80930B8
:104F10002BB390F809C0BCF1000F20D15EF823300C
:104F2000D0F800C04344DEF800809B1CC4440CF160
:104F3000040CA3EB0C031B024FEAE37C03EB1C63A2
:104F40001B12322B0BDA3A70AB7B90F80AC0634528
:104F50007FF65EAF06EB42025278202AC6D102B03D
:104F60005046BDE8F08F70B5FE49FF4A01EB0014D2
:104F700054F8041F607A002852F8202011440CBF16
:104F800004200220084420F07F4001F06DF894F9DD
:104F90000850F64A44190021101A71EB010038BF7D
:104FA000FFDFF3488542C8BFFFDFF2488542B8BF44
:104FB000FFDFF1488442A8BFF04803DA002CB8BFF5
:104FC000ED4800DA2418204670BD2DE9F04F044664
:104FD000EB4887B00068C005C00D11D0103840B252
:104FE0000028B8BF00F00F0000F1E020ACBF90F83F
:104FF000000490F8140D400908BF4FF0010A01D0D9
:105000004FF0000A2078002808BFDE4F7DD100BF96
:1050100097F82D50002087F823008146BAF1000F41
:1050200013D12E46012020EA0605D748402200EB86
:10503000861100EB851022F008FB07EB860107EBD9
:105040008500D1F82510C0F8251000F06FFF064646
:105050002078EB46002860798DF80A0020798DF8D9
:10506000090007D0701D20F07F4897F82E002028F7
:1050700007D009E0D4E902232179584600F0E7FD82
:1050800035E0C24840788044217900225846A36820
:1050900000F0DDFDDDE90010401A404428F07F41BA
:1050A00020F07F40CDE90010D4E90232217903A835
:1050B00000F0CDFD29465846DDF81080FFF719FEB7
:1050C00000980199801B891B20F07F4021F07F41CF
:1050D000B0F5800F01D2884509D2DDE90010401AF1
:1050E000304426F07F4120F07F40CDE9001097F852
:1050F0002E00202816D038690099091A0902CA170B
:1051000001EB126109120DD500E024E0DDE9002178
:10511000891A20F07F42084420F07F40CDE900202A
:105120004FF0010997F8230000287FF471AF00F0D9
:10513000FDFE009A019B121A181A954922F07F422F
:1051400020F07F40B2F5800F05D2814203D3BAF13F
:10515000000F0AD103E007B00020BDE8F08F294618
:105160006846FFF7C6FD49EA0009B9F1000F2CD0E7
:105170009DF809007C4A0099002852F8202011442B
:105180000CBF04200220084420F07F4000F06CFF98
:105190009DF90860754A85190021101A71EB01000C
:1051A00038BFFFDF72488642C8BFFFDF71488642C2
:1051B000B8BFFFDF70488542A8BF704803DA002DF2
:1051C000B8BF6D4800DA2D18A56007B04FF0010098
:1051D000BDE8F08F2DE9F04F8146694891B00F4648
:1051E0000068684DC005C00D0ED0103840B20028D0
:1051F000B8BF00F00F0000F1E020ACBF90F8000451
:1052000090F8140D40090DD038784FF0000B0028AD
:105210001CBF0128FFDF4FF00106524800EB0910C8
:1052200003900DE095F82E004FF0010B202808BFE9
:10523000FFDF3878002818BFFFDFECE706B962B659
:1052400095F82D404FF0000885F82380BBF1000F42
:1052500017D1A246012020EA0A044B48402200EB65
:105260008A1100EB841022F0F0F905EB8A0005EBBF
:105270008401D0F82500C1F8250095F82300002806
:10528000DCD100F053FE0646CDF81CD0387800285B
:1052900078798DF80A0038798DF8090007D0701DEB
:1052A00020F07F4A95F82E00202807D009E0D7E9A2
:1052B00002233979079800F0CAFC35E0334840787A
:1052C000824439790022BB68079800F0C0FCDDE910
:1052D0000010401A50442AF07F4120F07F40CDE971
:1052E0000010D7E9023239790CA800F0B0FC214651
:1052F000DDF834A00798FFF7FCFC0099019A891BA0
:10530000901B21F07F4120F07F40B1F5800F01D24A
:10531000824509D21146009A891A701826F07F42F8
:1053200020F07F40CDE900201749684601EB841A40
:105330001AF81910012918BF022955D10099019BAB
:10534000A1EB0601124A21F07F41A3EB060323F0F3
:105350007F43012969D3B1F5800F66D29A4264D3A5
:1053600018E00000B8040020A07A0200FF7F841E2D
:105370000020A10700E05EF80080841E00807BE131
:1053800004ED00E038070020B8060020740000207B
:10539000FFFF3F004FF001080DAB0CAA214600F0C3
:1053A000CFFBE0B39DF834209DF830108A4248D0FE
:1053B0002346052000F088FB0AEB490148709DF860
:1053C0003000202803BF05EB840080F8259080F88A
:1053D00028800AEB400018BF80F801902246494619
:1053E0005FF00300FFF714F905EB840090F8280044
:1053F000EFF3108101F0010672B695F82310002931
:105400007FF41CAF9DE80E10B8F1000FCCF80C3003
:10541000CCE9011236D030EA0B0025D000E00CE0D8
:1054200095F82E00202816D01EE02246494604207A
:10543000FFF7EEF84FF00108D6E722464946042070
:10544000D0E7202919BF0AEB4100407805EB840022
:1054500090F82500B0E72046FFF7CDF920B938785D
:1054600040B101283FF4EAAE85F82D40012085F8CF
:10547000230005E095F82D2049460420FFF7C8F8E1
:105480004FF0010806B962B6B8F1000F0BD095F8DD
:105490002D0005EB800090F82600202803D0F94865
:1054A0004078FEF7FBFC11B04046BDE8F08F2DE9D7
:1054B000F14FF54C82B094F82D0000200127A4F1A3
:1054C00080088346B946009001E007B962B684F8C7
:1054D00023B094F82D60402229EA060508EB8510D8
:1054E00008EB8611824622F0B0F804EB860104EB4B
:1054F0008500D1F82510C0F8251094F82310002954
:10550000E3D102991AF81110032951D10190029A9E
:1055100090F82510914214BF0023012300F1250AC1
:105520008E46202608EB851C03E00E460CEB460158
:105530004978914202D020290AD0F6E7202907D0E5
:105540008E4507D10CEB4E0149788AF8001007E030
:10555000594606E00CEB41010CEB460249785170CC
:10556000494619421CBF80F8289084F81EB0F9B152
:105570002A4601200299FFF74BF8019890F828007D
:10558000EFF3108101F0010772B694F8231000299F
:105590009BD138B194F82E00202803D12846FFF77C
:1055A0002AF928B184F82D5084F823900120009026
:1055B00007B962B6009803B0BDE8F08F002000F094
:1055C000F5BB012000F0F2BBAE48007870472DE932
:1055D000F05FDFF8B8B20027ABF50079012509F5D7
:1055E000207480B1012853D0022800F0D380032812
:1055F0001CBFFFDFBDE8F09F94F82E00202840F08C
:10560000ED8000F0CDB894F8240018B9FCF75CFFE9
:1056100084F8245094F82E0020281CD194F82D8072
:1056200004EB880A9AF82560202E08BFFFDF0BEBF9
:10563000881000EB460040788AF825008AF8285048
:1056400084F82350314684F82E6042460220FEF74B
:10565000DFFF84F82270207E002818BFFFDF84F867
:105660002150002000F0B2FBA168B1F1FF3F04D04F
:1056700001230022184600F0F2FB94F82E0094F863
:105680002E1009EB01110A68BDE8F05F01211047F7
:1056900094F82E0020281CD194F82D8004EB880A61
:1056A0009AF82560202E08BFFFDF0BEB881000EB77
:1056B000460040788AF825008AF8285084F823505C
:1056C000314684F82E6042460220FEF7A1FF84F89E
:1056D0002270012000F07AFB94F8210000281CBF02
:1056E000A068B0F1FF3F0BD094F82E0094F82E1074
:1056F00009EB01110A68BDE8F05F4FF006011047A1
:10570000207E634E01280AD002281CBFFFDFBDE8BF
:10571000F09F84F8205094F8240010BB1DE0A77778
:1057200000F076FC3078032804BF65772577607D2C
:10573000584951F8200094F8201059B950B16168C7
:105740000123091A0022184600F089FB0220207666
:10575000BDE8F09F2776BDE8F09FFCF7B5FE84F822
:105760002450A07F002808BF277608D07178606891
:105770000123411A0022184600F071FB257694F8A7
:105780002E0094F82E1009EB01110A68BDE8F05FB5
:10579000002110473B480078BDE8F05FFEF77EBB74
:1057A00094F82D8004EB880A9AF82560202E08BF13
:1057B000FFDF0BEB881000EB460040788AF82500ED
:1057C0008AF8285084F8235084F82E6042463146E7
:1057D0000220FEF71DFF84F8227000BF94F82E000F
:1057E00094F82E1009EB01110A68BDE8F05F05215D
:1057F000104710B5244C94F82E00202808BFFFDF76
:1058000094F82E0094F82E10234A02EB01110A6836
:10581000BDE810400421104730B51B4C054683B04D
:1058200094F82E00202808BFFFDFA068B0F1FF3FEA
:1058300018BFFFDF94F82E0001AA174901EB0010F2
:10584000694690F90C00284400F01BFC9DF9040007
:105850000F28CCBF0120002000990844616808444B
:1058600020F07F41A16094F82100002804BF03B01C
:1058700030BD012303B00022BDE83040184600F0DF
:10588000EEBA00007200002038070020B8060020A1
:1058900074000020A07A0200B8040020FE4A0B1A0F
:1058A00002F1010CB3EB9C0F3CBF1846704710B5DA
:1058B000441AB4EB9C0F3CBF184610BD9A4203D269
:1058C000101A0844401C10BD94429EBFFFDF002008
:1058D00010BD511A0844401C404210BD0123002253
:1058E0000146022000F0BBBA022000F06FBA00F0BF
:1058F0001DBB2DE9F043E94C054683B094F82E001A
:10590000202808BFFFDF642D4FD3E5480021401B4E
:1059100071EB010049D394F82E00E24F94F82D90DA
:1059200007EB0018206801AA2844694600F0A9FB8B
:105930009DF90400002802DD0098401C0090D8F872
:1059400008000099D8F804204618B21A22F07F42C5
:10595000B2F5800F29D204EB890292F82520202A83
:105960000DD007EB02125268101A20F07F428A42D3
:105970001BD30002C11700EB1160001215D4A06800
:10598000B0F1FF3F05D0012000F020FA4FF0FF30CA
:10599000A06020682844206026F07F40206101201C
:1059A00084F8230003B0BDE8F08303B00020BDE815
:1059B000F0832DE9F05FB94C804694F82D00A4F1F6
:1059C000800505EB801010F81800002808BFFFDFE5
:1059D00094F82D7005EB871616F8180001280DD0E5
:1059E000C0B2042818BF05280DD0062818BF20BF54
:1059F00009D000BF16F818000128F1D10127BA46D6
:105A00004FF0000B07E03A4641460120FEF700FE4A
:105A1000F0E707B962B684F823B094F82D904022DD
:105A20002AEA090605EB891105EB861021F00DFE27
:105A300004EB890104EB8600D1F82510C0F825108D
:105A400094F823100029E4D100F1260100F1270C7D
:105A500090F826002022074605EB861303E0024655
:105A600003EB42004078404502D0202818D0F6E7EA
:105A7000202815D0874204D103EB47035B780B70D5
:105A800005E003EB400103EB420349785970BCF198
:105A9000000F05D09CF80010814208BF8CF8002050
:105AA000EFF3108000F0010772B694F8230000288D
:105AB000AFD184F82D6084F823A0002F18BFBDE873
:105AC000F09F62B6BDE8F09FF0B51F4614460E4643
:105AD0000546202A08BFFFDF7348704900EB871294
:105AE00002EB440001EB8703202E23D002EB46019A
:105AF000407891F801C0487020216046202C06D0E3
:105B0000014602EB4100A14205704078F8D193F8BC
:105B10002740202C1ABF02EB440484F801C083F80C
:105B200026C04FF0200C02EB410282F801C083F83E
:105B30002710F0BD93F825C0407883F82500DBE7F7
:105B40002DE9F003DFF854C120250CEB810C9CF803
:105B500025C01570BCF1200F08BF1D7073D0514CCB
:105B6000524E04F5007505EB811700BF04EB0C11D4
:105B70000D1D8968D0F80080A8EB010109024FEAE9
:105B8000E17901EB1961091223D4417AA9B195F8A1
:105B90000990B9F1000F10D156F821102D68414439
:105BA000D6F80080891C45442D1D491B0902CD17DC
:105BB00001EB1561091232290BDB07EB4C0182F86E
:105BC00000C091F801C0BCF1200FCFD115781D7035
:105BD00039E015781D70BCF1200F34D004EB0C12A5
:105BE0004568D2F80480111DA8EB05052D024FEA87
:105BF000E57905EB19652D1214D4497A19B3457A64
:105C00000DBB56F8211005684144D6F80080891C68
:105C100045442D1D491B0902CD1701EB15610912E1
:105C2000322910DA83F800C0917B827A914203D83E
:105C3000BDE8F0030020704707EB4C0191F801C06C
:105C4000BCF1200FCAD1BDE8F0030120704770B548
:105C50001D4613460E46044600F10802014682B076
:105C6000184600F00EFA94F908000F2804DD1F38DA
:105C700020722068401C2060002E0CBF04200220EF
:105C80000A4951F8261046182068801B20F07F40F2
:105C9000206094F908000BE0FF7F841E3807002085
:105CA000FF1FA107B8040020B8060020A07A020058
:105CB0002844C01C69461F28B8BF012009DB01AA7F
:105CC00000F0DFF99DF8040000281CBF0098401C7C
:105CD00000D000900099206831440844C01C20F096
:105CE0007F40606002B070BD10B44FF0E0224FF40E
:105CF00000634FF0010C0021C2F8803102F5C07240
:105D0000BFF34F8FBFF36F8FDC101460BFF34F8F63
:105D1000BFF36F8FEA4880F80014C01E80F80014AB
:105D2000E848C0F804C0C0F808C0C0F84011C0F886
:105D30004411C0F84811C2F80031C2F8004142F8DD
:105D4000803CC0F800C010BC704730B401204FF058
:105D5000E022C5024FF0000CC2F88051BFF34F8F14
:105D6000BFF36F8F0402C2F88041BFF34F8FBFF3C0
:105D70006F8FD44B58609860D34801680029FCD1DC
:105D8000C3F840C1C3F844C1C3F848C1C2F8805247
:105D9000C2F8804230BC70474FF0E0204FF4006101
:105DA000C0F88012C910C0F880127047002804BFE4
:105DB000C6487047012804BFC5487047022804BF81
:105DC000C448704700B5FFDF002000BD08B5BD49DD
:105DD000002298B1012834D002281CBFFFDF08BD83
:105DE0004FF48020C1F80803C1F84803BA480260A4
:105DF000C1F84821B7480068009008BD4FF48030D2
:105E0000C1F80803C1F84803B44B1A60C1F8402137
:105E1000B34BC1031960B349C1F80803B24802602B
:105E2000C1F840214FF0E0238015C3F88001C43150
:105E3000BFF34F8FBFF36F8FC1F83C21AB480270A7
:105E400008BD4FF40030C1F80803C1F84803A84862
:105E50000260C1F844219E480068009008BD70B5FA
:105E6000DFF860C2042600240125B0B101284CD01F
:105E700002281CBFFFDF70BD9E484FF48022012B1B
:105E8000C0F8401518BFCCF80823C0F8404108BF3F
:105E9000CCF80423CCF8442370BD881E20F07F404A
:105EA000CCF840054FF48030CCF80803CCF84041E2
:105EB000CCF84403012B14BF002101218B4B5970F6
:105EC00088490D61DFF830C2CCF800408B4C4FF0B0
:105ED000020CC4F800C0DFF828C2CCF80060DFF87C
:105EE00008C23D32CCF80020C1F800524FF0E02249
:105EF0004FF4807CC2F880C2C1F80403C2F800C12C
:105F00000804804908601D7070BD7F4A4FF400305E
:105F1000012BC2F8401518BFCCF80803C2F8404165
:105F200008BFCCF80403CCF8440370BD6648006891
:105F3000704770B575480568764975480860614CCA
:105F4000D4F84001002601280AD1D4F8080310F43F
:105F5000803F05D04FF48030C4F80803C4F8406196
:105F6000D4F8440101280DD1D4F8080310F4003FFF
:105F700008D04FF40030C4F80803C4F8446101208D
:105F8000FFF725FBD4F8480101280DD1D4F8080308
:105F900010F4802F08D04FF48020C4F80803C4F810
:105FA00048610220FFF713FB5B48056070BD57484E
:105FB00010B504685749564808604C4908780028CD
:105FC00008BF03201FD0464A4FF000401060454AEA
:105FD000C00BC2F80803444B00201860C2F840010F
:105FE0004FF0E02C9315CCF88031C432BFF34F8FC3
:105FF000BFF36F8FC2F83C0108704A78002A1CBFBB
:106000004870002001D0FFF7E2FA4348046010BD59
:106010004FF0E0214FF40010C1F8000270474FF03C
:10602000E0214FF40010C1F8800270472D49012093
:1060300008614FF0E0210002C1F880027047294951
:106040004FF47C10C1F8080300200146820002F1E1
:10605000804202F50042C2F84015C2F84011401CCF
:10606000C0B20628F2D37047410A43F609525143A1
:10607000C0F3080010FB02F000F5807001EB502027
:106080007047430B48F2376C03FB0CF31B0C4FEAD1
:10609000432CC1F800C0DFF884C003FB0C03204888
:1060A0004CF2F72C5843400D10FB0CFC0CEB432337
:1060B00003F580735B1213700A6810440860704720
:1060C0000BE000E000B0004004B50040408100401B
:1060D00044B1004048B1004048B5004040B50040E0
:1060E00008F5014000800040408500407600002017
:1060F00044B5004008B000400485004008850040D9
:106100001085004004F5014004B000401005024035
:10611000010000011805024014050240F7C2FFFF0C
:106120006F0C0100094810B504680A490848086066
:10613000FFF75FFB0848046010BD084900200860B5
:106140004FF0E0210220C1F88002704710050240A4
:10615000010000011805024014050240FC1F004028
:1061600070B5FF4C054694F88C00002601281BD022
