:020000040000FA
:1000000000040020F509000089060000D509000061
:10001000930600009D060000A706000000000000F7
:10002000000000000000000000000000190A0000AD
:10003000B106000000000000BB060000C50600007D
:10004000CF060000D9060000E3060000ED06000020
:10005000F7060000010700000B070000150700006D
:100060001F07000029070000330700003D070000BC
:1000700047070000510700005B070000650700000C
:100080006F07000079070000830700008D0700005C
:1000900097070000A1070000AB070000B5070000AC
:1000A000BF070000C9070000D3070000DD070000FC
:1000B000E7070000F1070000FB070000050800004B
:1000C0000F08000019080000230800002D08000098
:1000D00037080000410800004B08000055080000E8
:1000E0005F08000069080000730800007D08000038
:1000F00087080000910800009B080000A508000088
:10010000AF0800001FB500F003F88DE80F001FBD19
:1001100000F066BC10B54FF010208069401C20B183
:100120004FF01021886900F089FA10BDFC4A01687F
:100130001160121D41681160F94A10328168116026
:10014000121DC168116070471FB56FF0010000906B
:1001500040100390029001904FF010208069040B32
:1001600060095DF8200004F01F02012191408843DE
:1001700061094DF821006846FFF7D8FF1FBD2DE942
:10018000F04105460C461646002706E02846216841
:1001900000F066FA2D1D241D7F1CB742F6D3BDE882
:1001A000F08170B504460B464FF6FF710A4618E021
:1001B000B3F5B47F02D340F2671500E01D46284630
:1001C0001B1A00BF34F8026B751829462A44451ED5
:1001D0002800F7D18DB205EB114195B205EB124223
:1001E00000BF002BE4D188B200EB114190B200EBCC
:1001F000124241EA024070BD92B00446C94903C9A7
:10020000CDE90001FF22402102A800F08FFB0FCCB6
:10021000CDE90423CDE9020102A9202208465508B0
:1002200001EB850304E080C81D461B1F45F8047CD4
:100230009842F8D100BF102102A8FFF7B2FF00904A
:10024000AA208DF80400FFF77FFFFFF763FF4FF050
:100250001021896901F18000102202A9FFF78FFFA8
:100260004FF01021886908226946FFF788FF00F0E7
:10027000C9F901464FF0805000694FF08052526931
:1002800050430A68904201D8102070470020FCE7D4
:100290000146D1E9000200EB82024FF08050006974
:1002A0004FF080535B69584382420DD84FF01020C5
:1002B000406904234A6803FB0202980600699B0612
:1002C0005B695843824201D9092070474FF01020E2
:1002D0004069401C08B90F20F7E70020F5E770B52A
:1002E00005460C462E460BE0304600F0A7F9B4F563
:1002F000806F01D2002401E0A4F5806406F58056E9
:10030000002CF1D170BD2DE9F0410446206806288B
:100310006BD2DFE800F040031A305122A668E5688E
:10032000676829463046FFF7DAFF2A4639463046E5
:10033000FFF725FFAA003946304600F0CBFA10B986
:100340000020BDE8F0810320FBE700F07BFB4FF4C9
:100350008050754908600020F3E7201DFFF789FFF2
:1003600005460DB12846ECE700F06CFB6E4960686D
:1003700008600020E5E76568E668A768B2003946CE
:10038000284600F0A7FA8046B8F1000F01D10020FE
:10039000D7E70E20D5E74FF010208069401C08B940
:1003A0000420CEE7201DFFF773FF05460DB1284658
:1003B000C7E72046FFF720FF4FF010208069401C60
:1003C00008B90420BDE7201DFFF753FF05460DB116
:1003D0002846B6E7606828B9FFF7B6FEFFF79AFE31
:1003E00000F010F92046FFF707FF0720A9E770B5D6
:1003F00005460C46182D04D12068FFF784FF2060C5
:1004000002E00120206000BF00BF70BD2DE9FF4762
:1004100005464FF010204669A86806EB80074FEAB2
:10042000163807F6FF704FEA10390020009001904F
:100430000290039000BF0BE041095DF8211000F02D
:100440001F0301229A40114342094DF82210401C1B
:100450004045F1D348460BE041095DF8211000F01A
:100460001F0301229A40114342094DF82210401CFB
:100470008028F1D34FF010208069040B60095DF8EB
:10048000200004F01F0201219140884361094DF8CA
:1004900021006846FFF74AFEBDE8FF872DE9F041DD
:1004A00004464FF010204569A6686768B2003946D7
:1004B000284600F00FFA10B10020BDE8F0810120BD
:1004C000FBE70446606808B1012000E00020074611
:1004D0002046FFF7E3FF28B1FFF736FEFFF71AFECD
:1004E00000F090F82046FFF791FFBFB14FF01020C9
:1004F000D0F81480A5686668B6F5002F0BD2B5F564
:10050000002F08D229464046FFF7E9FE2A46314629
:100510004046FFF734FEFFF7FDFD00BF00F072F824
:1005200000060040680A00000000002004466568DC
:100530003C480560006800F05FFA4FF010208069C9
:10054000401C002843D04FF01020806900F1800447
:100550004FF0102085692879AA2837D1102120462C
:10056000FFF71FFE07462868B8422BD14FF0102036
:10057000806900F18001202208464FEA520C01EB0D
:100580008C0601230EE053B150F8049BB446361F8D
:100590005CF804CCE14502D14FF0010C01E04FF0D2
:1005A000000C6346B042EED163B1206810B104285C
:1005B00006D102E02046FFF784FF2046FFF7B6FF92
:1005C00000BFFEE7FFF7A6FD00F01CF800BF4FF0EC
:1005D00010204069401C50B14FF010204069006865
:1005E000401C20B14FF01021486900F005FA4FF48B
:1005F00080500068401C08B900BFFEE74FF48050EF
:1006000000F0FAF9BFF34F8F0748006800F4E0608C
:1006100006490843001D04490860BFF34F8F00BF1F
:10062000FEE70000000000200CED00E00000FA05ED
:1006300000BF134800680028FBD0704700B5014692
:100640000220104A1060FFF7F3FF0E48001D016002
:10065000FFF7EEFF00200B4A1060FFF7E9FF00BD37
:1006600000B502460120074B1860FFF7E1FF11605B
:10067000FFF7DEFF0020034B1860FFF7D9FF00BD36
:1006800000E4014004E5014008208F490968095849
:10069000084710208C4909680958084714208A49DE
:1006A0000968095808471820874909680958084700
:1006B0003020854909680958084738208249096867
:1006C000095808473C2080490968095808474020D4
:1006D0007D4909680958084744207B490968095839
:1006E0000847482078490968095808474C20764946
:1006F000096809580847502073490968095808478C
:100700005420714909680958084758206E490968FA
:10071000095808475C206C49096809580847602057
:1007200069490968095808476420674909680958F0
:100730000847682064490968095808476C206249DD
:1007400009680958084770205F490968095808472F
:1007500074205D4909680958084778205A49096892
:10076000095808477C2058490968095808478020DB
:1007700055490968095808478420534909680958A8
:100780000847882050490968095808478C204E4975
:1007900009680958084790204B49096809580847D3
:1007A000942049490968095808479820464909682A
:1007B000095808479C204449096809580847A0205F
:1007C0004149096809580847A4203F490968095860
:1007D0000847A8203C49096809580847AC203A490D
:1007E000096809580847B020374909680958084777
:1007F000B4203549096809580847B82032490968C2
:1008000009580847BC203049096809580847C020E2
:100810002D49096809580847C4202B490968095817
:100820000847C8202849096809580847CC202649A4
:10083000096809580847D02023490968095808471A
:10084000D4202149096809580847D8201E49096859
:1008500009580847DC201C49096809580847E02066
:100860001949096809580847E420174909680958CF
:100870000847E8201449096809580847EC2012493C
:10088000096809580847F0200F49096809580847BE
:10089000F4200D49096809580847F8200A490968F1
:1008A00009580847FC2008490968095808475FF4B7
:1008B0008070054909680958084700000348044941
:1008C000024A034B7047000000000020780A000035
:1008D000780A000040EA010310B59B070FD1042AF3
:1008E0000DD310C808C9121F9C42F8D020BA19BAFB
:1008F000884201D9012010BD4FF0FF3010BD1AB160
:10090000D30703D0521C07E0002010BD10F8013BB4
:1009100011F8014B1B1B07D110F8013B11F8014BDB
:100920001B1B01D1921EF1D1184610BD02F0FF032E
:1009300043EA032242EA024200F005B870477047DA
:1009400070474FF000020429C0F0128010F0030C31
:1009500000F01B80CCF1040CBCF1020F18BF00F8B2
:10096000012BA8BF20F8022BA1EB0C0100F00DB861
:100970005FEAC17C24BF00F8012B00F8012B48BFBF
:1009800000F8012B70474FF0000200B51346944663
:100990009646203922BFA0E80C50A0E80C50B1F1D7
:1009A0002001BFF4F7AF090728BFA0E80C5048BFEB
:1009B0000CC05DF804EB890028BF40F8042B08BF89
:1009C000704748BF20F8022B11F0804F18BF00F885
:1009D000012B7047014B1B68DB68184700000020A3
:1009E00009480A497047FFF7FBFFFFF78BFB00BD83
:1009F00020BFFDE7064B1847064A1060016881F3E7
:100A00000888406800470000780A0000780A000063
:100A10003B050000000000201EF0040F0CBFEFF3A8
:100A20000881EFF30981886902380078182803D11A
:100A300000E00000074A1047074A12682C3212688B
:100A40001047000000B5054B1B68054A9B589847A6
:100A500000BD0000EF03000000000020640A000059
:100A600004000000001000000000000000FFFFFF75
:040A70000090D0031F
:10100000C8090020ADDE0000495100001DDE0000CF
:101010004951000049510000495100000000000002
:1010200000000000000000000000000005DF0000DC
:1010300049510000000000004951000049510000E2
:101040006DDF000073DF00004951000049510000CE
:101050004951000049510000495100004951000028
:1010600079DF000049510000495100007FDF000096
:101070004951000085DF00008BDF000091DF000098
:1010800049510000495100004951000049510000F8
:1010900049510000495100004951000049510000E8
:1010A00097DF00009DDF000049510000495100001A
:1010B00049510000495100004951000049510000C8
:1010C000A3DF0000495100004951000049510000D0
:1010D00049510000495100004951000049510000A8
:1010E0004951000049510000495100004951000098
:1010F0004951000049510000495100004951000088
:10110000495100004951000000F002F80CF0BBFE0C
:101110000AA090E8000C82448344AAF10107DA4552
:1011200001D10CF0B0FEAFF2090EBAE80F0013F0D7
:10113000010F18BFFB1A43F001031847B0CF00009E
:10114000D0CF00000A444FF0000C10F8013B13F020
:10115000070408BF10F8014B1D1108BF10F8015B10
:10116000641E05D010F8016B641E01F8016BF9D103
:1011700013F0080F1EBF10F8014BAD1C0C1B09D15A
:101180006D1E58BF01F801CBFAD505E014F8016BCC
:1011900001F8016B6D1EF9D59142D6D3704700005E
:1011A0000023002400250026103A28BF78C1FBD870
:1011B000520728BF30C148BF0B6070471FB500F011
:1011C000B5F88DE80F001FBD8269034981614FF0BA
:1011D0000100104470470000DD11000001B41EB48E
:1011E00000B501F057FE01B40198864601BC01B07C
:1011F0001EBD00001EF0040F0CBFEFF30880EFF3DC
:101200000980014A10470000B7340000F0B440469E
:10121000494652465B460FB402A0013001B506486C
:10122000004700BF01BC86460FBC804689469246F7
:101230009B46F0BC7047000009110000401E00BF33
:1012400000BF00BF00BF00BF00BF00BF00BF00BFA6
:1012500000BF00BF00BF00BF00BF00BF00BF00BF96
:1012600000BF00BF00BF00BF00BF00BF00BF00BF86
:1012700000BF00BF00BF00BF00BF00BF00BF00BF76
:1012800000BF00BF00BF00BF00BF00BF00BF00BF66
:1012900000BF00BF00BF00BF00BF00BF00BF00BF56
:1012A00000BF00BF00BF00BF00BF00BF00BFC5D16F
:1012B00070470000401E00BF00BF00BF00BF00BF5E
:1012C00000BF00BF00BF00BF00BF00BF00BF00BF26
:1012D00000BF00BF00BF00BF00BF00BF00BF00BF16
:1012E00000BF00BF00BF00BF00BF00BF00BF00BF06
:1012F00000BF00BF00BF00BF00BF00BF00BF00BFF6
:1013000000BF00BF00BF00BF00BF00BF00BF00BFE5
:1013100000BF00BF00BF00BF00BF00BF00BF00BFD5
:1013200000BF00BF00BFC5D1704700000CF0A8BDD2
:101330004FF0E0224FF400410020C2F88011204914
:101340000870204990020860704730B51C4D044673
:101350002878A04218BF002C02D0002818BFFFDF59
:101360002878A04208BF30BD2C701749154A0020CC
:10137000ECB1164DDFF858C0131F012C0DD0022C14
:101380001CBFFFDF30BD086003200860CCF80050B0
:101390004FF400001060186030BD08600220086043
:1013A000CCF800504FF040701060186030BD0860FD
:1013B00008604FF06070106030BD00B5FFDF00BD09
:1013C0000800002008F5014000F5004078010020E9
:1013D00014F5004010B504460021012000F03AF851
:1013E0000021182000F036F800210B2000F032F820
:1013F0000421192000F02EF804210D2000F02AF815
:1014000004210E2000F026F804210F2000F022F81D
:101410000421C84300F01EF80721162000F01AF836
:101420000721152000F016F8204603F0B1FE002039
:1014300010BD8D210180704703F0BFBE0D4870477D
:101440000D4A12680C4B0D4A08331A6004F0C4BCF4
:10145000704770474907090E002806DA00F00F00B0
:1014600000F1E02080F8141D704700F1E02080F8C2
:101470000014704703F90043100502400100000109
:101480002DE9F0410C4611490D68104A1049083207
:101490001160A0F120012A2901D301200CE03E288F
:1014A00010D040CC0B4F94E80E0007EB8000241FB7
:1014B00050F8807C3046B84720600448001D056025
:1014C000BDE8F0812046FFF77FFEF5E710050240FA
:1014D00001000001D4DF000010B5EFF3108000F030
:1014E000010472B6EB484178491C417040780128EC
:1014F00001D100F077FD002C00D162B610BD70B5AF
:10150000E44CE07848B90125E570FFF7E5FF00F00D
:1015100071FD20B1002000F0A3FB002070BD4FF052
:1015200080406571C0F80453F7E770B5EFF31080A1
:1015300000F0010572B6D74C607800B9FFDF607823
:10154000401E6070607808B900F050FD002D00D199
:1015500062B670BDCF4810B5C17821B1002141718C
:10156000C170FFF7E2FF002010BD10B5044600F087
:1015700041FDC849C978084000D001202060002002
:1015800010BD2DE9F05FDFF80C934278817889F87F
:101590000620002589F80710064689F808500078CB
:1015A0002F4620B101280FD002280FD0FFDF00F016
:1015B0002EFD98B100F032FDA8420FD1284600F070
:1015C00031FD0028FAD047E00125F0E7FFF784FF5E
:1015D00000F010FD0028FBD00225E8E70120840779
:1015E000E060C4F80471AC490D600107D1F8441201
:1015F000A94AC1F3423124321160A7494FF0020BCE
:1016000034310860C4F804B3A060DFF890A2DAF8BF
:101610000010C94341F3001101F10108DAF800108C
:1016200041F01001CAF8001000E020BFD4F8040116
:101630000028FAD0284600F0F5FC0028FAD0B8F1CE
:10164000000F05D1DAF8001021F01001CAF80010DF
:10165000C4F808B3C4F8047199F807004C4670B197
:10166000307860B900F0C6FC064601F037FC6FF038
:10167000004116B1C4E9031001E0C4E9030115B14A
:101680002771BDE8F09F01202071BDE8F05F00F0F8
:10169000DFB870B5050000D1FFDF4FF080424FF09A
:1016A000FF30C2F808030021C2F80011C2F804118B
:1016B000C2F80C11C2F81011764C617000F0A0FC59
:1016C00010B10120E07060702846BDE8704058E716
:1016D0002DE9F0410125AF077D616E4CE079F0B155
:1016E000012803D0217A401E814218DA00F082FCE2
:1016F000064601F0F3FBE179012902D9217A491C60
:1017000021720EB1216900E0E168411A022902DA72
:1017100011F1020F0EDC0EB1206100E0E060FFF776
:10172000DBFE00F067FC10B13D61A57000E02570A4
:1017300000202072BDE8F0812DE9F05F5848D0F814
:1017400000B0574A5749083211608406D4F808019E
:1017500010B14FF0010801E04FF00008D4F800018B
:1017600000B101208146D4F8040108B1012600E04F
:101770000026D4F80C0100B101208246D4F81001F3
:1017800008B1012700E0002748EA090126EA010024
:1017900020EA0A00B84300D0FFDF0025B8F1000FAF
:1017A00004D0C4F80851012000F05AFADFF8E480B0
:1017B000B9F1000F13D0C4F8005198F8050020B11A
:1017C00088F80550002000F04BFA98F8000030B17E
:1017D00000F010FC18B1012088F8020020610EB161
:1017E000C4F80451BAF1000F0AD0C4F80C5198F8AB
:1017F0000200464600B9FFDFB5703570FFF795FE71
:1018000037B1C4F8105198F8040008B1FFF760FF31
:101810002349091DC1F800B033E770B51D4DE878C4
:1018200008B900F0E3FB01208407A061A87850B15B
:10183000D4F80C0120B9002000F0F4FB0028F7D107
:101840000020C4F80C014FF0FF30C4F8080370BD4D
:101850002DE9F0411926B507C5F808630124AC61EC
:101860000020C5F80001C5F80C01C5F8100100F012
:10187000C1FB084F10B1BC702C6100E03C70FFF759
:101880002BFE0549B87920310860C5F804636C6106
:1018900050E700000C0000201805004010ED00E0AB
:1018A0001005024001000001F0B5734AD2F8003281
:1018B000724D002401212E7856B9714E3460704F5C
:1018C00003263F1D3E606E4F04260C373E60297094
:1018D000C2F80042D1601160694C4834D164256877
:1018E0008542FBD35160D160C2F80032F0BD2DE9D2
:1018F000F041044680074FF000054FF0010604D583
:1019000060480560066024F00204E0044FF0FF37F1
:1019100005D55D484660C0F8087324F48054600023
:1019200003D55A48056024F08044E0050FD552489D
:10193000C0F80052C0F8087351490D60091D0D60D0
:101940004F4A04210C321160066124F48074A00413
:1019500009D54F484660C0F80052C0F808734D489A
:10196000056024F40054C4F38030C4F3C0318842CD
:1019700000D0FFDF14F4404F14D047484660C0F851
:10198000087346488660C0F80052C0F8087344499E
:101990000D600A1D16608660C0F808730D60166041
:1019A00024F4404420050AD53E4846608660C0F8CD
:1019B0000873C0F848733C48056024F4006400F0E4
:1019C000A9FD3A48044200D0FFDFBDE8F08170B5C0
:1019D000202500224FEA020320FA02F1C90719D09C
:1019E00051B201F01F060124B4404E09B60006F1C1
:1019F000E026C6F88041C6F88042002906DA01F0E8
:101A00000F0101F1E02181F8143D03E001F1E02133
:101A100081F80034521CAA42DED370BD70B5174C59
:101A20000D466060FFF763FF6068FFF7D0FF284650
:101A3000FFF72FFE00F03CF801F029F800F06AFDF6
:101A400000F0B5FC01F094F9BDE8704000F020B959
:101A500010B50A4C6068FFF74AFF6068FFF7B7FFF0
:101A600000F058FDFFF7D9FE0020606010BD03486C
:101A7000406870470320704700800040200000202D
:101A800004850040FC1F004000C0004004E5014008
:101A900000D0004004D5004000E0004000F00040CD
:101AA00000F5004000B0004008B50040FEFF0FFC0C
:101AB00010B5524800F06CFB00B1FFDF4F48401CEE
:101AC00000F066FB002800D0FFDF10BD2DE9F14FCC
:101AD0004B4ED6F800B00127484800F061FBDFF814
:101AE0001C8128B95FF0000708F1010000F06EFBCF
:101AF000444C00254FF0030901206060C4F80051F8
:101B0000C4F80451009931602060DFF8FCA018E0AF
:101B1000DAF80000C00614D50E2000F064F8EFF3E8
:101B2000108010F0010072B600D00120C4F80493B8
:101B3000D4F8001119B9D4F8041101B920BF00B9C3
:101B400062B6D4F8000118B9D4F804010028DFD037
:101B5000D4F804010028CFD137B1C6F800B008F19D
:101B6000010000F01DFB11E008F1010000F018FB7E
:101B70000028B9D1C4F80893C4F80451C4F800513E
:101B80000E2000F030F81D4800F020FB0020BDE8DA
:101B9000F88F2DE9F0438DB00D46064600240DF177
:101BA00010090DF1200817E004EB4407102255F846
:101BB000271068460CF0B3F805EB8707102248465B
:101BC00079680CF0ACF86846FFF780FF10224146B8
:101BD000B8680CF0A4F8641CB442E5DB0DB000203A
:101BE000BDE8F08372E700F01F0201219140400937
:101BF000800000F1E020C0F880127047280000202B
:101C000004E5004000E0004010ED00E070B51F4921
:101C10000A68BAB100231D4601244A68521C4A6072
:101C2000092A00D34D600E7904FA06F20E681642B6
:101C30000AD072B60B6893430B6062B649680160C4
:101C4000002070BD052070BD5B1C092BE5D3FFDFB4
:101C5000F8E74FF0E0214FF48000C1F80002704730
:101C6000EFF3108111F0010F72B64FF0010202FA8A
:101C700000F20648036842EA0302026000D162B63D
:101C8000E7E7024800210160416070472C00002016
:101C9000C948002101708170704770B5C74D01239C
:101CA0002B60C74B1C68002CFCD0002407E00E689A
:101CB00006601E68002EFCD0001D091D641C9442A5
:101CC000F5D30020286018680028FCD070BD70B5DE
:101CD000B94E0446BB4D3078022800D0FFDFAC423D
:101CE00000D3FFDF7169B848012903D847F23052A9
:101CF000944201DD03224271491C7161291BC160BC
:101D0000B1497078BDE8704001F047BF70B5AA4C8A
:101D10000D466178884200D0FFDFAA4E092D4FD2D0
:101D2000DFE805F04E0522314E4E4E4E3C00207845
:101D3000022800D0FFDF03202070A078022802D004
:101D4000012804D008E0A06800F07CF904E004F168
:101D5000080007C8FFF7A1FF052020700020A07031
:101D6000BDE8704001F0B7BC01F086FD0146606837
:101D700002F0ABFEB04202D2616902290BD303200C
:101D8000FFF76EFF12E001F077FD0146606802F098
:101D90009CFEB042F3D2BDE8704098E7207802285C
:101DA0000AD0052806D0FFDF04202070BDE870406F
:101DB00000F0F8B8022000E00320FFF751FFF3E73E
:101DC000FFDF70BD70B5054601F056FD7A4C6060CE
:101DD0002078012800D0FFDF7B4902200870002214
:101DE0000A718D6004224A71764ACA602070607858
:101DF000BDE8704001F0D1BE10B56F4CA07808B9B5
:101E0000207808B1112010BD704801F0CFFC60703F
:101E1000607820B1012020700020606110BD032097
:101E200010BD0246010B0120B2F5003F02D28840EE
:101E300000F0DAB9B2F5802F03D22039884000F0E3
:101E4000DBB9B2F5C02F03D24039884000F0DDB9CC
:101E5000B2F5002F03D26039884000F0DFB90020CE
:101E600070472DE9F041144600EB84070E46054605
:101E70003F1F00F0FAF84FF080510A69504306EB1B
:101E80008402121FB24201D2012200E000221CB1E2
:101E90000969B4EB910F02D90920BDE8F0814C49E2
:101EA0008D421AD3AF4218D3854201D2874203D361
:101EB000484828447C2803D845EA0600800701D01A
:101EC0001020EAE78E4208D33AB92846FFF7A9FF67
:101ED00018B93846FFF7A5FF08B10F20DDE73E48E7
:101EE0003E490068884205D0224631462846FFF721
:101EF000D4FE10E0FFF780FF0028CED12E4801214C
:101F00008560C0E9036481704FF4A97104FB01F09E
:101F10001830FFF757FF0020BFE770B54FF080552E
:101F2000044628692A49B1FBF0F084420AD300F044
:101F30009CF8A04201D8102070BD28696043FFF7CB
:101F400070FF08B10F2070BD234824490068884203
:101F500004D02869604300F075F80CE0FFF74CFFEF
:101F60000028F0D129691448614381600221817001
:101F70001B48FFF727FF002070BD1548010B01200B
:101F80008840401E704770B50D460446FFF7F5FFC8
:101F9000204201D00F2070BD29462046BDE8704088
:101FA00000F045B910B5044C607801F04FFC0020FA
:101FB0002070A07010BD00003400002004E5014036
:101FC00000E40140105C0C00A40100200D1D000085
:101FD0000020010080EFFFEF78000020BEBAFECAAB
:101FE0007C5E0100012081070860704701208107A5
:101FF0004860704712480068C00700D00120704751
:102000000F48001F0068C00700D0012070470C482F
:1020100008300068C00700D0012070470848103021
:102020000068704706490C310A68D20306D5096872
:1020300001F00301814201D1012070470020704767
:102040000C0400400B4A022111600B490B68002B65
:10205000FCD0084B1B1D186008680028FCD000202D
:10206000106008680028FCD070474FF0805040692D
:102070007047000004E5014000E4014010B50D2068
:1020800000F06FF8C4B26FF0040000F06AF8C0B25C
:10209000844200D0FFDF3A490120086010BD70B5CE
:1020A0000D2000F048F8374C0020C4F8000101254D
:1020B000C4F804530D2000F049F825604FF0E021EA
:1020C0006014C1F8000170BD10B50D2000F033F8A8
:1020D0002C48012141600021C0F80011BDE81040EA
:1020E0000D2000F033B8284810B504682649274869
:1020F000083108602349D1F80001012804D0FFDF2E
:102100002148001D046010BD1D48001D006800220C
:10211000C0B2C1F8002100F072FDF1E710B5194816
:10212000D0F800110029FBD0FFF7DDFFBDE810401B
:102130000D2000F00BB800F01F0201219140400972
:10214000800000F1E020C0F88011704700F01F020D
:10215000012191404009800000F1E020C0F8801288
:102160007047002806DA00F00F0000F1E02090F838
:10217000140D03E000F1E02090F8000440097047DE
:1021800004D5004000D000401005024001000001CD
:102190000021017008467047014600200870704712
:1021A000EFF3108101F0010172B60278012A01D02B
:1021B000012200E000220123037001B962B60AB1D6
:1021C000002070474FF400507047E9E7EFF31081AB
:1021D00011F0010F72B64FF00002027000D162B62A
:1021E00000207047F2E700001F490968014201D052
:1021F00001207047002070471B49091D09680142F2
:1022000001D001207047002070471749103109683C
:10221000014201D00120704700207047124914315B
:102220000968014201D0012070470020704710B5B5
:102230000D4C2060201D01600B4810300260001D15
:102240000360002010BD09490A6848F202139A434E
:1022500002430A607047054A116848F2021301EA16
:10226000030099431160704700060040C806024011
:1022700056490968016000207047544908600020F1
:10228000704701218A0720B1012804D042F20400DE
:102290007047916700E0D167002070474C490120EA
:1022A000086042F20600704708B50423484A19073F
:1022B000103230B1C1F80433106840F001001060F2
:1022C0000BE0106820F001001060C1F80833002016
:1022D000C1F808013F4800680090002008BD3C4953
:1022E000103140B101280CD0022812D0032816D09A
:1022F00042F205007047086820F01E0040F0100010
:1023000004E0086820F01E0040F01400086000207F
:102310007047086820F01E0040F01800F6E70868D3
:1023200020F01E0040F01C00F0E7294924310A6823
:1023300002430A6000207047254924310A6882431D
:102340000A6000207047224924310968016000209A
:102350007047012801D9072070471F4A52F8200012
:1023600002680A43026000207047012801D9072053
:102370007047194A52F8200002688A430260002020
:102380007047012801D907207047134A52F82000EE
:102390000068086000207047020010494FF00000FC
:1023A00003D0012A01D0072070470A6070474FF020
:1023B00080410020C1F808014FF0E020802180F822
:1023C00000140121C0F80011704700000004004013
:1023D0000005004008010040E82F0000780500409B
:1023E0006249634B0A6863499A42096801D1C1F3A3
:1023F00010010160002070475C495D4B0A685D492F
:10240000091D9A4201D1C0F31000086000207047F6
:102410005649574B0A68574908319A4201D1C0F3CF
:10242000100008600020704730B5504B504D1C68BC
:1024300042F20803AC4202D0142802D203E0112871
:1024400001D3184630BDC3004B481844C0F81015DE
:10245000C0F81425002030BD4449454B0A6842F2BB
:1024600009019A4202D0062802D203E0042801D3CF
:1024700008467047404A012142F83010002070475A
:102480003A493B4B0A6842F209019A4202D00628B7
:1024900002D203E0042801D308467047364A0121DE
:1024A00002EBC00041600020704770B52F4A304EEB
:1024B000314C156842F2090304EB8002B54204D0A6
:1024C000062804D2C2F8001807E0042801D31846F1
:1024D00070BDC1F31000C2F80008002070BD70B5D7
:1024E000224A234E244C156842F2090304EB800271
:1024F000B54204D0062804D2D2F8000807E0042828
:1025000001D3184670BDD2F80008C0F3100008606F
:10251000002070BD174910B5083118480860112017
:10252000154A002102EBC003C3F81015C3F81415B7
:10253000401C1428F6D3002006E0042804D302EB44
:102540008003C3F8001807E002EB8003D3F80048CB
:10255000C4F31004C3F80048401C0628EDD310BD96
:1025600004490648083108607047000078000020E0
:10257000BEBAFECA00F5014000F001400000FEFFB7
:1025800010B54FF000040B460200204621461ED035
:10259000012A04D0022A04D0032A1DD103E001201D
:1025A00002E0022013E00320072B15D2DFE803F03E
:1025B000140406080A0C0E00012108E0022106E0BE
:1025C000032104E0042102E0052100E0062101F0DE
:1025D00007F908B1204610BD0724FBE7FE48052196
:1025E0008170002101704170C17081607047FB49AA
:1025F0000A78022A06D0CA681044C860C86832380F
:1026000002F00FBA8A68104488608868F7E7037898
:10261000F349F44A13B1012B0ED011E00379012BD9
:1026200000D06BB943790BB1012B09D18368643BAE
:102630008B4205D2C0680EE00379012B02D00BB1AA
:102640000020704743790BB1012BF9D1C368643B7B
:102650008B42F5D280689042F2D8012070472DE974
:10266000F0470446022601F06AFC006800B1FFDF73
:10267000D94D01273CB12078B0B1012805D00228FE
:1026800010D0032813D02F710CE06068C82807D33E
:1026900002F046FA20B16068FFF7A9FF012603E0C7
:1026A000002601E000F0AFF93046BDE8F087287859
:1026B0000028F7D16068FFF7AAFF0028E3D0606820
:1026C000DFF81883007810B3A878042800D0FFDF63
:1026D0000020474688F8000060680079C0B30020F9
:1026E000387160684079A0B30420787160688168AF
:1026F000E86801F0DAF8B8606068C0683230F86005
:102700000320A870B549E87801F047FACAE74FF00E
:102710000209404688F8009061680979D1B100212A
:10272000017161684979B9B10421417161688968B1
:10273000323181606168C968C160C068A64C1434D8
:10274000606001F099F820606F7085F80290A9E749
:1027500004E005E00321E3E70321E6E70120BFE70A
:102760000320C2E72DE9F0479B4C8846E178884278
:1027700000D0FFDFDFF8609200250127974E09F1B6
:102780001409B8F1090F76D2DFE808F0050D2A3DEB
:10279000646A769E7E00A078032886D0A0780228FE
:1027A00083D0FFDF81E7A078032803D0A078022838
:1027B00000D0FFDF0420A0702571207800285FD1B1
:1027C000FFF715FF3078022806D0B068E060FFF709
:1027D00042FD2061002048E0E07801F084F8F5E750
:1027E000A078032803D0A078022800D0FFDF20784B
:1027F00078BBA078032812D1042026E00420FFF73C
:102800002FFAA57051E7A078032803D0A0780228FA
:1028100000D0FFDF2078E0B9A078032814D001F0C1
:102820002BF801464F46D9F8000002F04EF9002877
:10283000E4DB79688142E1DB081AF0606749E078FF
:10284000BDE8F04701F0A9B90520FFF709FAA77024
:102850002BE724E0A078042800D0FFDF022004E06A
:10286000A078042800D0FFDF0120A1688847FFF787
:10287000F6FE05462EE027E0A078042800D0FFDF12
:10288000BDE8F04700F0BFB8A078042805D0607814
:1028900010B1A078022800D0FFDF207818B1BDE881
:1028A000F04700F0B9B8207920B10620FFF7D8F939
:1028B0002571CCE7607828B14849E07801F06DF9DE
:1028C0006570F2E60720C0E7FFDFEEE63DB1012DBF
:1028D00003D0FFDF022DF9D1E7E60420C5E703208E
:1028E000C3E770B5050005D03B4CA078052803D0A0
:1028F000112070BD102070BD3B4800F057FFE07004
:10290000E07818B1A5600020A07070BD032070BDF4
:10291000314810B5017809B1112010BD8178052921
:102920000CD0817801290BD0817849B10121017047
:102930008178012904D0807810B103E00F2010BD08
:1029400000F06AF8002010BD2DE9F041224E044647
:10295000B07808B101280AD164B12046FFF757FECC
:1029600050B120781D4D48B1B078012822D00F20F9
:10297000BDE8F0811020FBE70720F9E702272F7060
:10298000207998B100202871607988B1042068719D
:10299000A0683230A860E068E860E8680E4C143443
:1029A000606000F069FF2060B77022E00320EAE772
:1029B0000320ECE700202870207900B30020287164
:1029C0006079F0B104206871A168F06800F06DFFD3
:1029D000A860E068323009E04C000020B40100201B
:1029E0003D860100FF1FA10765270000E860032066
:1029F000B0701049F07801F0D0F80020B8E703205B
:102A0000DDE70320DFE70C4810B50069FFF71BFC8A
:102A1000BDE8104000F05FBE10B5074CE07800F054
:102A200015FF0820FFF71CF90520A070002020707A
:102A3000607010BDB40100204C000020C84911F89E
:102A4000210F4978884201D3401A02E0C1F12101E7
:102A50000844C0B27047C249233111F8210F4978A8
:102A6000884201D3401A02E0C1F121010844C0B2FA
:102A70007047BB49463111F8210F4978884201D38C
:102A8000401A02E0C1F121010844C0B27047B549C3
:102A900010B5802081F80004B1490020233101F8ED
:102AA000210F4870AE4901F8210F4870AC494631FA
:102AB00001F8210F4870AC48FFF76AFBAA48401C98
:102AC000FFF766FBFFF7DAFABDE8104000F03DB90A
:102AD00020207047B2E770B50C4605460026FFF788
:102AE000ADFF01469E48A14212D30022641EE4B20B
:102AF0000DD390F82210435C491CC9B205F8013B84
:102B000080F822102129F1D180F82220EEE7012659
:102B100000F01BF9304670BD202070479BE770B570
:102B20000C4605460026FFF796FF01468C482330E9
:102B3000A14212D30022641EE4B20DD390F82210F9
:102B4000435C491CC9B205F8013B80F822102129D9
:102B5000F1D180F82220EEE7012600F0F6F83046A9
:102B600070BD202101700020704710B50446FFF7AA
:102B700080FF2070002010BD70B50C460546FFF7A1
:102B800078FF014676484630A14213D30022641EE6
:102B9000E4B20DD390F82210435C491CC9B205F889
:102BA000013B80F822102129F1D180F82220EEE7A4
:102BB000002401E042F2070400F0C7F8204670BD8F
:102BC00070B50C460546212900D9FFDF674800682B
:102BD000103840B200F0A0F8C6B20D2000F09CF80A
:102BE000C0B2864204D2FFDF02E000BFFFF796FAD0
:102BF00021462846FFF76FFF0028F7D070BD2DE96A
:102C0000F047DFF86481564CA8F1010807462334E9
:102C100098F80000DFF84891002604F1230A38B93B
:102C200094F8221094F82100212200F084F890B149
:102C30004D4699F8221099F82100212200F07BF8E6
:102C4000B8B155469AF822109AF82100212200F0D6
:102C500072F848B335E094F82100275494F8210025
:102C6000401CC0B284F8210021282AD184F82160B8
:102C700027E095F821002F5495F82100401CC0B2A0
:102C800085F82100212801D185F8216098F80000FD
:102C90004746B0B195F8221095F82100212200F0A6
:102CA0004AF870B13E700CE095F821002F5495F869
:102CB0002100401CC0B285F82100212801D185F8EF
:102CC000216094F8221094F82100212200F033F8BA
:102CD00000281FD099F8221099F82100212200F035
:102CE0002AF8002816D09AF822109AF821002122FA
:102CF00000F021F800280DD0FFF7E6F91A48FFF799
:102D00004FFAB0F5005F00D0FFDFBDE8F04716488E
:102D1000FFF75CBABDE8F087002806DA00F00F0084
:102D200000F1E02090F8140D03E000F1E02090F8AD
:102D3000000440097047401C884204D0904200D1F2
:102D400009B1002070470120704710B50648FFF711
:102D500027FA002803D1BDE81040FFF7A0B910BD45
:102D6000C40100200DE000E06900002004ED00E057
:102D70004FF0E0214FF00070C1F88001C1F88002EF
:102D8000384B802283F80024C1F80001704700B559
:102D900002460420344903E001EBC0031B792BB148
:102DA000401EC0B2F8D2FFDFFF2000BD41F8302046
:102DB00001EBC00100224A718A7101220A7100BD33
:102DC000294A002102EBC0000171704710B504468A
:102DD000042800D3FFDF244800EBC4042079012835
:102DE00000D0FFDF6079A179401CC0B2814200D0E1
:102DF00060714FF0E0214FF00070C1F8000210BD8B
:102E00002DE9F0411948056818491948083108604A
:102E10001448042690F80004134F4009154C042868
:102E200018D0FFDF16E0217807EBC1000279012AF4
:102E300008D1427983799A4204D04279827157F855
:102E4000310080472078401CC0B22070042801D394
:102E500000202070761EF6B2E5D20448001D056001
:102E6000BDE8F08119E000E03002002010050240CA
:102E7000010000016B000020164908784A78401CC8
:102E8000C0B2904205D0144B01221A60BFF34F8F9D
:102E9000087070472DE9F0410E4C4FF0E02600BF5E
:102EA00000F004FB20BF40BF20BF6778207860702F
:102EB000D6F80052FEF7C2FA854305D1D6F80402CF
:102EC00010B92078B842EBD000F0EBFA0020BDE852
:102ED000F08100006C000020180502402DE9F0414F
:102EE000012528034FF0E0210026C1F880011E4C87
:102EF000C4F800610C2000F02CF81C48016802683E
:102F0000C94341F3001142F010020260C4F80453B7
:102F10002560491C00E020BFD4F80021002AFAD027
:102F200019B9016821F01001016011480768656056
:102F3000C4F80853C4F800610C2000F00AF83846C1
:102F4000BDE8F08110B50446FFF7C8FF20600020FF
:102F500010BD00F01F02012191404009800000F1E6
:102F6000E020C0F88012704700C0004010ED00E083
:102F700008C50040094810B504680A4908480860B7
:102F800001F0E1F80848046010BD0849002008601D
:102F90004FF0E0210220C1F8800270471005024086
:102FA000010000011805024014050240FC1F00400A
:102FB0000548064A0168914201D100210160044997
:102FC000012008607047000078000020BEBAFECAE9
:102FD00040E5014070477047704770477047704741
:102FE00070477047704700001C05004020050040F6
:102FF00000100200000000000000000000000000BF
:1030000018FFFFFFDBE5B151002001008D00FFFF3D
:10301000D400000081841E002DE9F047F84C0646DC
:10302000FF21606800EB061211702178FF2916D08D
:103030004FF0080909EB011109EB06174158C05977
:10304000491E21F07F4100F0DDF918B194F80080AD
:10305000454614E06168207801EB0611087026707F
:10306000BDE8F087626809EB0510D159105800F0EF
:10307000C9F930B96068A84600EB08100578FF2D43
:10308000F0D1606800EB061100EB08100D700670BF
:10309000E6E7F0B5DA4B0446002001255A680C2615
:1030A0001B7A0BE005EB0017D75DA74204D106EBB6
:1030B0000017D7598F4204D0401CC0B28342F1D8C8
:1030C000FF20F0BD70B501F029FDCD4C014608256B
:1030D0002278606805EB0212805800F093F901280D
:1030E00008D92178606805EB01114058BDE87040AF
:1030F00001F00BBD00F026FFBDE87040FFF766BE93
:103100002DE9F041BE4C257801F008FD0146FF2D68
:103110006FD04FF00808626808EB0516905900F070
:1031200071F90228606801D980595EE000EB051151
:1031300009782170022101EB0511425C5AB1521E3F
:103140004254815901F5000121F07F418151284607
:10315000FFF762FF34E00423012203EB051302EBC7
:10316000051250F803C0875CBCF1000F10D0BCF50D
:10317000806F10D9CCF3090250F806C00CEB423C2A
:103180002CF07F4C40F806C0C3589A1A920A09E006
:10319000FF2181540AE0825902EB4C3222F07F4237
:1031A0008251002242542846FFF736FF0C21606806
:1031B00001EB05114158E06850F827203846904748
:1031C0002078FF2815D001F0A9FC0146227860681C
:1031D00008EB02124546805800F014F9012891D9F5
:1031E0002178606805EB01114058BDE8F04101F01D
:1031F0008CBCBDE8F081F0B51D4614460E4607466E
:10320000FF2B00D3FFDFA00700D0FFDF7C48FF21AA
:103210000022C76044600572067401704270104657
:10322000012204E002EB0013401CE154C0B2A842AA
:10323000F8D3F0BD70B5724C06466578207C8542A7
:1032400000D3FFDFE06840F825606078401C6070C4
:10325000284670BD2DE9FF5F1D468B460746FF24BB
:1032600001F05CFCDFF89891064699F80100B8423D
:1032700000D8FFDF00214FF001084FF00C0A99F849
:103280000820D9F804000EE008EB0113C35CFF2B03
:1032900027D0BB4205D10AEB011350F803C0DC452F
:1032A00021D0491CC9B28A42EED8FF2C1BD008EBB2
:1032B00004110AEB0412475440F802B00421029BA7
:1032C0000022012B01EB041111D042504FF4806811
:1032D00008234FF0020C454519D9A905890D08D0DE
:1032E00008E00C46DDE7FF2004B0BDE8F09F455044
:1032F000ECE7414606EB413203EB041322F07F4238
:10330000C250691A0CEB0412890A81540BE005B90A
:10331000012506EB453103EB041321F07F41C15039
:103320000CEB0411425499F800502046FFF774FE4C
:1033300099F80000A84201D0FFF7C4FE3846D3E751
:1033400070B50C46054601F0E9FB064621462846C5
:10335000FFF79FFE0446FF2817D0294D082101EBF7
:10336000041168684058314600F04CF800F5805070
:10337000400B02216A6801EB0411515C09B100EBBA
:103380008120002800D1012070BD002070BD2DE9F2
:10339000F0410F468046FFF77CFEFF281BD0184EF9
:1033A000357871682A462C4605E0844206D02546C9
:1033B00001EB05131C78FF2CF7D10CE0FF2C0AD091
:1033C000A5420CD101EB021000783070FF2804D028
:1033D000FFF778FE03E000200BE701F09CFB394685
:1033E0004046FFF7ADFFFF220123716803EB041392
:1033F000CA5401EB041201EB051112780A70F8E6C9
:1034000050020020401A20F07F40B0F5000F00D994
:103410000020704710B5202000F075F8202000F043
:103420007DF84449202081F80004434900060860E3
:10343000091D42480860FEF701F83F49C83108609D
:103440003F48D0F8041341F00101C0F80413D0F84C
:10345000041341F08071C0F80413364901201C396F
:10346000C1F8000110BD10B5202000F04CF8324822
:1034700000210160001D01602F4A481EE83A1060DB
:103480002F4AC2F808032C4BC8331960C2F8000158
:10349000C2F860012B490860BDE81040202000F010
:1034A0003DB825492848EC3908607047224926482C
:1034B000E8390860704770B51F4A8069E83A2249C8
:1034C00011601F49D1F800610023204D1D4A5C1E88
:1034D0001EB1A84206D300210FE0D1F8606186B189
:1034E000A84209D2C1F80031C1F860311460BDE8CA
:1034F0007040202000F012B81168BDE870400AF05A
:103500008CBCFFDF70BD00F01F020121914040091B
:10351000800000F1E020C0F88011704700F01F0229
:10352000012191404009800000F1E020C0F88012A4
:103530007047000020E000E0000602407C0A002006
:1035400000000240000402400100000100200100D0
:103550002DE9F041FE4CA07E617E884208BFBDE8A7
:10356000F0810126FB4D0027607E215C01EB81028A
:1035700005EB8200037C052B18D0037C062B23D09F
:10358000037C072B34D0437C002B08BFFFDF29D0FE
:103590004774607E18280EBF0020607E401C607655
:1035A000481CC0B255F8222007211AE00674607E3C
:1035B00018281ABF607E401C00206076481CC0B2EC
:1035C00055F8222002210CE00674607E18281ABFEC
:1035D000607E401C00206076481C55F82220C0B256
:1035E00003219047A07E617E8842BDD1BDE8F08175
:1035F0000674607E18281ABF607E401C002060762A
:10360000481CC0B255F822200821EAE770B5D24D17
:103610000D2085F82900A5F54A70002480F8F541B1
:1036200080F8F44100F504708476447605F12C00AE
:10363000FEF7AEFDA5F59870047585F82B40601E69
:103640002C60A86085F8254085F8224085F8234045
:1036500085F8244085F82140C048A5F1FC0104709C
:103660004470002000EB800201EB82021474401CC5
:10367000C0B20C28F6D3012001F08AFB002001F033
:1036800087FB012085F82600FFF772FBB448FFF79F
:103690007EFBB44C2070B448FFF779FB6070BDE846
:1036A000704001F009BB10B501F034FBAD4C20783F
:1036B000FFF786FB6078FFF783FBA74C94F82800A0
:1036C000002808BF10BDFDF730FF002084F8280057
:1036D00010BD0C20704770B59F4C94F82600002850
:1036E0001CBFFFDF70BD94F82B00002808BFFFDF70
:1036F00001F0F9FB62690025811A6FF07F43B1F593
:10370000800F24BFA2EB000CBCF5800F0DD38B42C1
:1037100003D2991A0844411C07E0634528BFFFDF24
:1037200005D2181A1044401C4142002900DBFFDF7B
:10373000012684F8266084F82B5094F82910042080
:10374000844A01EB810102EB81010874A068B0F1A9
:10375000FF3F04D0B01EA060012001F019FB002043
:1037600001F016FB01F0FAFA2560FEF7F9FE01F010
:1037700043FC7E48056005604FF0E0214FF40040B7
:10378000C1F88002FFF701FC74480078022804D0D9
:10379000032805D194F8230010B184F8226001E0D9
:1037A00084F82250BDE8704001F00ABC0346694924
:1037B0000C2000BF00EB800201EB820212F8042C07
:1037C00022B1401E10F0FF00F4D1704700EB8002E0
:1037D00001EB8201012241F8143C01F8042C7047EE
:1037E000012804D0032808BF002926D000E021B317
:1037F000594B4FF0000C83F821C0584A00289070B4
:1038000014BF022882F803C00BD0072915D2DFE8C5
:1038100001F01404060C0E1012001B2000E03A20E8
:10382000D070012083F8210070475820F8E77720F6
:10383000F6E79620F4E7B520F2E700207047474806
:1038400010B5407801F0E1FB80B210BD30B5421EEA
:103850004049002500EB800001EB80040B2A02D8D0
:1038600014F8040C00B9FFDF14F8040C012818BF89
:10387000FFDF04F8045C30BD70B53D4C94F8F501F1
:1038800094F8F41188420CBF0125002501F02BFBB0
:1038900001F0BBFB94F8F51194F8F42191420CBFB0
:1038A00001210021A942E9D170BD30B50D46314A50
:1038B00044190021101A71EB010038BFFFDF2E48B8
:1038C0008542C8BFFFDF2D488542B8BFFFDF2C48C7
:1038D0008442A8BF2B4804DA002CAABF20462848FF
:1038E00030BD201830BD70B51A4900EB800001EBE7
:1038F0008004254A54F8101D607A002852F82020D0
:1039000011440CBF04200220084420F07F4001F045
:103910007CFB94F90850174A44190021101A71EBE6
:10392000010038BFFFDF14488542C8BFFFDF1348DE
:103930008542B8BFFFDF12488442A8BF114804DAAD
:10394000002CAABF20460E4870BD201870BD000094
:1039500074040020900400208C05002070000020DA
:10396000013100006E0000205135000000F50040DC
:1039700064020020FF7F841E0020A10700E05EF8A3
:103980000080841E00807BE17CE000002DE9F04F88
:103990000746FF4885B00068C005C00D11D010383B
:1039A00040B20028B8BF00F00F0000F1E020B4BF23
:1039B00090F8140D90F80004400908BF4FF0010A78
:1039C00001D04FF0000A387800281FBF01280020DE
:1039D00005B0BDE8F08F387900280CBF0421022122
:1039E000EC4ABAF1000F52F8200001EB000903D1B4
:1039F000E949002081F827006C4602AA2146B868F0
:103A000001F010FB9DF90800FA68211D1044012205
:103A1000C01C1F28B8BF019208DB03AA01F002FBFB
:103A20009DF80C0010B10198401C0190DDE90010D8
:103A30000844401D20F07F400190A1EB090020F0D8
:103A40007F40009078798DF80A000098039001F08B
:103A50004AFA009A019B121A181AD04922F07F42A2
:103A600020F07F40B2F5800F26D2814224D3CA488D
:103A700090F82950009CCA4E181B20F07F486FF028
:103A80007F40001BAB4604900D2D22D005EB850036
:103A900006EB80026FF07F435068011BB1F5800F89
:103AA00012D3A4EB000CBCF5800F0DD38B4205D2D2
:103AB00004990844411C07E000205FE0634520D2E0
:103AC000191A0819401C41420029BCBFAB46957C1D
:103AD000DADB5D4527D00BEB8B0006EB80036FF044
:103AE0007F429968081BB0F5800F14D3A4EB010C3A
:103AF000BCF5800F0FD3824205D204980844401CC5
:103B000009E0FFDFE5E7624528BFFFDF0BD2521A6D
:103B10001019401C4042002805DD9DF80A009A7BE0
:103B2000904228BF0C460D2D18BF9DF80A1010D0EA
:103B300005EB850006EB80004268121B22F07F42F5
:103B4000424506D2827B914228BF8468857C0D2D38
:103B5000EED10098A04205D004EB080020F07F4091
:103B60000094019000990398814206D001EB09006E
:103B700020F07F4001F049FAB8600120864991F8B1
:103B80002710002904BF05B0BDE8F08FBAF1000F7F
:103B90003FF42EAF05B0BDE8F08F2DE9F04F05469C
:103BA00087B00C467F48FEF7FBFA0126002837D085
:103BB000DFF8F48198F81400002818BFFFDF88F8B8
:103BC00010502079784D05F10C02287260796872E6
:103BD0002946A06801F026FA95F90C000F2804DDAB
:103BE0001F3828732868401C286095F90C00E1688C
:103BF0002F1D0844C01C1F28B8BF3E6009DB6A4661
:103C0000394601F00FFA9DF8000010B13868401CE9
:103C100038602078A87288F8146007B0BDE8F08F8B
:103C2000624F97F8F50118281FD097F8F50197F81B
:103C3000F411401C884200D1FFDF55480068C105DF
:103C4000C90D1BD0A1F1100041B20029BDBF01F088
:103C50000F0000F1E02090F8140D01F1E020A8BF62
:103C600090F80004400909D104E097F8F401002815
:103C7000E3D1E1E72078002818BFFFDF4B4890F838
:103C8000F51101EB810100EB81000574207801281A
:103C900000F04881022842D0444890F8F51101EB29
:103CA000810100EB8105207928726079687205F145
:103CB0000C022946A06801F0B5F995F90C000F280F
:103CC00004DD1F3828732868401C286095F90C1003
:103CD000E0682F1D0844C01C1F28B8BF3E6009DBE8
:103CE0006A46394601F09EF99DF8000010B1386827
:103CF000401C38602078A8722C4890F8F5111829DB
:103D00000EBF002190F8F511491C80F8F5112548E7
:103D1000FEF75CFA07B0BDE8F04F01F051B9234857
:103D200090F8F51101AA01EB810100EB81076946CA
:103D3000E06801F077F99DF904000F28CCBF01205D
:103D4000002000993D1D08440190A068C01C1F2858
:103D5000B8BF2E6009DB6A46294601F063F99DF879
:103D6000000010B12868401C28600220B8726079F9
:103D700078722079387200280CBF04210221054A8C
:103D800052F82000084403907968401D08440FE071
:103D900004ED00E07CE000008C050020FFFF3F0008
:103DA00090040020B80500205C040020640200207C
:103DB0000199009001440398081A0590FD4C0020D9
:103DC00084F8270001F08FF8386001998046084494
:103DD00020F07F40F86094F829000D287ED021461D
:103DE00091F8290000EB8002A1F1FC0000EB8202B7
:103DF0005668009A324422F07F42029297F809B046
:103E000091F829503446111B21F07F4A6FF07F4111
:103E1000891BA94604910D2D21D0E74805EB8501AA
:103E200000EB81026FF07F435068011BB1F5800FFA
:103E300024BFA4EB000CBCF5800F0BD38B4203D244
:103E400004990844411C05E0634521D2191A081958
:103E5000401C41420029BCBFA946957CDBDB4D4597
:103E600026D0D54809EB890100EB81036FF07F4232
:103E70009868011BB1F5800F14D3A4EB000CBCF5BE
:103E8000800F0FD38A4205D204990144491C09E0EE
:103E9000FFDFE4E7624528BFFFDF09D2121A1119DC
:103EA000491C4942002903DD997B8B4528BF044604
:103EB0000D2D18BFC04910D005EB850001EB800027
:103EC0004268121B22F07F42524506D2827B934504
:103ED00028BF8468857C0D2DEED100E01BE0A64252
:103EE00005D004EB0A0020F07F4026460290029A9B
:103EF000A6EB080121F07F41A2EB0802059822F011
:103F00007F42B1F5800F06D2904204D3039830442B
:103F100020F07F403860A74890F8270000287FF401
:103F20004DAFE9E6A548054415F8010C002818BF77
:103F3000FFDF05F8016CAFE6002000F019BF01209B
:103F400000F016BF9E48007870472DE9F0419A4E68
:103F500000274FF00308012506F1FC0450B30128A7
:103F60005BD0022800F0E98003281CBFFFDFBDE81A
:103F7000F08194F829000D2808BFFFDF84F826702F
:103F800084F82B5094F8290000EB800006EB8000A9
:103F900080F8108001F01BF894F8290094F829109B
:103FA000401CC0B201EB810156F82120BDE8F04170
:103FB0000521104794F829000D2808BFFFDF84F879
:103FC000267084F82B5094F8290000EB800006EB53
:103FD000800080F8108000F0FAFF207F002818BFD2
:103FE000FFDF84F82550002000F0D2FEA168B1F177
:103FF000FF3F04D001230022184600F00DFF94F883
:10400000290094F82910401CC0B201EB810156F838
:104010002120BDE8F0410121104794F829000D2826
:1040200008BFFFDF84F8267084F82B5094F829002D
:1040300000EB800006EB800080F8108000F0C7FFE6
:10404000012000F0A5FE94F8250000281CBFA06800
:10405000B0F1FF3F0DD094F8290094F82910401CCE
:10406000C0B201EB810156F82120BDE8F0410621E4
:104070001047207F012815D002281FD0032833D0F5
:1040800004281CBFFFDFBDE8F08194F820106068B1
:104090000123411A0022184600F0BEFE94F82800C1
:1040A000B8BB37E094F8240028B184F8247000F0FD
:1040B00095FF84F823502777BDE8F08194F8280015
:1040C00018B9FDF709FA84F8285094F8290094F8F3
:1040D0002910401CC0B201EB810156F821200021BB
:1040E00090472777BDE8F081217B60680123411A62
:1040F0000022184600F090FE94F8240028B184F8BD
:10410000247000F06BFF84F8235002202077BDE874
:10411000F08103E0FDF7E0F984F8285094F82900D5
:1041200094F82910401CC0B201EB810156F82120FF
:10413000002190472577BDE8F08121480078BDE84F
:10414000F041FEF743BE10B51A4C94F829000D2833
:1041500008BFFFDF94F8290094F82910401CC0B272
:10416000154A01EB810152F82120BDE810400421DD
:1041700010472DE9F84F8046087C104C401EC6B20F
:104180000D46A05D01281DD0022825D0297CDFF82E
:1041900028A0481EC4B204EB84020AEB8206371D35
:1041A0000B2821D801EB81000AEB800010F8040CE9
:1041B000D8B919E08C05002090040020800500206B
:1041C0006E000020A87A012814BF02200020A0550C
:1041D00018BFBDE8F88FD9E7A87A012818BFFFDF1C
:1041E0000021A972A155D1E7FFDF307CDFF82894C8
:1041F00007280BD11920009099F8192009F11A030A
:104200004946204600F06CFF01203074307C0128C4
:1042100004D0A87A012818BFFFDF02D0A87A0128AD
:104220004BD1FE4B307C022818D099F81A00182880
:1042300072D099F81A0099F81910401C884200D1E0
:10424000FFDF0120707499F81A0009F8004099F80E
:104250001A00182800F09E8100F093B9F04A92F8F5
:1042600029000146A04207D0014600EB810003EB84
:104270008000807CA042F7D192F829C084450CD1FF
:1042800092F8291001EB810103EB8101897C82F80E
:104290002910012182F82A1009E000EB800203EBCB
:1042A000820201EB810103EB8101927C8A7400EBB5
:1042B000800003EB80000D218174287AD949002801
:1042C00051F820A02968A1EB0A010CBF04200220AC
:1042D000081A20F07F423A60D5E90001084420F036
:1042E0007F407860A87A022818BF287B1ED03872D9
:1042F0007868401D20F07F407860687AB872287A2C
:1043000006257872032872D2002870D0FDF772FE5D
:1043100000286DD0A1E0FFE799F81900002890D19E
:104320008EE700BF89F81A00BDE8F88F287A0028C8
:104330000CBF0420022000EB0A036868591D00EB43
:10434000010BB9484078504503D9B54991F823107D
:1043500011B10BF1060003E0A0EB0A005844801DE8
:10436000AF4991F829C0BCF10D0F25D091F829C0B3
:104370000CEB8C0EA1F1FC0C0CEB8E0CDCF804C0E9
:10438000624519D0DFF8A4C291F8291001EB81022F
:10439000A24901EB82014A688968A2EB080222F077
:1043A0007F42A1EB080121F07F41904298BFB2F516
:1043B000800F9DD28C459BD34044A0EB0B0020F096
:1043C0007F4139601944E86821F07F410A1A6FF093
:1043D0007F4CB2F5800F24BF431AB3F5800F11D381
:1043E000944506D2ACEB00000844421C0AE034E0DD
:1043F0002FE09C4528BFFFDF1DD2ACEB0101084434
:10440000401C4242002A16DD0520307499F81A003B
:10441000182819D099F81A0099F81910401C8842E8
:1044200000D1FFDF99F81A0009F8004099F81A0046
:1044300018287BD0A5E03868ABF10501084420F0CE
:104440007F407860002052E799F819000028E9D1F0
:10445000E7E7CAF138054FF0320A734801780129BD
:1044600018BF03290AD14078504507D96C4991F803
:104470002310002904BFA0EB0A0005446B4B3868E9
:10448000A0EB0802786822F07F41A0EB080020F042
:104490007F4C8D4298BFB1F5800F1BD2634519D375
:1044A0005F4991F829300D2B30D091F829504FF009
:1044B0000D0BDA46594905EB850301EB8303D3F86D
:1044C00008C0ACEB080C944531D8AB469D7C0D2D53
:1044D000F0D193E00520307499F81A00182810D014
:1044E00099F81A0099F81910401C884200D1FFDF92
:1044F00099F81A0009F8004099F81A00182849D0CC
:104500003FE099F819000028F2D1F0E7022030745A
:1045100091F829000D2818BF91F82900B07481F88E
:104520002940012081F82A00BDE8F88F32E00D2DE6
:104530001CBFAA46002261D00AEB8A0301EB830369
:10454000D3F804C0ACEB080C84452CD29A7B97F8C6
:104550000AC0944520D30520307499F81A00182811
:1045600013D099F81A0099F81910401C884200D10C
:10457000FFDF99F81A0009F8004099F81A00182886
:1045800008D099F81A00401CCCE699F819000028C8
:10459000EFD1EDE70020C5E693F812A00122BAF1B1
:1045A0000D0FC9D103E0002A08BFAA4626D02F4626
:1045B0001A4807EB870100EB8108062288F81020D3
:1045C00099F81A00182838D099F81A00411C99F85F
:1045D0001900814200D1FFDF99F81A0009F8007034
:1045E00099F81A0018280EBF002099F81A00401CEC
:1045F00089F81A0098F81270BA45D9D10220074FED
:10460000307407F1FC0090F82910A9421AD186F8FD
:1046100012A080F829400BE07404002090040020D0
:104620008C0500207CE0000070000020FFFF3F00B0
:10463000012180F82A10BDE8F88F99F819000028A8
:10464000CAD1C8E70D2D0CD0BBF10D0F08BFFFDF9D
:104650000BEB8B0007EB8000847486F812A0BDE89A
:10466000F88FBBF10D0F08BFFFDF0BEB8B0007EBE3
:10467000800084740D20B074BDE8F88F2DE9F04FF0
:1046800083B000F030FC05464FF00D0BFE4C94F863
:1046900029100026A4F1FC094FF001080D292FD0A4
:1046A00094F82920214602EB820209EB8202127C57
:1046B000042A25D091F8292002EB820209EB82021C
:1046C000127C032A04BF03B0BDE8F08F2A4620699C
:1046D0006169801A491BED4B20F07F4021F07F413A
:1046E00006283CBF03B0BDE8F08FB0F5800F24BFB3
:1046F00003B0BDE8F08F8B423CBF03B0BDE8F08F44
:10470000A068B0F1FF3F18BFFFDF84F8256094F880
:104710002900DF4F0D2809D094F8290000EB800014
:1047200009EB8000007C042808D01AE094F82100EE
:10473000B8B1F8787870B878387012E094F829B089
:104740000BEB8B0009EB800080F8108094F82900B7
:1047500000EB800009EB8000807C84F8290084F85D
:104760002A80DFF830A39AF8F5019AF8F41188420C
:1047700019D000BF9AF8F40100EB80000AEB800129
:104780002846FFF7F6FC9AF8F40118280EBF00201F
:104790009AF8F401401C8AF8F4019AF8F5019AF8A5
:1047A000F4118842E6D1DFF8F0A29AF8140028B19B
:1047B00051462846FFF7DDFC8AF81460BBF10D0F67
:1047C00006D00BEB8B0009EB8000017C01292BD07C
:1047D00094F829000D2800F0ED8094F82A000028B4
:1047E00000F0F78084F82A6094F8290000EB80013B
:1047F000AA4800EB8102A0F50B73D2E90101D2684F
:10480000C3F84023C3E9CE01607E00280CBF4FF0FF
:1048100004094FF00209A249022811F8201021735F
:1048200018BF012834D123E007210174DFF874A2F6
:104830009AF81A00182816D09AF81A009AF819103F
:10484000401C884200D1FFDF9AF81A000AF800B035
:104850009AF81A0018280EBF00209AF81A00401C77
:104860008AF81A00B4E79AF819000028ECD1EAE7B0
:1048700020690844421B22F07F42382A08D90321CC
:104880003238617620F07F4020613220207309E0C9
:10489000322907D294F8280058B9FCF71DFE84F895
:1048A000288006E094F8280018B1FCF73EFE84F852
:1048B00028607B7884F8203094F80CA038780621A2
:1048C000A3EB0A02012818BF032804D184F824802E
:1048D000002AC8BF911D94F822B0BBF1000F18BF89
:1048E000891C206901905044484420F07F4060605A
:1048F000BAF1000F14BF02200020207794F82400A2
:10490000002808BFBBF1000F37D060480090D4F8F2
:1049100010E0D4F814C0AEEB050E2EF07F4EACEBD9
:10492000050C20462CF07F4C714598BFBEF5800FDA
:104930001FD2009961451CD3002A0FDD0199BAF1FD
:10494000000FA1EB020101611944494421F07F41AC
:1049500041600CBF0121032121770EE004DA002B16
:104960000CBF02210421F7E7BBF1000F08BFFFDFF6
:1049700003E080F8246084F82260207F40B1206941
:10498000012300EB09010022184600F045FA02E07D
:10499000012000F0FDF994F82900012300EB8001CB
:1049A0003E4800EB8100616890F90C20002000F087
:1049B00033FA0EE0012000F0EBF9002000F0E8F9F6
:1049C00000F0CCF994F8280018B1FCF7AEFD84F89B
:1049D000286094F8220028B100F000FB84F82360DE
:1049E00084F8226094F8210018B1F8787870B878CB
:1049F000387094F8240030B184F8236038780028A7
:104A000008BF84F824602748817E407E814203D01D
:104A100025484078FEF7DAF984F8278003B0BDE82E
:104A2000F08F70B5184C054682B094F829000D2817
:104A300008BFFFDF94F8290000EB8000174E06EB5B
:104A40008000007C032818BFFFDFA068B0F1FF3FA3
:104A500018BFFFDF94F8290001AA00EB800006EBE5
:104A60008000694690F90C00284400F0DBFA9DF9BB
:104A700004000F28CCBF0120002000990844616881
:104A8000084420F07F4111E08C050020FFFF3F002B
:104A900070000020640200205C04002090040020CC
:104AA0007CE00000740400206E000020A16094F8F7
:104AB0002500002804BF02B070BD012302B000220F
:104AC000BDE87040184600F0A7B9744A0B1A02F10D
:104AD000010CB3EB9C0F3CBF1846704710B5441A4D
:104AE000B4EB9C0F3CBF184610BD9A4203D2101A7B
:104AF0000844401C10BD94429EBFFFDF002010BD43
:104B0000511A0844401C404210BD012300220146B6
:104B1000022000F081B9022000F03AB900F0E3B9B8
:104B20002DE9F0415E4C054682B094F82B00002838
:104B300008BFFFDF642D50D35A480022401B72EBA0
:104B400002004AD3584890F8F51190F8F4018142D8
:104B500043D15648007D00283FD194F82900DFF862
:104B6000508100EB800008EB8006206801AA2844F1
:104B7000694600F057FA9DF90400002802DD00980C
:104B8000401C0090B168009872680F18BA1A22F0A1
:104B90007F42B2F5800F20D2B27C0D2A09D002EB01
:104BA000820208EB82025268511A21F07F41814251
:104BB00013D3A068B0F1FF3F05D0012000F0E8F862
:104BC0004FF0FF30A06020682844206027F07F402D
:104BD000606102B00120BDE8F08102B00020BDE8B4
:104BE000F0812DE9F8430646401EC7B2304807EB76
:104BF000870100EB8104207C002808BFFFDF2A4AE0
:104C000092F8F41192F8F50181420DD001EB810385
:104C100002EB83031B7CB34210D018290CBF002188
:104C2000491CC9B28142F1D120484FF0190800F166
:104C30001805017D29B3007CB04222D10020BDE8D7
:104C4000F883207C05281FBF207C0628207C0728AD
:104C50000AD184F81090CDF800806A7E05F11A031D
:104C60001449384600F03CFA607C68B16674CDF8AF
:104C700000806A7E05F11A030E49384600F030FACA
:104C800002E04FF001090026207C012804BF607C6F
:104C90000028D6D10120BDE8F8830000FF7F841EE4
:104CA0008C050020FF1FA107640200205C04002087
:104CB000900400207404002030B44FF0E020012361
:104CC0004FF4006C0021C0F880C11D02C0F8805173
:104CD0001C06C0F88041E84A82F80014D21E82F80F
:104CE0000014E64A82F80014E54A53609360C2F863
:104CF0004011C2F84411C2F84811C0F880C2C0F88F
:104D00008052C0F88042C0F800C1C0F80041136072
:104D100030BC704770B401204FF0E023C6024FF062
:104D2000000CC3F880610402C3F880410506C3F893
:104D30008051D34A50609060D24801680029FCD16C
:104D4000C2F840C1C2F844C1C2F848C1C3F8806289
:104D5000C3F88042C3F8805270BC70474FF0E02027
:104D60004FF40061C0F88012C910C0F8801270477B
:104D7000002804BFC4487047012804BFC3487047D7
:104D8000022804BFC248704700B5FFDF002000BD05
:104D900008B5BB49002298B101282FD002281CBFBA
:104DA000FFDF08BD4FF48020C1F80803C1F84803B5
:104DB000B8480260C1F84821B5480068009008BDB5
:104DC0004FF48030C1F80803C1F84803B24B1A60B1
:104DD000C1F84021B14BC1031960B149C1F80803C2
:104DE0004FF0E0230012C3F88001AE480260C1F822
:104DF0004021C1F80022AC48027008BD4FF40030D9
:104E0000C1F80803C1F84803A8480260C1F844216A
:104E10009E480068009008BD70B5DFF864C20426A3
:104E200000240125B0B101284CD002281CBFFFDFAF
:104E300070BD9F484FF48022012BC0F8401518BF69
:104E4000CCF80823C0F8404108BFCCF80423CCF8C4
:104E5000442370BD881E20F07F40CCF840054FF4FD
:104E60008030CCF80803CCF84041CCF84403012B47
:104E700014BF002101218C4B597089490D61DFF865
:104E800034C2CCF800408C4C4FF0020CC4F800C087
:104E9000DFF828C2CCF80060DFF808C23D32CCF859
:104EA0000020C1F800524FF0E0224FF4807CC2F89D
:104EB00080C2C1F80403C2F800C108048049086038
:104EC0001D7070BD7F4A4FF40030012BC2F84015B1
:104ED00018BFCCF80803C2F8404108BFCCF804035F
:104EE000CCF8440370BD67480068704770B57648D9
:104EF0000568774975480860614CD4F84001002680
:104F000001280AD1D4F8080310F4803F05D04FF4EB
:104F10008030C4F80803C4F84061D4F84401012883
:104F20000DD1D4F8080310F4003F08D04FF400303E
:104F3000C4F80803C4F844610120FFF706F8D4F868
:104F4000480101280DD1D4F8080310F4802F08D0AF
:104F50004FF48020C4F80803C4F848610220FEF72B
:104F6000F4FF5C48056070BD574810B504685849A7
:104F7000564808604C490878002808BF03201AD01A
:104F8000464A4FF000401060454AC00BC2F8080383
:104F900003124FF0E02C0020CCF88031414B186018
:104FA000C2F84001C2F8000208704A78002A1CBF0B
:104FB0004870002001D0FEF7C8FF4648046010BDCD
:104FC0004FF0E0214FF08070C1F8000270474FF0C1
:104FD000E0214FF08070C1F8800270474FF0E0216F
:104FE0004FF40010C1F8000270474FF0E0214FF479
:104FF0000010C1F8800270472949012008614FF074
:10500000E0210002C1F880027047410A43F60952CC
:105010005143C0F3080010FB02F000F5807001EB73
:1050200050207047430B48F2376C03FB0CF31B0C0A
:105030004FEA432CC1F800C0DFF89CC003FB0C030F
:1050400026484CF2F72C5843400D10FB0CFC0CEB9F
:10505000432303F580735B1213700A6810440860E1
:105060007047194810B50468194918480860FFF7D7
:1050700005FB1848046010BD0BE000E018E000E0FC
:1050800000B0004004B500404081004044B1004001
:1050900048B1004048B5004040B5004008F5014027
:1050A00000800040408500407400002044B500406E
:1050B00008B000400485004008850040108500408D
:1050C00004F5014004B00040100502400100000159
:1050D0001805024014050240F7C2FFFF6F0C0100E3
:1050E00070B41D78039C4FF0000CAA4204BF70BC42
:1050F00070478E5C864208BF4FF0010C02D0BCF1B5
:10510000000F05D0561CA64208BF00268E5D8E54A7
:10511000561CA6420CBF0022521CD2B2AA42E8D1B1
:10512000BCF1000F04BF70BC70471878411E1970A5
:105130003CBF601E187070BC704700000F4A1268B8
:105140000D498A420CD118470C4A12680A4B9A4200
:1051500006D101B5FDF790FEFEF7A3F9BDE80140C9
:10516000074909680958084706480749054A064B90
:105170007047000000000000BEBAFECA78000020A0
:1051800004000020C8090020C809002007F01EBB49
:10519000F94810B5017800290ED101210170F748B6
:1051A00080F8391001F077FBF54801F0D8FBBDE835
:1051B0001040012003F0E9BC10BDEF4810B50178A4
:1051C00000290AD000210170EC4880F8391001F064
:1051D0009DFBBDE8104001F0DFBC10BDE64810B5F6
:1051E000007850B101F092FB044601F0D5FC00209C
:1051F00003F0CBFC1CB1002010BD022010BD0D201F
:1052000010BD70B516460D46044600F0CEFD38B907
:10521000284600F0CAFD18B9304600F0C6FD08B1B6
:10522000072070BD304604F025FCC0F3072129702B
:10523000207009B1002070BD052070BD70B5044616
:10524000D0481D460078401E844202DD44F23300FF
:1052500070BD072A02D944F2290070BD204603F030
:10526000D8FE28B92946204603F055FF0028F4D07F
:1052700040F4804070BDC34910B50978491E88428A
:1052800002DD44F2330010BD03F082FF0028FAD0A3
:1052900040F4804010BDBB4910B50978491E8842D2
:1052A00002DD44F2330010BD02F022F90028FAD0EA
:1052B00040F4804010BDB34910B50978491E8842BA
:1052C00002DD44F2330010BD03F076FF0028FAD06F
:1052D00040F4804010BD10B500B1012003F0B5FFCF
:1052E000002801D040F4804010BD70B50446A548A8
:1052F0000E4615460078401E844202DD44F233001B
:1053000070BD104600F051FD08B1072070BD2B465E
:1053100032460021204602F0CFF9502802D040F456
:10532000804070BD002070BD70B5044695480E46A3
:1053300015460078401E844202DD44F2330070BD01
:10534000104600F032FD08B1072070BD2B463246F2
:10535000A021204602F0B0F9502802D040F480404D
:1053600070BD002070BD2DE9F041044685481E4601
:105370000F4600781546401E844203DD44F2330098
:10538000BDE8F081104600F010FD08B10720F7E7F6
:1053900033462A463946204603F0EBF8502802D01F
:1053A00040F48040ECE70020EAE710B5044600F046
:1053B000FCFC08B1072010BD204603F03FF900288F
:1053C000F9D040F4804010BD10B503F044F9002836
:1053D00001D040F4804010BD70B5054669480C46C8
:1053E0000078401E854202DD44F2330070BD08465D
:1053F00000F0DBFC08B1072070BD284603F05CFF1D
:105400002070002070BD10B504F08AF8002010BD97
:105410007CB505460C46072802D944F229007CBD1C
:10542000084600F0C2FC08B107207CBD206800904F
:10543000606801906946284602F0F8FE00207CBDB5
:10544000504A10B5137844F233025B1E984202DCD6
:105450008B1E4F2B01D3104610BD01F0F8FE00202B
:1054600010BD70B5054647480C460078401E854281
:1054700002DD44F2330070BD084600F096FC08B12E
:10548000072070BD284602F03CFC2070002070BD53
:105490003C4B10B51B785B1E984202DD44F2330092
:1054A00010BD02F00EFC002010BD364B10B51B786D
:1054B0005B1E984202DD44F2330010BD02F039FC5D
:1054C000002010BD2F4A10B51278521E904202DD06
:1054D00044F2330010BD03F02CFD002010BD70B568
:1054E000054628480C460078401E854202DD44F2FD
:1054F000330070BD084600F058FC08B1072070BDAD
:10550000284603F035FD2080002070BD38B51D4CC5
:105510002478641EA04202DD44F2330038BD8DF8C9
:105520000010090A8DF801108DF802208DF8033063
:10553000694603F0F0FC0028F0D040F4804038BD0C
:10554000F8B507460F481C46154600780E46401E23
:10555000874202DD44F23300F8BD084600F025FC26
:1055600038B9284600F021FC18B9204600F01DFC8F
:1055700050B10720F8BD00007C000020BC050020D1
:105580008D5100009D0000206946384603F0A0FCC4
:105590009DF800009DF8011040EA012030809DF840
:1055A000020028709DF8030020700020E2E7FC4A0A
:1055B00010B51278521E904202DD44F2330010BD45
:1055C00003F0E6FC002010BDF54A10B51278521E1B
:1055D000904202DD44F2330010BD03F0D4FC002001
:1055E00010BDEF4A10B51278521E904202DD44F20F
:1055F000330010BD03F0D7FC002010BDE84A10B501
:105600001278521E904202DD44F2330010BD03F0C6
:10561000D1FC002010BD70B50546E1480C4600786D
:10562000401E854202DD44F2330070BD084600F0A2
:10563000BCFB08B1072070BD284603F0C1FC2070F8
:10564000002070BDD64A10B51278521E904202DD7D
:1056500044F2330010BD03F090FC002010BD70B583
:105660000C46054600F0A1FB08B1072070BD21469D
:10567000284603F0BDFF0028F8D040F4804070BDFC
:1056800070B505460C46084600F08FFB08B10720B0
:1056900070BD2146284603F0DFFF0028F8D040F413
:1056A000804070BD10B503F0E7FB002801D040F446
:1056B000804010BD10B503F0E8FB002010BD10B510
:1056C000044600F072FB08B1072010BD03F0E3FBB5
:1056D0002070002010BD7CB50646B14815460C462A
:1056E0000078401E864202DD44F233007CBD08464D
:1056F00000F05BFB08B107207CBD20788DF800002E
:1057000060788DF80100A0788DF80200E0788DF8BF
:1057100003008DF804506946304602F0C1FF0028AE
:10572000EAD040F480407CBD08B59D4B1B785B1EE1
:10573000984202DD44F2330008BD8DF800108DF868
:105740000120694602F092FF0028F5D040F4804025
:1057500008BD10B5924C2478641EA04202DD44F2CC
:10576000330010BD02F0CDFF002010BD10B502F0D7
:10577000BDFF002010BD38B5044600F016FB08B18F
:10578000072038BD684602F0B5FF9DF800009DF87F
:10579000011040EA01202080002038BD70B5054688
:1057A0000C46084600F001FB08B1072070BD2146F9
:1057B000284604F004FB0028F8D040F4804070BD77
:1057C00070B505460C46084600F0EFFA08B1072010
:1057D00070BD2146284604F002FB0028F8D040F4B2
:1057E000804070BD6E4A10B51278521E904202DDA4
:1057F00044F2330010BD04F002FB0028FAD040F45C
:10580000804010BD10B5664C2478641EA04202DDB5
:1058100044F2330010BD04F001FB0028FAD040F43C
:10582000804010BD70B505460C46084600F0BDFA34
:1058300008B1072070BD2146284604F0F6FB002879
:10584000F8D040F4804070BD70B505460C4608465F
:1058500000F0ABFA08B1072070BD2146284604F0DD
:1058600014FC0028F8D040F4804070BD70B50546A7
:105870000C46084600F099FA08B1072070BD214691
:10588000284604F01CFC002070BD10B504F031FC6B
:10589000002801D040F4804010BD70B50C4605468C
:1058A00000F083FA18B9204600F07FFA08B107200B
:1058B00070BD2146284604F046FC002070BD70B53E
:1058C0000646374814460D460078401E864202DDE3
:1058D00044F2330070BD3DB1084600F066FA60B98D
:1058E000686800F062FA40B94CB1204600F05DFAF9
:1058F00018B9606800F059FA08B1072070BD25B1E9
:10590000297830466A6802F075FF24B12178304664
:10591000626802F0FBFF002070BD70B506462048AB
:1059200014460D460078401E864202DD44F23300E4
:1059300070BD3DB1084600F038FA60B9686800F003
:1059400034FA40B94CB1204600F02FFA18B960681B
:1059500000F02BFA08B1072070BD25B1294630466A
:105960006A6802F08DFF24B121463046626802F079
:10597000EAFF002070BD10B504460A48007898B1CF
:1059800000F0C4FF01F008F9204603F0EAF968B11D
:10599000034920780870002003F0F7F8002010BDBC
:1059A0009D0000207C0000200220F8E70720F6E799
:1059B00010B5044600F0F9F908B10720EFE703F04D
:1059C0006DFA20700020EAE710B5044600F0EDF90A
:1059D00008B10720E3E703F066FA20700020DEE755
:1059E00070B50546F7480C460078401E854202DD3A
:1059F00044F2330070BD084600F0D7F908B1072023
:105A000070BD284603F055FA2070002070BD70B5B7
:105A10000546EC480C460078401E854202DD44F203
:105A2000330070BD084600F0C0F908B1072070BD12
:105A3000284603F044FA2070002070BD10B502F033
:105A400022F90020ABE710B502F024F90020A6E708
:105A500010B5044600F0A9F908B107209FE7DA481D
:105A60000021425C6254491CC9B21429F9D30020B8
:105A700095E710B5044600F098F908B107208EE7C5
:105A8000D048B22100782070082060700020A070FB
:105A9000E170362121716071FD20A071E07100205C
:105AA0007DE72DE9FE431F46164680460C004FF069
:105AB000060504D0084600F078F900286FD126B119
:105AC000304600F072F90028F8D127B1384600F0CE
:105AD0006CF90028F2D1BB4844F23301B8F10E0F43
:105AE00078D2DFE808F07777070B17233441484D69
:105AF0006D818EF4207804F02EFB19E10078227875
:105B0000401E824248DC301E49D00188104604F015
:105B10002CFB0DE100782278401E82423CDC002EF6
:105B2000F2D0104604F02FFB308001E1002CEBD0C6
:105B3000207803F053FF607800284FF0200003D056
:105B400003F09AF960BBF3E003F09FF9F0E0002C5A
:105B5000DAD003F046FF207003F09DF9C04340F314
:105B60004010401C6070E3E0200018D002789AB129
:105B700003F03AFFDCE0200011D003F03EFFD7E055
:105B8000002C0CD0002E0AD0002F08D000782478EA
:105B90003578401E844204DD0846BDE8FE836CE093
:105BA0000BE0384600F001F9002866D13A46294654
:105BB000204603F02BFF502871D040F48040ECE7E2
:105BC000002544B1207800B1012003F0B0FC20B1E1
:105BD00040F48045ADE00725ABE0607803F0CDFCF4
:105BE000608803F0E0FCA4E00025002CF3D003F073
:105BF000D1FC207003F0D2FC607003F0EEFC6080FA
:105C000097E0684601F060F803F048F910B144F2FB
:105C10001500C2E78CB3E279217A8A422DD0142A8A
:105C200001D3012000E00020142901D3012300E06A
:105C3000002318437FD1A779082F7CD26678257975
:105C4000AE4202D14FF0010C01E04FF0000C207881
:105C5000E37800EA03081CEA080F6CD1202E02D377
:105C60004FF0010C01E04FF0000C10EA0C0F62D174
:105C7000202D03D34FF0010C02E05CE04FF0000C4C
:105C800013EA0C0F57D19DF800C0BCF1000F22D0D1
:105C900008B39DF80100864202D0012001E047E0F0
:105CA00000209DF80660B74201D0012600E00026E2
:105CB00030439DF80760B24201D0012600E0002683
:105CC00030439DF80860B14202D0012601E02BE08C
:105CD0000026304323D19DF8030010B30BB39DF889
:105CE0000400854201D0012000E000209DF806302C
:105CF0009F4201D0012300E0002318439DF80730A4
:105D00009A4201D0012200E0002210439DF80820B1
:105D1000914201D0012100E00021084301D0082078
:105D20003BE7204600F095FF200004D000F0CCFFB8
:105D30000025284631E707202FE72DE9F0411E46D0
:105D4000174680460C004FF0060503D0084600F0C9
:105D50002CF848B91FB1384600F027F820B936B101
:105D6000304600F022F810B10720BDE8F0815FEA6C
:105D7000080005D0012810D0B8F1020F0DD10EE0B7
:105D800000252846114E256004E0297807F011FC13
:105D90006D1C2060B542F8D300252846E5E7207841
:105DA00004F0F7F9F8E7FBF754BF40B10749884220
:105DB00005D3B0F1005F0DD3054988420AD2012016
:105DC000704700009D00002094E0000000200100CA
:105DD000800A00200020F3E710B5C0380C464028A8
:105DE00071D2DFE800F02023282F33373B3F454BAB
:105DF00053585B60656A71777D828A90969BA0A5F7
:105E0000AAAFB4B9BDC1C5CBD1F2F7FBFFEDECEB46
:105E1000EAE9E8E7E6E5E4E3E2E1E0DFDEDDDCDB5A
:105E2000DA7070D970D8FFF7D9F94CE194E807001F
:105E3000FFF7E7F947E1237B227A21792078FFF702
:105E4000FDF940E12078FFF716FA3CE12078FFF7F2
:105E500022FA38E12078FFF72EFA34E12078FFF7B4
:105E60003AFA30E121792078A268FFF73EFA2AE178
:105E700021792078A268FFF757FA24E1A088237BD4
:105E800081B22078A268FFF76EFA1CE12078616881
:105E9000FFF7A2FA17E1FFF7B6FA14E1207861687C
:105EA000FFF7B6FA0FE121792078FFF7C9FA0AE186
:105EB00020786168FFF7D5FA05E1227A2179207808
:105EC000FFF7E6FAFFE0FFE0227A21792078FFF77A
:105ED000ECFAF8E0A08881B22078FFF7F3FAF2E05C
:105EE00020786168FFF7FBFAEDE0A088237B81B2A0
:105EF000227A2078FFF70AFBE5E0211D20780EC901
:105F0000FFF71EFBDFE0A08881B22078FFF74FFB90
:105F1000D9E021792078FFF757FBD4E02179207868
:105F2000FFF75FFBCFE021792078FFF767FBCAE03E
:105F300020786168FFF76FFBC5E021792078FFF7D3
:105F400081FBC0E021792068FFF789FBBBE0207866
:105F50006168FFF795FBB6E02078FFF7A3FBB2E09E
:105F60002078FFF7A7FBAEE02068FFF7A8FBAAE0C8
:105F7000227A20786168FFF7AEFBA4E0227A2179CB
:105F80002078FFF7D1FB9EE0237B227A21792078CD
:105F9000FFF7DFFB97E091E08BE086E07FE078E0C1
:105FA00072E06BE065E05FE059E051E04BE045E016
:105FB0003FE03BE036E031E02CE024E020E01AE076
:105FC00014E00FE00AE005E0FFE7208880B2FFF769
:105FD000CDFB78E02068FFF7CEFB74E02068FFF788
:105FE000E7FC70E02068FFF7EFFC6CE02078616868
:105FF000FFF7F6FC67E020786168FFF708FD62E0D4
:10600000FFF71CFD5FE0237B227A21792078FFF7E0
:106010001AFD58E02068FFF71BFD54E02068FFF7E9
:1060200028FD50E02068FFF7C0F94CE0FFF7CCF9FD
:1060300049E020786168FFF7B1FB44E020786168AF
:10604000FFF7BEFB3FE021792078FFF7CBFB3AE07A
:10605000237B227A21792078FFF7D4FB33E0207864
