:020000040000FA
:1000000000040020E508000079050000C508000094
:10001000830500008D05000097050000000000002A
:1000200000000000000000000000000009090000BE
:10003000A105000000000000AB050000B5050000B0
:10004000BF050000C9050000D3050000DD05000064
:10005000E7050000F1050000FB05000005060000B3
:100060000F06000019060000230600002D06000000
:1000700037060000410600004B0600005506000050
:100080005F06000069060000730600007D060000A0
:1000900087060000910600009B060000A5060000F0
:1000A000AF060000B9060000C3060000CD06000040
:1000B000D7060000E1060000EB060000F506000090
:1000C000FF06000009070000130700001D070000DD
:1000D00027070000310700003B070000450700002C
:1000E0004F07000059070000630700006D0700007C
:1000F00077070000810700008B07000095070000CC
:100100009F0700001FB500F003F88DE80F001FBD2A
:1001100000F0DEBB1FB56FF00100009040100390AF
:10012000029001904FF010208069000B420900F00E
:100130001F045DF822300120A04083434DF8223097
:10014000684600F044F91FBDF0B54FF6FF734FF459
:10015000B4751A466E1E11E0A94201D3344600E080
:100160000C46091B30F8027B641E3B441A44F9D14B
:100170009CB204EB134394B204EB12420029EBD17E
:1001800098B200EB134002EB124140EA0140F0BD8F
:10019000DD4992B00446D1E90001CDE91001FF220A
:1001A0004021684600F03AFB94E80F008DE80F000C
:1001B000684610A902E004C841F8042D8842FAD12B
:1001C00010216846FFF7C0FF1090AA208DF8440068
:1001D000FFF7A0FF00F0F2F84FF01024A069102202
:1001E0006946803000F001F9A069082210A900F0EA
:1001F000FCF800F0D7F84FF080510A6949690068AF
:100200004A43824201D8102070470020704710B541
:10021000D0E900214FF0805002EB8103026944696C
:100220006243934209D84FF01022536903EB8103D4
:100230000169406941438B4201D9092010BD5069D1
:10024000401C01D0002010BD0F2010BD70B501680A
:100250000446AE4D4FF01020062951D2DFE801F0E0
:10026000320318283B1DD4E90265646829463046EC
:1002700000F0CDF82A462146304600F0B6F8AA0034
:100280002146304600F09EFA002800D0032070BDC1
:1002900000F050FB4FF4805007E0201DFFF7ABFF4C
:1002A0000028F4D100F046FB60682860002070BD93
:1002B000241D94E80700920000F084FA0028F6D08C
:1002C0000E2070BD8069401C12D0201DFFF79FFFDB
:1002D0000028F6D109E08069401C09D0201DFFF7F5
:1002E0008AFF0028EDD1606820B12046FFF750FF5B
:1002F000042070BDFFF70EFF00F060F800F052F828
:10030000072070BD10B50C46182802D001200860E7
:1003100010BD2068FFF79AFF206010BD4FF0102439
:10032000A069401C05D0A569A66980353079AA2846
:1003300008D06069401C2DD060690068401C29D03D
:1003400060692CE010212846FFF7FEFE31688142EB
:100350001CD1A16901F18002C03105E030B108CAA9
:1003600051F8040D984201D1012000E000208A429A
:10037000F4D158B1286810B1042803D0FEE728460C
:1003800000F057F861496868086008E000F016F866
:1003900000F008F84FF480500168491C01D000F0CB
:1003A000A3FAFEE7BFF34F8F59480168594A01F499
:1003B000E06111430160BFF34F8FFEE74FF0102063
:1003C0008169491C02D0806900F0ADB87047524A7B
:1003D00001681160121D416811604F4A8168103236
:1003E0001160111DC068086070472DE9F041174683
:1003F0000D460646002406E03046296800F0A6F8BF
:10040000641C2D1D361DBC42F6D3BDE8F08170B5CD
:100410000C4605464FF4806608E0284600F083F855
:10042000B44205D3A4F5806405F58055002CF4D1C1
:1004300070BD4168044609B1012500E000254FF078
:1004400010267069A268920000F0BCF9C8B120467D
:1004500000F01AF89DB17669A56864684FF4002031
:1004600084420AD2854208D229463046FFF7CFFFA0
:100470002A4621463046FFF7B8FFFFF79FFFFFF7F8
:1004800091FFFFF747FEF8E72DE9FF414FF01024F9
:10049000616980680D0B01EB800000F6FF70010BB5
:1004A00000200090019002900246039068460123CC
:1004B0000BE0560902F01F0C50F8267003FA0CFCF2
:1004C00047EA0C0740F82670521CAA42F1D30AE012
:1004D0004A0901F01F0650F8225003FA06F6354388
:1004E00040F82250491C8029F2D3A169090B4A091E
:1004F00001F01F0150F822408B409C4340F82240FD
:10050000FFF765FFBDE8FF815809000000000020EB
:100510000CED00E00400FA050006004014480168F4
:100520000029FCD07047134A0221116010490B6862
:10053000002BFCD00F4B1B1D186008680028FCD056
:100540000020106008680028FCD07047094B10B5E7
:1005500001221A60064A1468002CFCD00160106861
:100560000028FCD00020186010680028FCD010BDC6
:1005700000E4014004E5014008208F49096809585A
:10058000084710208C4909680958084714208A49EF
:100590000968095808471820874909680958084711
:1005A0003020854909680958084738208249096878
:1005B000095808473C2080490968095808474020E5
:1005C0007D4909680958084744207B49096809584A
:1005D0000847482078490968095808474C20764957
:1005E000096809580847502073490968095808479D
:1005F0005420714909680958084758206E4909680C
:10060000095808475C206C49096809580847602068
:100610006949096809580847642067490968095801
:100620000847682064490968095808476C206249EE
:1006300009680958084770205F4909680958084740
:1006400074205D4909680958084778205A490968A3
:10065000095808477C2058490968095808478020EC
:1006600055490968095808478420534909680958B9
:100670000847882050490968095808478C204E4986
:1006800009680958084790204B49096809580847E4
:10069000942049490968095808479820464909683B
:1006A000095808479C204449096809580847A02070
:1006B0004149096809580847A4203F490968095871
:1006C0000847A8203C49096809580847AC203A491E
:1006D000096809580847B020374909680958084788
:1006E000B4203549096809580847B82032490968D3
:1006F00009580847BC203049096809580847C020F4
:100700002D49096809580847C4202B490968095828
:100710000847C8202849096809580847CC202649B5
:10072000096809580847D02023490968095808472B
:10073000D4202149096809580847D8201E4909686A
:1007400009580847DC201C49096809580847E02077
:100750001949096809580847E420174909680958E0
:100760000847E8201449096809580847EC2012494D
:10077000096809580847F0200F49096809580847CF
:10078000F4200D49096809580847F8200A49096802
:1007900009580847FC2008490968095808475FF4C8
:1007A0008070054909680958084700000348044952
:1007B000024A034B70470000000000206809000057
:1007C0006809000040EA010310B59B070FD1042A15
:1007D0000DD310C808C9121F9C42F8D020BA19BA0C
:1007E000884201D9012010BD4FF0FF3010BD1AB171
:1007F000D30703D0521C07E0002010BD10F8013BC6
:1008000011F8014B1B1B07D110F8013B11F8014BEC
:100810001B1B01D1921EF1D1184610BD02F0FF033F
:1008200043EA032242EA024200F005B870477047EB
:1008300070474FF000020429C0F0128010F0030C42
:1008400000F01B80CCF1040CBCF1020F18BF00F8C3
:10085000012BA8BF20F8022BA1EB0C0100F00DB872
:100860005FEAC17C24BF00F8012B00F8012B48BFD0
:1008700000F8012B70474FF0000200B51346944674
:100880009646203922BFA0E80C50A0E80C50B1F1E8
:100890002001BFF4F7AF090728BFA0E80C5048BFFC
:1008A0000CC05DF804EB890028BF40F8042B08BF9A
:1008B000704748BF20F8022B11F0804F18BF00F896
:1008C000012B7047014B1B68DB68184700000020B4
:1008D00009480A497047FFF7FBFFFFF713FC00BD0B
:1008E00020BFFDE7064B1847064A1060016881F3F8
:1008F0000888406800470000680900006809000097
:100900001D030000000000201EF0040F0CBFEFF3D9
:100910000881EFF30981886902380078182803D12B
:1009200000E00000074A1047074A12682C3212689C
:100930001047000000B5054B1B68054A9B589847B7
:1009400000BD000005030000000000205409000065
:1009500004000000001000000000000000FFFFFF86
:040960000090D00330
:1010000078170020DD6B020045A500004D6B020043
:1010100045A5000045A5000045A500000000000012
:10102000000000000000000000000000356C02001D
:1010300045A500000000000045A5000045A50000F2
:101040009D6C0200A36C020045A5000045A50000B0
:1010500045A5000045A5000045A5000045A50000E8
:10106000A96C020045A5000045A50000AF6C020078
:1010700045A50000B56C0200BB6C0200C16C02000B
:1010800045A5000045A5000045A5000045A50000B8
:1010900045A5000045A5000045A5000045A50000A8
:1010A000C76C0200CD6C020045A5000045A50000FC
:1010B00045A5000045A5000045A5000045A5000088
:1010C000D36C020045A5000045A5000045A5000021
:1010D00045A5000045A5000045A5000045A5000068
:1010E00045A5000045A5000045A5000045A5000058
:1010F00045A5000045A5000045A5000045A5000048
:1011000045A5000045A5000000F002F825F053FDBC
:101110000AA090E8000C82448344AAF10107DA4552
:1011200001D125F048FDAFF2090EBAE80F0013F027
:10113000010F18BFFB1A43F001031847206102009A
:10114000406102000A444FF0000C10F8013B13F01C
:10115000070408BF10F8014B1D1108BF10F8015B10
:10116000641E05D010F8016B641E01F8016BF9D103
:1011700013F0080F1EBF10F8014BAD1C0C1B09D15A
:101180006D1E58BF01F801CBFAD505E014F8016BCC
:1011900001F8016B6D1EF9D59142D6D3704700005E
:1011A0000023002400250026103A28BF78C1FBD870
:1011B000520728BF30C148BF0B6070471FB500F011
:1011C000B5F88DE80F001FBD8269034981614FF0BA
:1011D0000100104470470000DD11000001B41EB48E
:1011E00000B502F041FE01B40198864601BC01B091
:1011F0001EBD00001EF0040F0CBFEFF30880EFF3DC
:101200000980014A10470000E7430000F0B440465F
:10121000494652465B460FB402A0013001B506486C
:10122000004700BF01BC86460FBC804689469246F7
:101230009B46F0BC7047000009110000401E00BF33
:1012400000BF00BF00BF00BF00BF00BF00BF00BFA6
:1012500000BF00BF00BF00BF00BF00BF00BF00BF96
:1012600000BF00BF00BF00BF00BF00BF00BF00BF86
:1012700000BF00BF00BF00BF00BF00BF00BF00BF76
:1012800000BF00BF00BF00BF00BF00BF00BF00BF66
:1012900000BF00BF00BF00BF00BF00BF00BF00BF56
:1012A00000BF00BF00BF00BF00BF00BF00BFC5D16F
:1012B00070470000401E00BF00BF00BF00BF00BF5E
:1012C00000BF00BF00BF00BF00BF00BF00BF00BF26
:1012D00000BF00BF00BF00BF00BF00BF00BF00BF16
:1012E00000BF00BF00BF00BF00BF00BF00BF00BF06
:1012F00000BF00BF00BF00BF00BF00BF00BF00BFF6
:1013000000BF00BF00BF00BF00BF00BF00BF00BFE5
:1013100000BF00BF00BF00BF00BF00BF00BF00BFD5
:1013200000BF00BF00BFC5D17047000025F040BC22
:10133000534800210170417010218170704770B5D1
:10134000054616460C46022000F027F94C490120BC
:1013500008704C49F01E08604B480560001F04608F
:1013600070BD10B5022000F018F945490120087041
:1013700046480021C0F80011C0F80411C0F8081157
:1013800043494FF40000086010BD3D480178C9B1E1
:10139000404A4FF4000111603C49D1F8003100226D
:1013A000002B1CBFD1F80431002B02D0D1F808115A
:1013B00011B14270102103E00121417036490968E2
:1013C00081700270002000F0E8B82D4801780029F3
:1013D00004BF407870472D48D0F80011002904BFA1
:1013E00002207047D0F8001100291CBFD0F804116A
:1013F000002905D0D0F80801002804BF012070475B
:10140000002070471E4800B50278204B4078C82164
:10141000491EC9B282B1D3F800C1BCF1000F10D08F
:10142000D3F8000100281CBFD3F8040100280BD01A
:10143000D3F8080150B107E0022802D0012805D0F6
:1014400002E00029E4D1FFDF002000BD012000BD43
:101450000B480178002904BF807870470B48D0F80A
:10146000001100291CBFD0F80411002902D0D0F8C7
:10147000080108B11020704707480068C0B27047E3
:101480000800002010F5004008F5004000F0004082
:1014900004F5014008F5014000F400403148002106
:1014A00001704170704770B5064614460D46012024
:1014B00000F073F82B49012008702B480660001DCE
:1014C0000460001D056070BD2DE9F0410546012056
:1014D00000F063F8234801262449067045F0807027
:1014E0000860234C0027C4F8047122494FF0407073
:1014F0000860002D02BFC4F800622660BDE8F081DC
:10150000012D18BFFFDFC4F8007226604FF0007095
:1015100019490860BDE8F0811248017879B1154A8F
:101520004FF0407111601249D1F804210021002AC6
:1015300008BF417002D0114A126842700170002049
:1015400000F02BB807480178002904BF40787047A5
:101550000748D0F80401002808BF70470748006812
:10156000C0B270470B00002008F5004004F50040B1
:1015700000F0004008F5014004F5014000F400408F
:101580004FF0E0224FF400410020C2F880112049C2
:101590000870204990020860704730B51C4D044621
:1015A0002878A04218BF002C02D0002818BFFFDF07
:1015B0002878A04208BF30BD2C701749154A00207A
:1015C000ECB1164DDFF858C0131F012C0DD0022CC2
:1015D0001CBFFFDF30BD086003200860CCF800505E
:1015E0004FF400001060186030BD086002200860F1
:1015F000CCF800504FF040701060186030BD0860AB
:1016000008604FF06070106030BD00B5FFDF00BDB6
:101610000D00002008F5014000F500409402002074
:1016200014F5004010B500F00DF802F01AFAFFF7BB
:10163000A7FF01F007FAFFF77BFEBDE81040FFF7B8
:101640002DBF000070B5FE4C00250120657025708F
:1016500025626572A572E07284F82950256304F151
:101660003C00A56301F07EFD002818BFFFDF84F871
:101670002450F44825F04AFBF3494FF0113008603C
:10168000091D0860091D0860091D0860091D0D601D
:10169000091D0860091D0860091D0860091D086012
:1016A000091D0860091D0860091D0860091D086002
:1016B000091D0860657770BD30B4E1490268DFF844
:1016C00090C34A6142688A61007A08770A7DDF4BDD
:1016D000ACF1040401204AB10A7E00FA02F21A6059
:1016E0008D7D002D0CBF2260CCF800204A7D002AA1
:1016F00004BF30BC70474A7E90401860C97D002905
:101700000CBF2060CCF8000030BC7047D249D148F3
:101710000860091DD14808607047CF4A00B5D0491C
:101720001160C0B240F44030111D40F000700860FC
:10173000CC48D0F80001002818BFFFDF00BD012011
:1017400070B502244FF0E0250022C5F88041C6495B
:101750000A600860C5490B6823F0770343F08803EB
:1017600043F000430B60C24B40F25B6119601B1FEA
:1017700040F203111960191F0860BE48032303607B
:10178000BD4996200860AE4EBC4896F9241011F170
:10179000080F08BFF8213CD014DC11F1280F08BF56
:1017A000D82136D011F1140F08BFEC2131D011F13E
:1017B000100F08BFF0212CD011F10C0F08BFF4213D
:1017C00027D010E011F1040F08BFFC2121D000291F
:1017D00008BF026008D0032908BF036004D00429B1
:1017E00008BF016000D0FFDF707F002814BF4FF4F6
:1017F000C020A348A3490860A449A3480860091F62
:10180000A3480860C5F8804296491020C1F8040337
:1018100070BD0160E8E78A4A0368C2F80230808838
:10182000D08011727047864890F829007047844A2A
:10183000517010707047F0B50546800000F180408F
:1018400000F580508B88C0F820360B78D1F8011055
:1018500043EA0121C0F8001605F10800012707FA44
:1018600000F68C4C002A04BF2068B04304D0012A43
:1018700018BFFFDF206830432060206807FA05F1B9
:1018800008432060F0BD10B57C49044610F1080FF4
:1018900008BFF8202CD014DC14F1280F08BFD82082
:1018A00026D014F1140F08BFEC2021D014F1100F32
:1018B00008BFF0201CD014F10C0F08BFF42017D083
:1018C00011E014F1040F08BFFC2011D0002C08BF58
:1018D00000200DD0032C08BF032009D0042C04BF26
:1018E0000420086000D0FFDF554880F8244010BD78
:1018F0000860F9E7524890F834007047504890F873
:1019000036007047644AC17811600068634900027C
:1019100008607047252808BF02210ED0262808BF7E
:101920001A210AD0272808BF502106D00A2894BFC0
:101930000422062202EB4001C9B2594A11605949FA
:10194000086070473E49086270473D498A7A012A1B
:1019500049D0022A18BF70474B7D002B08BF704743
:10196000DFF844C1012A42D0CA7D4B7E002A18BF4D
:1019700001227D30CCF80000DFF830C10020CCF827
:101980004C01180282F0010240EA025040F00312BA
:10199000087F830003F1804303F5C043C3F810259B
:1019A000434A02EB8002887EC30003F1804303F5C3
:1019B000F833C3F81425DFF8FCC0C3F810C5C97E9E
:1019C000CB0003F1804303F5F833C3F81425304A04
:1019D000C3F81025012202FA00F002FA01F10843CF
:1019E0003549086070470B7D002BB9D170478A7D5F
:1019F0000B7E002A18BF01227E30BBE72DE9F84F8D
:101A000000280CBF012202220D4D164C0320AA72A1
:101A1000C4F80002687F002814BF4FF4C0201848A3
:101A2000254F38604FF00108002974D0012971D08A
:101A300002291CBFFFDFBDE8F88F286A00283DE0BF
:101A4000A0030020B4030020000E00401805005041
:101A50000C05005006010200141500402500030289
:101A60000801100000100040FC1F00403C1700401F
:101A70003815004010150040441500400C1500407A
:101A80000000040408F5014040800040A4F5014036
:101A90001011004040160040241500401C15004065
:101AA00008150040541500404C850040008000405F
:101AB000006000404C81004004F5014008BFFFDF9A
:101AC000296A286B0844FE490860FF49FD48086000
:101AD000A97AFE4801290EBF0460FD490160A86B88
:101AE00040F40020A863D4F800924FF0100AC4F824
:101AF00008A30026C4F80062F6484FF4802BC0F813
:101B000000B0FF208DF80000C4F81061C4F8108008
:101B10003DE000E01CE0012A13D0C4F80480022A52
:101B200018BFBDE8F88F687D002808BFBDE8F88FB2
:101B3000E948C0F84C80E9480068BDE8F84F0A3031
:101B400003E7C4F80080287D0028F1D1BDE8F88FB4
:101B5000E348012A806B07D0022A18BFFFDF09D0B3
:101B6000BDE8F84F0A20F0E640F48010A8634FF477
:101B7000801004E040F40010A8634FF400103860B7
:101B8000EEE700BF9DF80000401E8DF800009DF8B4
:101B9000000018B1D4F810010028F3D09DF800001F
:101BA000002808BFFFDFC4F80061C4F80C61C4F866
:101BB0001061C4F80461C4F81461C4F81861C4F871
:101BC0002861C84800680090C4F80092C7F800B0C7
:101BD000C4F804A34FF400203860296A286BBDE8DC
:101BE000F84F08440A30B0E62DE9F847BE4CD4F867
:101BF000000220F00309D4F804034FF0100AC0F3E8
:101C00000018C4F808A30026C4F80062B44D687F29
:101C1000002814BF4FF4C020B448AE490860A87A29
:101C20000127012802D0022803D014E0287D10B932
:101C300011E0687D78B1A87EEA7E07FA00F007FA25
:101C400002F210430860287F800000F1804000F518
:101C5000C040C0F81065FF208DF80000C4F8106186
:101C6000276104E09DF80000401E8DF800009DF8FB
:101C7000000018B1D4F810010028F3D09DF800003E
:101C8000002808BFFFDFC4F81061C4F828616E7235
:101C9000AE72EF72C4F80092B8F1000F18BFC4F82A
:101CA00004A3BDE8F8870068914920F07F400860F0
:101CB00070474FF0E0210220C1F8800170474FF0DB
:101CC000E0200221C0F88011C0F8801270474FF068
:101CD000E0210220C1F80001704786490870704772
:101CE00010B5854801F046FA002818BFFFDF10BD87
:101CF000814801F055BA81490860704730B5784C89
:101D00000546206BA84228BFFFDF01202073256114
:101D1000607F40B1A81C20617348D0F8001241F0E8
:101D20004001C0F800126C490020C1F84401744918
:101D300020690860A06B734940F48000A0634FF4F1
:101D40008000086030BD664802210173CA2101612C
:101D5000417F41B1CC2101616349D1F8002242F0B9
:101D60004002C1F800225C4A0021C2F84411026915
:101D7000016B1144624A1160816B41F480018163FF
:101D800060494FF48000086070475549012048774A
:101D90005D49022008605E495C480860091F5D4893
:101DA000086070474E4900204877704749494FF412
:101DB000800008604A48816B21F480018163002122
:101DC00001737047444801214160C1600021C0F89F
:101DD00044114B480160424801637047404800B5D8
:101DE000407F002818BFFFDF4020474908603E4879
:101DF000D0F8001241F04001C0F8001200BD384890
:101E000000B5407F002818BFFFDF3748D0F8001228
:101E100021F04001C0F800123B490020086000BDDD
:101E20003148D0F8001221F01001C0F80012012151
:101E3000816170472C480021C0F81C11D0F80012B5
:101E400041F01001C0F800127047274981B0D1F865
:101E50001C21012A1EBF002001B070472E4A1268C3
:101E600002F07F02524202700020C1F81C012B4890
:101E700000680090012001B0704730B50C000546A5
:101E800008BFFFDF14F0010F1CBF012CFFDF002D86
:101E90000CBF01200220124901284872CC7212495D
:101EA00004BFD1F8000240F0040007D0022807BFA9
:101EB000D1F8000240F00800FFDF30BD30E0000044
:101EC0004885004048810040A8F50140ACF501403C
:101ED0000410004008F50140008000404C8500409F
:101EE000A00300201811004000100040000004046E
:101EF0003C1500400E000020DC03002004150040CB
:101F00004485004004F501406015004044800040D5
:101F10009CF5014028110040481500401C1100406C
:101F2000C1F8000230BD70B5EF4C0022E17A11F02B
:101F3000020F18BF10F0040F16D111F0100F1CBFC4
:101F400094F83530002B02D094F8373063B111F09B
:101F5000080F1CBF94F82830002B05D111F0040F96
:101F600003D094F8291001B90122657ADF490023D2
:101F70004FF0010C35B100F00200104314D0BDE861
:101F8000704031E6607F002814BF4FF4C020D8486D
:101F9000D84A1060D1F8000220F00300C1F8000216
:101FA000A37284F80BC070BD012D14D0022D18BF90
:101FB000FFDF1CD0A07A01280CBFCF48CF484FF4D8
:101FC0007A7100F2E730B0FBF1F0216BBDE87040B0
:101FD000081A8C30B9E4D1F8000220F00400C1F8EE
:101FE0000002637284F80BC084F80AC0E2E7D1F8FB
:101FF000000220F00800C1F80002637284F80BC0F0
:102000000220A072D6E72DE9F84FBD4FD7F84C213A
:10201000B54CB8494FF00108A07A0026CAB1012892
:1020200002D0022803D014E0227D12B911E0627DB3
:102030007AB1A27EE37E08FA02F208FA03F31A43A9
:102040000A60227F920002F1804202F5C042C2F88B
:102050001065A26B0A60A663217B29B1D7F84411F1
:10206000012908BF012200D00022A04DD5F810118F
:1020700001290CBF40210021012805BFD5F80C31F2
:10208000012B002320231943012805BFD5F8043173
:10209000012B002310230B439A49022804BFD1F8D7
:1020A00000C0BCF1010F07D1D5F80CC1BCF1010F84
:1020B00008BF4FF0080C01D04FF0000C4CEA0303AE
:1020C000022804BF0968002905D1D5F80C1101299F
:1020D00008BF042100D000211943022803D1002A9F
:1020E00018BF022200D100221143022804BFD5F8F4
:1020F0000401012805D1D7F84401012818BF0120A7
:1021000000D1002040EA01097F48016811F0FF0F6B
:1021100003D0D5F81411012900D0002184F834101F
:10212000006810F0FF0F03D0D5F81801012800D087
:10213000002084F835007548006884F8360074483B
:10214000006818B1FFF741F9012800D0002084F899
:102150003700C5F80061C5F80C61C5F81061C5F815
:102160000461C5F81461C5F81861C5F828616948AB
:1021700000680090C7F84461674800684D46DFF882
:102180009C910090D9F80000E062617F00291CBF9B
:10219000801EE062624800682063A07ADFF884A1B4
:1021A00002280CD1607850B1DAF8001009780840A4
:1021B000217831EA000008BF84F8288001D084F833
:1021C0002860DFF8648115F0010F17D098F800102F
:1021D000564A4908E06A52F8211088475FF0010129
:1021E00098F80020524B5208206B53F82220904759
:1021F00098F8000010F0010F0BD01FE015F0200F31
:1022000018BF0221ECD115F0020F18BF0021E7D151
:10221000EEE7DAF80000062200F10901A01C24F024
:102220007FFB40B9207ADAF800100978B0EBD11FB3
:1022300008BF012000D0002084F829002846FFF7BD
:1022400072FE15F0020F05D03A4898F8001050F8C9
:102250002100804715F00C0F07D0374898F8001080
:1022600050F82110C5F3C000884715F0200F05D0A5
:10227000324898F8001050F82100804798F8000084
:10228000022805D105F06E00402806D105F0E5F8DA
:1022900098F80000042828BFFFDFA07A022818BFA2
:1022A000BDE8F88F207B002808BFBDE8F88FC7F88D
:1022B0004461022814D0012818BFFFDF216B206978
:1022C000884298BFFFDF2069C9F80000A06B1C4955
:1022D00040F48000A0634FF480000860BDE8F88FF0
:1022E0002169206B0844EFE7A003002000100040A4
:1022F0000000040408F50140F0FE0100B0F8010000
:1023000000800040001400404016004008140040C7
:102310006015004018110040448100404485004091
:1023200040850040041500400E000020206D020092
:10233000286D0200306D0200406D0200506D0200F9
:1023400004F5014010B504460021012000F04CF8CE
:102350000021182000F048F800210B2000F044F87C
:102360000421192000F040F804210D2000F03CF871
:1023700004210E2000F038F804210F2000F034F87A
:102380000421C84300F030F80721162000F02CF893
:102390000721152000F028F8204608F08FF8204685
:1023A00008F0F4F8002010BD8E210180704710B5B0
:1023B00008F094F8BDE8104008F0FDB812487047E6
:1023C000124A10B51468114B114A08331A60C0281C
:1023D00002D308F0FFFE01E008F088F80B48001D6A
:1023E000046010BD704770474907090E002806DADF
:1023F00000F00F0000F1E02080F8141D704700F19C
:10240000E02080F80014704703F9004310050240F3
:10241000010000012DE9F0410C4611490D68104AF8
:10242000104908321160A0F120012A2901D30120AE
:102430000CE03E2810D040CC0B4F94E80E0007EB88
:102440008000241F50F8807C3046B8472060044844
:10245000001D0560BDE8F0812046FEF7B5FEF5E7FA
:102460001005024001000001606D020010B5EFF39D
:10247000108000F0010472B6EB484178491C4170AD
:102480004078012801D100F077FD002C00D162B620
:1024900010BD70B5E44CE07848B90125E570FFF750
:1024A000E5FF00F071FD20B1002000F0A3FB00204B
:1024B00070BD4FF080406571C0F80453F7E770B508
:1024C000EFF3108000F0010572B6D74C607800B9C8
:1024D000FFDF6078401E6070607808B900F050FD42
:1024E000002D00D162B670BDCF4810B5C17821B1C2
:1024F00000214171C170FFF7E2FF002010BD10B54F
:10250000044600F041FDC849C978084000D00120C8
:102510002060002010BD2DE9F05FDFF80C934278B9
:10252000817889F80620002589F80710064689F881
:10253000085000782F4620B101280FD002280FD074
:10254000FFDF00F02EFD98B100F032FDA8420FD160
:10255000284600F031FD0028FAD047E00125F0E7D9
:10256000FFF784FF00F010FD0028FBD00225E8E70C
:1025700001208407E060C4F80471AC490D600107D4
:10258000D1F84412A94AC1F3423124321160A7495B
:102590004FF0020B34310860C4F804B3A060DFF8D8
:1025A00090A2DAF80010C94341F3001101F10108CB
:1025B000DAF8001041F01001CAF8001000E020BF66
:1025C000D4F804010028FAD0284600F0F5FC0028D1
:1025D000FAD0B8F1000F05D1DAF8001021F010019F
:1025E000CAF80010C4F808B3C4F8047199F80700D9
:1025F0004C4670B1307860B900F0C6FC064601F078
:1026000057FC6FF0004116B1C4E9031001E0C4E9C2
:10261000030115B12771BDE8F09F01202071BDE8CD
:10262000F05F00F0DFB870B5050000D1FFDF4FF0BC
:1026300080424FF0FF30C2F808030021C2F80011B9
:10264000C2F80411C2F80C11C2F81011764C617076
:1026500000F0A0FC10B10120E07060702846BDE8D9
:10266000704058E72DE9F0410125AF077D616E4CC0
:10267000E079F0B1012803D0217A401E814218DAB6
:1026800000F082FC064601F013FCE179012902D931
:10269000217A491C21720EB1216900E0E168411ADA
:1026A000022902DA11F1020F0EDC0EB1206100E006
:1026B000E060FFF7DBFE00F067FC10B13D61A57044
:1026C00000E0257000202072BDE8F0812DE9F05F68
:1026D0005848D0F800B0574A57490832116084066C
:1026E000D4F8080110B14FF0010801E04FF00008E4
:1026F000D4F8000100B101208146D4F8040108B1EA
:10270000012600E00026D4F80C0100B10120824629
:10271000D4F8100108B1012700E0002748EA0901B8
:1027200026EA010020EA0A00B84300D0FFDF0025B6
:10273000B8F1000F04D0C4F80851012000F05AFA93
:10274000DFF8E480B9F1000F13D0C4F8005198F815
:10275000050020B188F80550002000F04BFA98F8E9
:10276000000030B100F010FC18B1012088F8020020
:1027700020610EB1C4F80451BAF1000F0AD0C4F8B8
:102780000C5198F80200464600B9FFDFB57035706D
:10279000FFF795FE37B1C4F8105198F8040008B15E
:1027A000FFF760FF2349091DC1F800B033E770B59A
:1027B0001D4DE87808B900F0E3FB01208407A06113
:1027C000A87850B1D4F80C0120B9002000F0F4FB37
:1027D0000028F7D10020C4F80C014FF0FF30C4F8F6
:1027E000080370BD2DE9F0411926B507C5F8086347
:1027F0000124AC610020C5F80001C5F80C01C5F842
:10280000100100F0C1FB084F10B1BC702C6100E05A
:102810003C70FFF72BFE0549B87920310860C5F8F8
:1028200004636C6150E700001000002018050040B0
:1028300010ED00E01005024001000001F0B5734A00
:10284000D2F80032724D002401212E7856B9714E13
:102850003460704F03263F1D3E606E4F04260C37D8
:102860003E602970C2F80042D1601160694C483462
:10287000D16425688542FBD35160D160C2F8003233
:10288000F0BD2DE9F041044680074FF000054FF000
:10289000010604D560480560066024F00204E004E7
:1028A0004FF0FF3705D55D484660C0F8087324F443
:1028B0008054600003D55A48056024F08044E00548
:1028C0000FD55248C0F80052C0F8087351490D6046
:1028D000091D0D604F4A04210C321160066124F479
:1028E0008074A00409D54F484660C0F80052C0F873
:1028F00008734D48056024F40054C4F38030C4F3D9
:10290000C031884200D0FFDF14F4404F14D0474854
:102910004660C0F8087346488660C0F80052C0F8A8
:10292000087344490D600A1D16608660C0F808737C
:102930000D60166024F4404420050AD53E484660E8
:102940008660C0F80873C0F848733C48056024F4FA
:10295000006400F0C9FD3A48044200D0FFDFBDE842
:10296000F08170B5202500224FEA020320FA02F11F
:10297000C90719D051B201F01F060124B4404E0915
:10298000B60006F1E026C6F88041C6F8804200296C
:1029900006DA01F00F0101F1E02181F8143D03E0B6
:1029A00001F1E02181F80034521CAA42DED370BD4F
:1029B00070B5174C0D466060FFF763FF6068FFF766
:1029C000D0FF2846FFF72FFE00F03CF801F049F851
:1029D00000F08AFD00F0D5FC01F0B4F9BDE87040CC
:1029E00000F020B910B50A4C6068FFF74AFF606834
:1029F000FFF7B7FF00F078FDFFF7D9FE0020606019
:102A000010BD0348406870470320704700800040B5
:102A10002400002004850040FC1F004000C000404E
:102A200004E5014000D0004004D5004000E0004033
:102A300000F0004000F5004000B0004008B5004044
:102A4000FEFF0FFC10B5524800F08CFB00B1FFDF19
:102A50004F48401C00F086FB002800D0FFDF10BD6F
:102A60002DE9F14F4B4ED6F800B00127484800F051
:102A700081FBDFF81C8128B95FF0000708F1010035
:102A800000F08EFB444C00254FF0030901206060EC
:102A9000C4F80051C4F80451009931602060DFF897
:102AA000FCA018E0DAF80000C00614D50E2000F0F3
:102AB00064F8EFF3108010F0010072B600D001202E
:102AC000C4F80493D4F8001119B9D4F8041101B969
:102AD00020BF00B962B6D4F8000118B9D4F80401D7
:102AE0000028DFD0D4F804010028CFD137B1C6F8D0
:102AF00000B008F1010000F03DFB11E008F1010019
:102B000000F038FB0028B9D1C4F80893C4F8045188
:102B1000C4F800510E2000F030F81D4800F040FBD2
:102B20000020BDE8F88F2DE9F0438DB00D46064634
:102B300000240DF110090DF1200817E004EB440703
:102B4000102255F82710684623F035FF05EB87075C
:102B500010224846796823F02EFF6846FFF780FF71
:102B600010224146B86823F026FF641CB442E5DB1E
:102B70000DB00020BDE8F08372E700F01F020121D4
:102B800091404009800000F1E020C0F880127047B9
:102B90002C00002004E5004000E0004010ED00E0C3
:102BA00070B51F490A68BAB100231D4601244A685E
:102BB000521C4A60092A00D34D600E7904FA06F2CD
:102BC0000E6816420AD072B60B6893430B6062B669
:102BD00049680160002070BD052070BD5B1C092B99
:102BE000E5D3FFDFF8E74FF0E0214FF48000C1F8B4
:102BF00000027047EFF3108111F0010F72B64FF031
:102C0000010202FA00F20648036842EA0302026087
:102C100000D162B6E7E702480021016041607047D9
:102C200030000020C948002101708170704770B5E4
:102C3000C74D01232B60C74B1C68002CFCD000241F
:102C400007E00E6806601E68002EFCD0001D091DFE
:102C5000641C9442F5D30020286018680028FCD03A
:102C600070BD70B5B94E0446BB4D3078022800D017
:102C7000FFDFAC4200D3FFDF7169B848012903D8F8
:102C800047F23052944201DD03224271491C7161C6
:102C9000291BC160B1497078BDE8704001F07FBF69
:102CA00070B5AA4C0D466178884200D0FFDFAA4E6D
:102CB000092D4FD2DFE805F04E0522314E4E4E4E23
:102CC0003C002078022800D0FFDF03202070A0788D
:102CD000022802D0012804D008E0A06800F09CF986
:102CE00004E004F1080007C8FFF7A1FF05202070E9
:102CF0000020A070BDE8704001F0EFBC01F0BEFD07
:102D00000146606802F0E3FEB04202D26169022926
:102D10000BD30320FFF76EFF12E001F0AFFD014679
:102D2000606802F0D4FEB042F3D2BDE8704098E78C
:102D3000207802280AD0052806D0FFDF0420207062
:102D4000BDE8704000F0F8B8022000E00320FFF773
:102D500051FFF3E7FFDF70BD70B5054601F08EFD52
:102D60007A4C60602078012800D0FFDF7B49022088
:102D7000087000220A718D6004224A71764ACA6086
:102D800020706078BDE8704001F009BF10B56F4C4D
:102D9000A07808B9207808B1112010BD704801F062
:102DA00007FD6070607820B1012020700020606114
:102DB00010BD032010BD0246010B0120B2F5003FFB
:102DC00002D2884000F0FAB9B2F5802F03D2203940
:102DD000884000F0FBB9B2F5C02F03D240398840DB
:102DE00000F0FDB9B2F5002F03D26039884000F041
:102DF000FFB9002070472DE9F041144600EB84072D
:102E00000E4605463F1F00F01AF94FF080510A693F
:102E1000504306EB8402121FB24201D2012200E0AD
:102E200000221CB10969B4EB910F02D90920BDE859
:102E3000F0814C498D421AD3AF4218D3854201D25A
:102E4000874203D3484828447C2803D845EA060033
:102E5000800701D01020EAE78E4208D33AB928460D
:102E6000FFF7A9FF18B93846FFF7A5FF08B10F20F3
:102E7000DDE73E483E490068884205D0224631469B
:102E80002846FFF7D4FE10E0FFF780FF0028CED1E0
:102E90002E4801218560C0E9036481704FF4A97157
:102EA00004FB01F01830FFF757FF0020BFE770B5B3
:102EB0004FF08055044628692A49B1FBF0F084425E
:102EC0000AD300F0BCF8A04201D8102070BD2869D8
:102ED0006043FFF770FF08B10F2070BD23482449FD
:102EE0000068884204D02869604300F095F80CE03F
:102EF000FFF74CFF0028F0D1296914486143816035
:102F0000022181701B48FFF727FF002070BD154884
:102F1000010B01208840401E704770B50D460446E5
:102F2000FFF7F5FF204201D00F2070BD2946204653
:102F3000BDE8704000F065B910B5044C607801F050
:102F400087FC00202070A07010BD00003800002019
:102F500004E5014000E40140105C0C00E0030020A7
:102F6000A12C00000090020080EFFFEFF80000208D
:102F7000BEBAFECA7C5E010001208107086070476E
:102F8000012081074860704712480068C00700D0E0
:102F9000012070470F48001F0068C00700D00120C3
:102FA00070470C4808300068C00700D00120704707
:102FB000084810300068704706490C310A68D2038F
:102FC00006D5096801F00301814201D10120704753
:102FD000002070470C0400400548064A01689142F1
:102FE00001D1002101600449012008607047000000
:102FF000F8000020BEBAFECA40E5014070477047A5
:1030000018FFFFFFDBE5B151009002008E00FFFFCB
:103010004C01000081841E000B4A022111600B4903
:103020000B68002BFCD0084B1B1D1860086800289B
:10303000FCD00020106008680028FCD070474FF0DA
:10304000805040697047000004E5014000E4014001
:1030500010B50D2000F06FF8C4B26FF0040000F05E
:103060006AF8C0B2844200D0FFDF3A49012008600C
:1030700010BD70B50D2000F048F8374C0020C4F8A2
:1030800000010125C4F804530D2000F049F8256023
:103090004FF0E0216014C1F8000170BD10B50D20A3
:1030A00000F033F82C48012141600021C0F80011E4
:1030B000BDE810400D2000F033B8284810B5046872
:1030C00026492748083108602349D1F80001012822
:1030D00004D0FFDF2148001D046010BD1D48001D05
:1030E00000680022C0B2C1F8002100F072FDF1E7D3
:1030F00010B51948D0F800110029FBD0FFF7DDFF0B
:10310000BDE810400D2000F00BB800F01F020121B7
:1031100091404009800000F1E020C0F88011704724
:1031200000F01F02012191404009800000F1E020E1
:10313000C0F880127047002806DA00F00F0000F196
:10314000E02090F8140D03E000F1E02090F8000476
:103150004009704704D5004000D0004010050240EF
:10316000010000010021017008467047014600205F
:1031700008707047EFF3108101F0010172B6027818
:10318000012A01D0012200E000220123037001B9CD
:1031900062B60AB1002070474FF400507047E9E76B
:1031A000EFF3108111F0010F72B64FF000020270C0
:1031B00000D162B600207047F2E700001F4909689D
:1031C000014201D001207047002070471B49091DB2
:1031D0000968014201D0012070470020704717495B
:1031E00010310968014201D001207047002070476A
:1031F000124914310968014201D0012070470020B2
:10320000704710B50D4C2060201D01600B48103038
:103210000260001D0360002010BD09490A6848F2E1
:1032200002139A4302430A607047054A116848F244
:10323000021301EA03009943116070470006004041
:10324000C806024056490968016000207047544989
:1032500008600020704701218A0720B1012804D0AE
:1032600042F204007047916700E0D1670020704788
:103270004C490120086042F20600704708B504235B
:10328000484A1907103230B1C1F80433106840F0D1
:10329000010010600BE0106820F001001060C1F820
:1032A00008330020C1F808013F4800680090002062
:1032B00008BD3C49103140B101280CD0022812D081
:1032C000032816D042F205007047086820F01E005F
:1032D00040F0100004E0086820F01E0040F01400E8
:1032E000086000207047086820F01E0040F01800B9
:1032F000F6E7086820F01E0040F01C00F0E72949BE
:1033000024310A6802430A600020704725492431AD
:103310000A6882430A600020704722492431096804
:10332000016000207047012801D9072070471F4A1B
:1033300052F8200002680A4302600020704701280A
:1033400001D907207047194A52F8200002688A43C1
:10335000026000207047012801D907207047134AF6
:1033600052F82000006808600020704702001049F1
:103370004FF0000003D0012A01D0072070470A60F7
:1033800070474FF080410020C1F808014FF0E02065
:10339000802180F800140121C0F80011704700005E
:1033A000000400400005004008010040086E0200D3
:1033B000780500406249634B0A6863499A4209688C
:1033C00001D1C1F310010160002070475C495D4BE1
:1033D0000A685D49091D9A4201D1C0F310000860D6
:1033E000002070475649574B0A68574908319A429E
:1033F00001D1C0F3100008600020704730B5504B79
:10340000504D1C6842F20803AC4202D0142802D28C
:1034100003E0112801D3184630BDC3004B481844BF
:10342000C0F81015C0F81425002030BD4449454BA4
:103430000A6842F209019A4202D0062802D203E049
:10344000042801D308467047404A012142F8301051
:10345000002070473A493B4B0A6842F209019A4200
:1034600002D0062802D203E0042801D308467047A0
:10347000364A012102EBC00041600020704770B560
:103480002F4A304E314C156842F2090304EB80029A
:10349000B54204D0062804D2C2F8001807E0042878
:1034A00001D3184670BDC1F31000C2F80008002017
:1034B00070BD70B5224A234E244C156842F20903B0
:1034C00004EB8002B54204D0062804D2D2F80008EA
:1034D00007E0042801D3184670BDD2F80008C0F3F5
:1034E00010000860002070BD174910B50831184859
:1034F00008601120154A002102EBC003C3F8101523
:10350000C3F81415401C1428F6D3002006E0042844
:1035100004D302EB8003C3F8001807E002EB80033A
:10352000D3F80048C4F31004C3F80048401C062830
:10353000EDD310BD0449064808310860704700000B
:10354000F8000020BEBAFECA00F5014000F00140BC
:103550000000FEFF10B54FF000040B4602002046AD
:1035600021461ED0012A04D0022A04D0032A1DD1EC
:1035700003E0012002E0022013E00320072B15D214
:10358000DFE803F0140406080A0C0E00012108E02D
:10359000022106E0032104E0042102E0052100E00D
:1035A000062101F01FF908B1204610BD0724FBE7F2
:1035B000FE4805218170002101704170C170816059
:1035C0007047FB490A78022A06D0CA681044C860CE
:1035D000C868323802F027BA8A6810448860886860
:1035E000F7E70378F349F44A13B1012B0ED011E049
:1035F0000379012B00D06BB943790BB1012B09D1B1
:103600008368643B8B4205D2C0680EE00379012BCE
:1036100002D00BB10020704743790BB1012BF9D1D7
:10362000C368643B8B42F5D280689042F2D8012097
:1036300070472DE9F0470446022601F082FC00683D
:1036400000B1FFDFD94D01273CB12078B0B101288E
:1036500005D0022810D0032813D02F710CE0606829
:10366000C82807D302F05EFA20B16068FFF7A9FF0F
:10367000012603E0002601E000F0AFF93046BDE886
:10368000F08728780028F7D16068FFF7AAFF0028A4
:10369000E3D06068DFF81883007810B3A8780428B6
:1036A00000D0FFDF0020474688F8000060680079FE
:1036B000C0B30020387160684079A0B304207871ED
:1036C00060688168E86801F0F2F8B8606068C06816
:1036D0003230F8600320A870B549E87801F05FFA4D
:1036E000CAE74FF00209404688F8009061680979FE
:1036F000D1B10021017161684979B9B104214171E9
:1037000061688968323181606168C968C160C06878
:10371000A64C1434606001F0B1F820606F7085F839
:103720000290A9E704E005E00321E3E70321E6E7CF
:103730000120BFE70320C2E72DE9F0479B4C8846F4
:10374000E178884200D0FFDFDFF860920025012792
:10375000974E09F11409B8F1090F76D2DFE808F0A5
:10376000050D2A3D646A769E7E00A078032886D0E7
:10377000A078022883D0FFDF81E7A078032803D058
:10378000A078022800D0FFDF0420A07025712078E7
:1037900000285FD1FFF715FF3078022806D0B06807
:1037A000E060FFF742FD2061002048E0E07801F092
:1037B0009CF8F5E7A078032803D0A078022800D071
:1037C000FFDF207878BBA078032812D1042026E000
:1037D0000420FFF70FFAA57051E7A078032803D063
:1037E000A078022800D0FFDF2078E0B9A078032875
:1037F00014D001F043F801464F46D9F8000002F01A
:1038000066F90028E4DB79688142E1DB081AF060A0
:103810006749E078BDE8F04701F0C1B90520FFF73E
:10382000E9F9A7702BE724E0A078042800D0FFDF97
:10383000022004E0A078042800D0FFDF0120A16866
:103840008847FFF7F6FE05462EE027E0A07804281B
:1038500000D0FFDFBDE8F04700F0BFB8A078042833
:1038600005D0607810B1A078022800D0FFDF207862
:1038700018B1BDE8F04700F0B9B8207920B10620B2
:10388000FFF7B8F92571CCE7607828B14849E078AE
:1038900001F085F96570F2E60720C0E7FFDFEEE68C
:1038A0003DB1012D03D0FFDF022DF9D1E7E6042061
:1038B000C5E70320C3E770B5050005D03B4CA078F1
:1038C000052803D0112070BD102070BD3B4800F0CA
:1038D0006FFFE070E07818B1A5600020A07070BDA7
:1038E000032070BD314810B5017809B1112010BD19
:1038F000817805290CD0817801290BD0817849B1D4
:10390000012101708178012904D0807810B103E091
:103910000F2010BD00F06AF8002010BD2DE9F04125
:10392000224E0446B07808B101280AD164B120467D
:10393000FFF757FE50B120781D4D48B1B0780128EF
:1039400022D00F20BDE8F0811020FBE70720F9E727
:1039500002272F70207998B100202871607988B1F2
:1039600004206871A0683230A860E068E860E86808
:103970000E4C1434606000F081FF2060B77022E0CC
:103980000320EAE70320ECE700202870207900B349
:10399000002028716079F0B104206871A168F06896
:1039A00000F085FFA860E068323009E05000002098
:1039B000F00300203D860100FF1FA10739370000FA
:1039C000E8600320B0701049F07801F0E8F80020BA
:1039D000B8E70320DDE70320DFE70C4810B50069F6
:1039E000FFF71BFCBDE8104000F077BE10B5074C98
:1039F000E07800F02DFF0820FFF7FCF80520A0700C
:103A000000202070607010BDF003002050000020E6
:103A1000C84911F8210F4978884201D3401A02E0C1
:103A2000C1F121010844C0B27047C249233111F8E5
:103A3000210F4978884201D3401A02E0C1F12101E7
:103A40000844C0B27047BB49463111F8210F49788C
:103A5000884201D3401A02E0C1F121010844C0B2FA
:103A60007047B54910B5802081F80004B1490020A5
:103A7000233101F8210F4870AE4901F8210F487039
:103A8000AC49463101F8210F4870AC48FFF76AFB9A
:103A9000AA48401CFFF766FBFFF7DAFABDE81040C2
:103AA00000F03DB920207047B2E770B50C460546DE
:103AB0000026FFF7ADFF01469E48A14212D3002227
:103AC000641EE4B20DD390F82210435C491CC9B2C5
:103AD00005F8013B80F822102129F1D180F822203D
:103AE000EEE7012600F01BF9304670BD202070473C
:103AF0009BE770B50C4605460026FFF796FF01468A
:103B00008C482330A14212D30022641EE4B20DD3AC
:103B100090F82210435C491CC9B205F8013B80F8BB
:103B200022102129F1D180F82220EEE7012600F0B1
:103B3000F6F8304670BD202101700020704710B5A6
:103B40000446FFF780FF2070002010BD70B50C46C2
:103B50000546FFF778FF014676484630A14213D369
:103B60000022641EE4B20DD390F82210435C491C7D
:103B7000C9B205F8013B80F822102129F1D180F863
:103B80002220EEE7002401E042F2070400F0C7F82B
:103B9000204670BD70B50C460546212900D9FFDFCF
:103BA00067480068103840B200F0A0F8C6B20D2097
:103BB00000F09CF8C0B2864204D2FFDF02E000BFF2
:103BC000FFF796FA21462846FFF76FFF0028F7D047
:103BD00070BD2DE9F047DFF86481564CA8F101086B
:103BE0000746233498F80000DFF84891002604F1D6
:103BF000230A38B994F8221094F82100212200F009
:103C000084F890B14D4699F8221099F821002122AC
:103C100000F07BF8B8B155469AF822109AF82100C6
:103C2000212200F072F848B335E094F821002754BF
:103C300094F82100401CC0B284F8210021282AD128
:103C400084F8216027E095F821002F5495F8210091
:103C5000401CC0B285F82100212801D185F82160DF
:103C600098F800004746B0B195F8221095F8210069
:103C7000212200F04AF870B13E700CE095F8210066
:103C80002F5495F82100401CC0B285F8210021284E
:103C900001D185F8216094F8221094F821002122A6
:103CA00000F033F800281FD099F8221099F821006D
:103CB000212200F02AF8002816D09AF822109AF84B
:103CC0002100212200F021F800280DD0FFF7E6F9AD
:103CD0001A48FFF74FFAB0F5005F00D0FFDFBDE8EC
:103CE000F0471648FFF75CBABDE8F087002806DA0F
:103CF00000F00F0000F1E02090F8140D03E000F157
:103D0000E02090F8000440097047401C884204D02D
:103D1000904200D109B1002070470120704710B5D2
:103D20000648FFF727FA002803D1BDE81040FFF747
:103D3000A0B910BD000400200DE000E06D000020DF
:103D400004ED00E04FF0E0214FF00070C1F8800179
:103D5000C1F88002384B802283F80024C1F80001AA
:103D6000704700B502460620344903E001EBC0036A
:103D70001B792BB1401EC0B2F8D2FFDFFF2000BD7F
:103D800041F8302001EBC00100224A718A71012202
:103D90000A7100BD294A002102EBC0000171704781
:103DA00010B50446062800D3FFDF244800EBC40406
:103DB0002079012800D0FFDF6079A179401CC0B2D2
:103DC000814200D060714FF0E0214FF00070C1F8E7
:103DD000000210BD2DE9F04119480568184919483D
:103DE000083108601448062690F80004134F400973
:103DF000154C042818D0FFDF16E0217807EBC1002E
:103E00000279012A08D1427983799A4204D0427911
:103E1000827157F8310080472078401CC0B2207072
:103E2000062801D300202070761EF6B2E5D20448A1
:103E3000001D0560BDE8F08119E000E06C04002081
:103E400010050240010000016F00002016490878AB
:103E50004A78401CC0B2904205D0144B01221A602F
:103E6000BFF34F8F087070472DE9F0410E4C4FF0B3
:103E7000E02600BF00F0B2FA20BF40BF20BF677845
:103E800020786070D6F80052FEF798FA854305D185
:103E9000D6F8040210B92078B842EBD000F099FAB5
:103EA0000020BDE8F08100007000002018050240ED
:103EB0002DE9F041012528034FF0E0210026C1F84B
:103EC00080011E4CC4F800610C2000F02CF81C4846
:103ED00001680268C94341F3001142F01002026018
:103EE000C4F804532560491C00E020BFD4F8002129
:103EF000002AFAD019B9016821F0100101601148B7
:103F000007686560C4F80853C4F800610C2000F02D
:103F10000AF83846BDE8F08110B50446FFF7C8FF3F
:103F20002060002010BD00F01F02012191404009D7
:103F3000800000F1E020C0F88012704700C000400F
:103F400010ED00E008C500402DE9F047F84C0646AA
:103F5000FF21606800EB061211702178FF2916D04E
:103F60004FF0080909EB011109EB06174158C05938
:103F7000491E21F07F4100F0DDF918B194F800806E
:103F8000454614E06168207801EB06110870267040
:103F9000BDE8F087626809EB0510D159105800F0B0
:103FA000C9F930B96068A84600EB08100578FF2D04
:103FB000F0D1606800EB061100EB08100D70067080
:103FC000E6E7F0B5DA4B0446002001255A680C26D6
:103FD0001B7A0BE005EB0017D75DA74204D106EB77
:103FE0000017D7598F4204D0401CC0B28342F1D889
:103FF000FF20F0BD70B501F093FDCD4C01460825C2
:104000002278606805EB0212805800F093F90128CD
:1040100008D92178606805EB01114058BDE870406F
:1040200001F075BD00F090FFBDE87040FFF7B8BE2D
:104030002DE9F041BE4C257801F072FD0146FF2DBF
:104040006FD04FF00808626808EB0516905900F031
:1040500071F90228606801D980595EE000EB051112
:1040600009782170022101EB0511425C5AB1521E00
:104070004254815901F5000121F07F4181512846C8
:10408000FFF762FF34E00423012203EB051302EB88
:10409000051250F803C0875CBCF1000F10D0BCF5CE
:1040A000806F10D9CCF3090250F806C00CEB423CEB
:1040B0002CF07F4C40F806C0C3589A1A920A09E0C7
:1040C000FF2181540AE0825902EB4C3222F07F42F8
:1040D0008251002242542846FFF736FF0C216068C7
:1040E00001EB05114158E06850F827203846904709
:1040F0002078FF2815D001F013FD01462278606872
:1041000008EB02124546805800F014F9012891D9B5
:104110002178606805EB01114058BDE8F04101F0DD
:10412000F6BCBDE8F081F0B51D4614460E460746C4
:10413000FF2B00D3FFDFA00700D0FFDF7C48FF216B
:104140000022C76044600572067401704270104618
:10415000012204E002EB0013401CE154C0B2A8426B
:10416000F8D3F0BD70B5724C06466578207C854268
:1041700000D3FFDFE06840F825606078401C607085
:10418000284670BD2DE9FF5F1D468B460746FF247C
:1041900001F0C6FCDFF89891064699F80100B84294
:1041A00000D8FFDF00214FF001084FF00C0A99F80A
:1041B0000820D9F804000EE008EB0113C35CFF2BC4
:1041C00027D0BB4205D10AEB011350F803C0DC45F0
:1041D00021D0491CC9B28A42EED8FF2C1BD008EB73
:1041E00004110AEB0412475440F802B00421029B68
:1041F0000022012B01EB041111D042504FF48068D2
:1042000008234FF0020C454519D9A905890D08D09E
:1042100008E00C46DDE7FF2004B0BDE8F09F455004
:10422000ECE7414606EB413203EB041322F07F42F8
:10423000C250691A0CEB0412890A81540BE005B9CB
:10424000012506EB453103EB041321F07F41C150FA
:104250000CEB0411425499F800502046FFF774FE0D
:1042600099F80000A84201D0FFF7C4FE3846D3E712
:1042700070B50C46054601F053FC0646214628461B
:10428000FFF79FFE0446FF2817D0294D082101EBB8
:10429000041168684058314600F04CF800F5805031
:1042A000400B02216A6801EB0411515C09B100EB7B
:1042B0008120002800D1012070BD002070BD2DE9B3
:1042C000F0410F468046FFF77CFEFF281BD0184EBA
:1042D000357871682A462C4605E0844206D025468A
:1042E00001EB05131C78FF2CF7D10CE0FF2C0AD052
:1042F000A5420CD101EB021000783070FF2804D0E9
:10430000FFF778FE03E000200BE701F006FC3946DA
:104310004046FFF7ADFFFF220123716803EB041352
:10432000CA5401EB041201EB051112780A70F8E689
:104330009C040020401A20F07F40B0F5000F00D907
:104340000020704710B5202000F075F8202000F004
:104350007DF84449202081F80004434900060860A4
:10436000091D42480860FEF729F83F49C831086036
:104370003F48D0F8041341F00101C0F80413D0F80D
:10438000041341F08071C0F80413364901201C3930
:10439000C1F8000110BD10B5202000F04CF83248E3
:1043A00000210160001D01602F4A481EE83A10609C
:1043B0002F4AC2F808032C4BC8331960C2F8000119
:1043C000C2F860012B490860BDE81040202000F0D1
:1043D0003DB825492848EC390860704722492648ED
:1043E000E8390860704770B51F4A8069E83A224989
:1043F00011601F49D1F800610023204D1D4A5C1E49
:104400001EB1A84206D300210FE0D1F8606186B149
:10441000A84209D2C1F80031C1F860311460BDE88A
:104420007040202000F012B81168BDE8704022F002
:104430008CBBFFDF70BD00F01F02012191404009DD
:10444000800000F1E020C0F88011704700F01F02EA
:10445000012191404009800000F1E020C0F8801265
:104460007047000020E000E0000602407C170020BA
:104470000000024000040240010000010090020020
:1044800070B50446A0F500002C4EB0F1786F02D252
:104490003444A4F500042A48844201D2012500E0F6
:1044A000002500F041F830B1B4420BD32548006834
:1044B00004E0284370BDB44204D32348844201D2AF
:1044C0000120F6E70020F4E710B50446A0F500004F
:1044D000B0F1786F03D219480444A4F5000400F049
:1044E00023F84FF0804130B11648006804E08C4258
:1044F00004D2012003E014488442F8D2002080F066
:10450000010010BD10B520B1FFF7DEFF08B101209A
:1045100010BD002010BD10B520B1FFF7B1FF08B1EC
:10452000012010BD002010BD0848094900688842DC
:1045300001D10120704700207047000000000020DA
:10454000009002000C01002008000020F80000206C
:10455000BEBAFECA2DE9F041FE4CA07E617E8842C3
:1045600008BFBDE8F0810126FB4D0027607E215C7D
:1045700001EB810205EB8200037C052B18D0037C44
:10458000062B23D0037C072B34D0437C002B08BFA1
:10459000FFDF29D04774607E18280EBF0020607EA0
:1045A000401C6076481CC0B255F8222007211AE052
:1045B0000674607E18281ABF607E401C002060765A
:1045C000481CC0B255F8222002210CE00674607E1F
:1045D00018281ABF607E401C00206076481C55F8E1
:1045E0002220C0B203219047A07E617E8842BDD1C7
:1045F000BDE8F0810674607E18281ABF607E401CFA
:1046000000206076481CC0B255F822200821EAE755
:1046100070B5D24D0D2085F82900A5F54A7000240B
:1046200080F8F54180F8F44100F504708476447612
:1046300005F12C00FEF796FDA5F59870047585F838
:104640002B40601E2C60A86085F8254085F822402C
:1046500085F8234085F8244085F82140C048A5F11D
:10466000FC0104704470002000EB800201EB820228
:104670001474401CC0B20C28F6D3012001F08AFB50
:10468000002001F087FB012085F82600FFF75AFB88
:10469000B448FFF766FBB44C2070B448FFF761FBE9
:1046A0006070BDE8704001F009BB10B501F034FB4B
:1046B000AD4C2078FFF76EFB6078FFF76BFBA74CE3
:1046C00094F82800002808BF10BDFDF7F8FE002070
:1046D00084F8280010BD0C20704770B59F4C94F8EA
:1046E000260000281CBFFFDF70BD94F82B000028B7
:1046F00008BFFFDF01F0F9FB62690025811A6FF046
:104700007F43B1F5800F24BFA2EB000CBCF5800FF6
:104710000DD38B4203D2991A0844411C07E063452C
:1047200028BFFFDF05D2181A1044401C414200295F
:1047300000DBFFDF012684F8266084F82B5094F814
:1047400029100420844A01EB810102EB81010874E5
:10475000A068B0F1FF3F04D0B01EA060012001F0BE
:1047600019FB002001F016FB01F0FAFA2560FEF7B4
:10477000E1FE01F043FC7E48056005604FF0E0215A
:104780004FF40040C1F8800201F0B7FC7448007893
:10479000022804D0032805D194F8230010B184F82E
:1047A000226001E084F82250BDE8704001F00ABCAC
:1047B000034669490C2000BF00EB800201EB820236
:1047C00012F8042C22B1401E10F0FF00F4D1704703
:1047D00000EB800201EB8201012241F8143C01F858
:1047E000042C7047012804D0032808BF002926D0D4
:1047F00000E021B3594B4FF0000C83F821C0584A18
:104800000028907014BF022882F803C00BD007293B
:1048100015D2DFE801F01404060C0E1012001B2064
:1048200000E03A20D070012083F821007047582022
:10483000F8E77720F6E79620F4E7B520F2E70020C6
:104840007047474810B5407801F0E1FB80B210BDD9
:1048500030B5421E4049002500EB800001EB80048A
:104860000B2A02D814F8040C00B9FFDF14F8040C6A
:10487000012818BFFFDF04F8045C30BD70B53D4C63
:1048800094F8F50194F8F41188420CBF0125002535
:1048900001F02BFB01F0BBFB94F8F51194F8F42127
:1048A00091420CBF01210021A942E9D170BD30B570
:1048B0000D46314A44190021101A71EB010038BF2E
:1048C000FFDF2E488542C8BFFFDF2D488542B8BFB5
:1048D000FFDF2C488442A8BF2B4804DA002CAABF73
:1048E0002046284830BD201830BD70B51A4900EB6D
:1048F000800001EB8004254A54F8101D607A0028DE
:1049000052F8202011440CBF04200220084420F05B
:104910007F4001F07CFB94F90850174A44190021AC
:10492000101A71EB010038BFFFDF14488542C8BF81
:10493000FFDF13488542B8BFFFDF12488442A8BF9B
:10494000114804DA002CAABF20460E4870BD20187A
:1049500070BD0000C0060020DC060020D807002043
:104960007400002031400000720000205545000016
:1049700000F50040B0040020FF7F841E0020A10746
:1049800000E05EF80080841E00807BE1106E020073
:104990002DE9F04F0746FF4885B00068C005C00DFF
:1049A00011D0103840B20028B8BF00F00F0000F15D
:1049B000E020B4BF90F8140D90F80004400908BF3F
:1049C0004FF0010A01D04FF0000A387800281FBFCD
:1049D0000128002005B0BDE8F08F387900280CBF11
:1049E00004210221EC4ABAF1000F52F8200001EB39
:1049F000000903D1E949002081F827006C4602AA8A
:104A00002146B86801F010FB9DF90800FA68211DE5
:104A100010440122C01C1F28B8BF019208DB03AA62
:104A200001F002FB9DF80C0010B10198401C0190B0
:104A3000DDE900100844401D20F07F400190A1EB0B
:104A4000090020F07F40009078798DF80A000098E6
:104A5000039001F04AFA009A019B121A181AD049E1
:104A600022F07F4220F07F40B2F5800F26D28142B3
:104A700024D3CA4890F82950009CCA4E181B20F035
:104A80007F486FF07F40001BAB4604900D2D22D075
:104A900005EB850006EB80026FF07F435068011B39
:104AA000B1F5800F12D3A4EB000CBCF5800F0DD331
:104AB0008B4205D204990844411C07E000205FE0C6
:104AC000634520D2191A0819401C41420029BCBF75
:104AD000AB46957CDADB5D4527D00BEB8B0006EB14
:104AE00080036FF07F429968081BB0F5800F14D3E4
:104AF000A4EB010CBCF5800F0FD3824205D20498C1
:104B00000844401C09E0FFDFE5E7624528BFFFDFFE
:104B10000BD2521A1019401C4042002805DD9DF8A6
:104B20000A009A7B904228BF0C460D2D18BF9DF8B5
:104B30000A1010D005EB850006EB80004268121BBE
:104B400022F07F42424506D2827B914228BF846890
:104B5000857C0D2DEED10098A04205D004EB080015
:104B600020F07F400094019000990398814206D084
:104B700001EB090020F07F4001F049FAB860012004
:104B8000864991F82710002904BF05B0BDE8F08FD1
:104B9000BAF1000F3FF42EAF05B0BDE8F08F2DE95C
:104BA000F04F054687B00C467F48FEF7E3FA012632
:104BB000002837D0DFF8F48198F81400002818BFD7
:104BC000FFDF88F810502079784D05F10C0228722B
:104BD000607968722946A06801F026FA95F90C0000
:104BE0000F2804DD1F3828732868401C286095F9B9
:104BF0000C00E1682F1D0844C01C1F28B8BF3E6090
:104C000009DB6A46394601F00FFA9DF8000010B141
:104C10003868401C38602078A87288F8146007B0A3
:104C2000BDE8F08F624F97F8F50118281FD097F86C
:104C3000F50197F8F411401C884200D1FFDF554878
:104C40000068C105C90D1BD0A1F1100041B20029B7
:104C5000BDBF01F00F0000F1E02090F8140D01F14C
:104C6000E020A8BF90F80004400909D104E097F8BB
:104C7000F4010028E3D1E1E72078002818BFFFDF26
:104C80004B4890F8F51101EB810100EB81000574B0
:104C90002078012800F04881022842D0444890F84A
:104CA000F51101EB810100EB810520792872607913
:104CB000687205F10C022946A06801F0B5F995F972
:104CC0000C000F2804DD1F3828732868401C28605A
:104CD00095F90C10E0682F1D0844C01C1F28B8BFB0
:104CE0003E6009DB6A46394601F09EF99DF80000F6
:104CF00010B13868401C38602078A8722C4890F8B1
:104D0000F51118290EBF002190F8F511491C80F803
:104D1000F5112548FEF744FA07B0BDE8F04F01F061
:104D200051B9234890F8F51101AA01EB810100EB7C
:104D300081076946E06801F077F99DF904000F28C2
:104D4000CCBF0120002000993D1D08440190A068BF
:104D5000C01C1F28B8BF2E6009DB6A46294601F037
:104D600063F99DF8000010B12868401C28600220FB
:104D7000B872607978722079387200280CBF0421EB
:104D80000221054A52F82000084403907968401D2A
:104D900008440FE004ED00E0106E0200D807002088
:104DA000FFFF3F00DC06002004080020A8060020CA
:104DB000B00400200199009001440398081A05905E
:104DC000FD4C002084F8270001F08FF8386001992D
:104DD0008046084420F07F40F86094F829000D28B0
:104DE0007ED0214691F8290000EB8002A1F1FC0061
:104DF00000EB82025668009A324422F07F4202920F
:104E000097F809B091F829503446111B21F07F4AD8
:104E10006FF07F41891BA94604910D2D21D0E748F1
:104E200005EB850100EB81026FF07F435068011BA9
:104E3000B1F5800F24BFA4EB000CBCF5800F0BD3A1
:104E40008B4203D204990844411C05E0634521D2FA
:104E5000191A0819401C41420029BCBFA946957C7B
:104E6000DBDB4D4526D0D54809EB890100EB8103FA
:104E70006FF07F429868011BB1F5800F14D3A4EB4B
:104E8000000CBCF5800F0FD38A4205D2049901446F
:104E9000491C09E0FFDFE4E7624528BFFFDF09D2D4
:104EA000121A1119491C4942002903DD997B8B45CF
:104EB00028BF04460D2D18BFC04910D005EB850052
:104EC00001EB80004268121B22F07F42524506D25D
:104ED000827B934528BF8468857C0D2DEED100E050
:104EE0001BE0A64205D004EB0A0020F07F402646D6
:104EF0000290029AA6EB080121F07F41A2EB080282
:104F0000059822F07F42B1F5800F06D2904204D37B
:104F10000398304420F07F403860A74890F827007D
:104F200000287FF44DAFE9E6A548054415F8010CCB
:104F3000002818BFFFDF05F8016CAFE6002000F085
:104F400019BF012000F016BF9E48007870472DE978
:104F5000F0419A4E00274FF00308012506F1FC04AA
:104F600050B301285BD0022800F0E98003281CBF61
:104F7000FFDFBDE8F08194F829000D2808BFFFDFAE
:104F800084F8267084F82B5094F8290000EB8000F8
:104F900006EB800080F8108001F01BF894F82900DF
:104FA00094F82910401CC0B201EB810156F8212071
:104FB000BDE8F0410521104794F829000D2808BFED
:104FC000FFDF84F8267084F82B5094F8290000EB5A
:104FD000800006EB800080F8108000F0FAFF207F50
:104FE000002818BFFFDF84F82550002000F0D2FE13
:104FF000A168B1F1FF3F04D001230022184600F060
:105000000DFF94F8290094F82910401CC0B201EB60
:10501000810156F82120BDE8F0410121104794F8A4
:1050200029000D2808BFFFDF84F8267084F82B5074
:1050300094F8290000EB800006EB800080F81080D7
:1050400000F0C7FF012000F0A5FE94F8250000281D
:105050001CBFA068B0F1FF3F0DD094F8290094F870
:105060002910401CC0B201EB810156F82120BDE897
:10507000F04106211047207F012815D002281FD0BB
:10508000032833D004281CBFFFDFBDE8F08194F86B
:10509000201060680123411A0022184600F0BEFE6D
:1050A00094F82800B8BB37E094F8240028B184F8BD
:1050B000247000F095FF84F823502777BDE8F08135
:1050C00094F8280018B9FDF7D1F984F8285094F81D
:1050D000290094F82910401CC0B201EB810156F858
:1050E0002120002190472777BDE8F081217B60686F
:1050F0000123411A0022184600F090FE94F8240083
:1051000028B184F8247000F06BFF84F8235002204B
:105110002077BDE8F08103E0FDF7A8F984F8285076
:1051200094F8290094F82910401CC0B201EB8101C9
:1051300056F82120002190472577BDE8F0812148CD
:105140000078BDE8F041FEF72BBE10B51A4C94F87C
:1051500029000D2808BFFFDF94F8290094F82910D2
:10516000401CC0B2154A01EB810152F82120BDE874
:105170001040042110472DE9F84F8046087C104C60
:10518000401EC6B20D46A05D01281DD0022825D0C4
:10519000297CDFF828A0481EC4B204EB84020AEB85
:1051A0008206371D0B2821D801EB81000AEB800015
:1051B00010F8040CD8B919E0D8070020DC0600204C
:1051C000CC07002072000020A87A012814BF02201A
:1051D0000020A05518BFBDE8F88FD9E7A87A0128AC
:1051E00018BFFFDF0021A972A155D1E7FFDF307C96
:1051F000DFF8289407280BD11920009099F819207E
:1052000009F11A034946204600F08AFF0120307454
:10521000307C012804D0A87A012818BFFFDF02D013
:10522000A87A01284BD1FE4B307C022818D099F87F
:105230001A00182872D099F81A0099F81910401C11
:10524000884200D1FFDF0120707499F81A0009F834
:10525000004099F81A00182800F09E8100F093B9D8
:10526000F04A92F829000146A04207D0014600EB1F
:10527000810003EB8000807CA042F7D192F829C026
:1052800084450CD192F8291001EB810103EB8101D7
:10529000897C82F82910012182F82A1009E000EBAC
:1052A000800203EB820201EB810103EB8101927C1E
:1052B0008A7400EB800003EB80000D218174287A52
:1052C000D949002851F820A02968A1EB0A010CBF98
:1052D00004200220081A20F07F423A60D5E900013C
:1052E000084420F07F407860A87A022818BF287B05
:1052F0001ED038727868401D20F07F407860687A50
:10530000B872287A06257872032872D2002870D0E5
:10531000FDF73AFE00286DD0A1E0FFE799F81900EB
:10532000002890D18EE700BF89F81A00BDE8F88FF9
:10533000287A00280CBF0420022000EB0A036868CA
:10534000591D00EB010BB9484078504503D9B549C8
:1053500091F8231011B10BF1060003E0A0EB0A0055
:105360005844801DAF4991F829C0BCF10D0F25D0DC
:1053700091F829C00CEB8C0EA1F1FC0C0CEB8E0CFF
:10538000DCF804C0624519D0DFF8A4C291F82910F6
:1053900001EB8102A24901EB82014A688968A2EB14
:1053A000080222F07F42A1EB080121F07F419042E8
:1053B00098BFB2F5800F9DD28C459BD34044A0EBA3
:1053C0000B0020F07F4139601944E86821F07F41EB
:1053D0000A1A6FF07F4CB2F5800F24BF431AB3F561
:1053E000800F11D3944506D2ACEB00000844421C58
:1053F0000AE034E02FE09C4528BFFFDF1DD2ACEB74
:1054000001010844401C4242002A16DD0520307488
:1054100099F81A00182819D099F81A0099F8191053
:10542000401C884200D1FFDF99F81A0009F80040BB
:1054300099F81A0018287BD0A5E03868ABF105016F
:10544000084420F07F407860002052E799F8190066
:105450000028E9D1E7E7CAF138054FF0320A73486E
:105460000178012918BF03290AD14078504507D98E
:105470006C4991F82310002904BFA0EB0A000544F1
:105480006B4B3868A0EB0802786822F07F41A0EBF4
:10549000080020F07F4C8D4298BFB1F5800F1BD2E1
:1054A000634519D35F4991F829300D2B30D091F81D
:1054B00029504FF00D0BDA46594905EB850301EBF6
:1054C0008303D3F808C0ACEB080C944531D8AB4645
:1054D0009D7C0D2DF0D193E00520307499F81A00D1
:1054E000182810D099F81A0099F81910401C884211
:1054F00000D1FFDF99F81A0009F8004099F81A0066
:10550000182849D03FE099F819000028F2D1F0E7B7
:105510000220307491F829000D2818BF91F8290055
:10552000B07481F82940012081F82A00BDE8F88F85
:1055300032E00D2D1CBFAA46002261D00AEB8A037F
:1055400001EB8303D3F804C0ACEB080C84452CD2E8
:105550009A7B97F80AC0944520D30520307499F8B7
:105560001A00182813D099F81A0099F81910401C3D
:10557000884200D1FFDF99F81A0009F8004099F835
:105580001A00182808D099F81A00401CCCE699F89F
:1055900019000028EFD1EDE70020C5E693F812A02E
:1055A0000122BAF10D0FC9D103E0002A08BFAA46B3
:1055B00026D02F461A4807EB870100EB8108062208
:1055C00088F8102099F81A00182838D099F81A008D
:1055D000411C99F81900814200D1FFDF99F81A00A7
:1055E00009F8007099F81A0018280EBF002099F8E1
:1055F0001A00401C89F81A0098F81270BA45D9D1DF
:105600000220074F307407F1FC0090F82910A942DE
:105610001AD186F812A080F829400BE0C0060020BD
:10562000DC060020D8070020106E02007400002065
:10563000FFFF3F00012180F82A10BDE8F88F99F89C
:1056400019000028CAD1C8E70D2D0CD0BBF10D0FF1
:1056500008BFFFDF0BEB8B0007EB8000847486F83C
:1056600012A0BDE8F88FBBF10D0F08BFFFDF0BEBF9
:105670008B0007EB800084740D20B074BDE8F88FB8
:105680002DE9F04F83B000F030FC05464FF00D0BD4
:10569000FE4C94F829100026A4F1FC094FF00108F3
:1056A0000D292FD094F82920214602EB820209EB24
:1056B0008202127C042A25D091F8292002EB820272
:1056C00009EB8202127C032A04BF03B0BDE8F08F0D
:1056D0002A4620696169801A491BED4B20F07F4002
:1056E00021F07F4106283CBF03B0BDE8F08FB0F544
:1056F000800F24BF03B0BDE8F08F8B423CBF03B0E6
:10570000BDE8F08FA068B0F1FF3F18BFFFDF84F85D
:10571000256094F82900DF4F0D2809D094F829005E
:1057200000EB800009EB8000007C042808D01AE020
:1057300094F82100B8B1F8787870B878387012E031
:1057400094F829B00BEB8B0009EB800080F81080F7
:1057500094F8290000EB800009EB8000807C84F83D
:10576000290084F82A80DFF830A39AF8F5019AF826
:10577000F411884219D000BF9AF8F40100EB8000C0
:105780000AEB80012846FFF7F6FC9AF8F401182886
:105790000EBF00209AF8F401401C8AF8F4019AF830
:1057A000F5019AF8F4118842E6D1DFF8F0A29AF8F0
:1057B000140028B151462846FFF7DDFC8AF8146032
:1057C000BBF10D0F06D00BEB8B0009EB8000017CC9
:1057D00001292BD094F829000D2800F0ED8094F8D1
:1057E0002A00002800F0F78084F82A6094F8290045
:1057F00000EB8001AA4800EB8102A0F50B73D2E90F
:105800000101D268C3F84023C3E9CE01607E0028BD
:105810000CBF4FF004094FF00209A249022811F809
:105820002010217318BF012834D123E0072101740F
:10583000DFF874A29AF81A00182816D09AF81A00FD
:105840009AF81910401C884200D1FFDF9AF81A001C
:105850000AF800B09AF81A0018280EBF00209AF82B
:105860001A00401C8AF81A00B4E79AF819000028B8
:10587000ECD1EAE720690844421B22F07F42382A33
:1058800008D903213238617620F07F402061322030
:10589000207309E0322907D294F8280058B9FCF7A0
:1058A000E5FD84F8288006E094F8280018B1FCF79C
:1058B00006FE84F828607B7884F8203094F80CA0E9
:1058C00038780621A3EB0A02012818BF032804D167
:1058D00084F82480002AC8BF911D94F822B0BBF13F
:1058E000000F18BF891C206901905044484420F0E3
:1058F0007F406060BAF1000F14BF022000202077C3
:1059000094F82400002808BFBBF1000F37D060488E
:105910000090D4F810E0D4F814C0AEEB050E2EF0D1
:105920007F4EACEB050C20462CF07F4C714598BFA8
:10593000BEF5800F1FD2009961451CD3002A0FDDF0
:105940000199BAF1000FA1EB020101611944494428
:1059500021F07F4141600CBF0121032121770EE03E
:1059600004DA002B0CBF02210421F7E7BBF1000F82
:1059700008BFFFDF03E080F8246084F82260207F06
:1059800040B12069012300EB09010022184600F014
:1059900045FA02E0012000F0FDF994F82900012306
:1059A00000EB80013E4800EB8100616890F90C201B
:1059B000002000F033FA0EE0012000F0EBF90020A7
:1059C00000F0E8F900F0CCF994F8280018B1FCF7E1
:1059D00076FD84F8286094F8220028B100F000FBDE
:1059E00084F8236084F8226094F8210018B1F878D4
:1059F0007870B878387094F8240030B184F8236057
:105A00003878002808BF84F824602748817E407ECB
:105A1000814203D025484078FEF7C2F984F82780F8
:105A200003B0BDE8F08F70B5184C054682B094F80D
:105A300029000D2808BFFFDF94F8290000EB800043
:105A4000174E06EB8000007C032818BFFFDFA0681C
:105A5000B0F1FF3F18BFFFDF94F8290001AA00EB67
:105A6000800006EB8000694690F90C00284400F0A5
:105A7000DBFA9DF904000F28CCBF0120002000991B
:105A800008446168084420F07F4111E0D8070020F5
:105A9000FFFF3F0074000020B0040020A806002093
:105AA000DC060020106E0200C006002072000020FC
:105AB000A16094F82500002804BF02B070BD012346
:105AC00002B00022BDE87040184600F0A7B9744A41
:105AD0000B1A02F1010CB3EB9C0F3CBF1846704748
:105AE00010B5441AB4EB9C0F3CBF184610BD9A4247
:105AF00003D2101A0844401C10BD94429EBFFFDF21
:105B0000002010BD511A0844401C404210BD012322
:105B100000220146022000F081B9022000F03AB9CB
:105B200000F0E3B92DE9F0415E4C054682B094F8EF
:105B30002B00002808BFFFDF642D50D35A480022F5
:105B4000401B72EB02004AD3584890F8F51190F8C8
:105B5000F401814243D15648007D00283FD194F89A
:105B60002900DFF8508100EB800008EB80062068F8
:105B700001AA2844694600F057FA9DF9040000285C
:105B800002DD0098401C0090B168009872680F1800
:105B9000BA1A22F07F42B2F5800F20D2B27C0D2AD1
:105BA00009D002EB820208EB82025268511A21F0FE
:105BB0007F41814213D3A068B0F1FF3F05D001209F
:105BC00000F0E8F84FF0FF30A06020682844206023
:105BD00027F07F40606102B00120BDE8F08102B093
:105BE0000020BDE8F0812DE9F8430646401EC7B20B
:105BF000304807EB870100EB8104207C002808BFB8
:105C0000FFDF2A4A92F8F41192F8F50181420DD093
:105C100001EB810302EB83031B7CB34210D01829F4
:105C20000CBF0021491CC9B28142F1D120484FF07C
:105C3000190800F11805017D29B3007CB04222D17A
:105C40000020BDE8F883207C05281FBF207C0628A3
:105C5000207C07280AD184F81090CDF800806A7E55
:105C600005F11A031449384600F05AFA607C68B10D
:105C70006674CDF800806A7E05F11A030E49384635
:105C800000F04EFA02E04FF001090026207C0128C6
:105C900004BF607C0028D6D10120BDE8F883000055
:105CA000FF7F841ED8070020FF1FA107B00400203B
:105CB000A8060020DC060020C006002030B44FF00B
:105CC000E02001234FF4006C0021C0F880C11D02C8
:105CD000C0F880511C06C0F88041E84A82F80014E0
:105CE000D21E82F80014E64A82F80014E54A536096
:105CF0009360C2F84011C2F84411C2F84811C0F8CC
:105D000080C2C0F88052C0F88042C0F800C1C0F81C
:105D10000041136030BC704770B401204FF0E023A5
:105D2000C6024FF0000CC3F880610402C3F8804142
:105D30000506C3F88051D34A50609060D24801688C
:105D40000029FCD1C2F840C1C2F844C1C2F848C120
:105D5000C3F88062C3F88042C3F8805270BC7047B9
:105D60004FF0E0204FF40061C0F88012C910C0F875
:105D700080127047002804BFC4487047012804BF40
:105D8000C3487047022804BFC248704700B5FFDF10
:105D9000002000BD08B5BB49002298B101282FD0D2
:105DA00002281CBFFFDF08BD4FF48020C1F80803A4
:105DB000C1F84803B8480260C1F84821B5480068F6
:105DC000009008BD4FF48030C1F80803C1F84803C3
:105DD000B24B1A60C1F84021B14BC1031960B149FF
:105DE000C1F808034FF0E0230012C3F88001AE4869
:105DF0000260C1F84021C1F80022AC48027008BD21
:105E00004FF40030C1F80803C1F84803A848026005
:105E1000C1F844219E480068009008BD70B5DFF8C5
:105E200064C2042600240125B0B101284CD0022808
:105E30001CBFFFDF70BD9F484FF48022012BC0F8CC
:105E4000401518BFCCF80823C0F8404108BFCCF873
:105E50000423CCF8442370BD881E20F07F40CCF88A
:105E600040054FF48030CCF80803CCF84041CCF822
:105E70004403012B14BF002101218C4B5970894927
:105E80000D61DFF834C2CCF800408C4C4FF0020CAE
:105E9000C4F800C0DFF828C2CCF80060DFF808C200
:105EA0003D32CCF80020C1F800524FF0E0224FF410
:105EB000807CC2F880C2C1F80403C2F800C10804A3
:105EC000804908601D7070BD7F4A4FF40030012B7F
:105ED000C2F8401518BFCCF80803C2F8404108BF0B
:105EE000CCF80403CCF8440370BD674800687047E1
:105EF00070B576480568774975480860614CD4F8F4
:105F00004001002601280AD1D4F8080310F4803F8C
:105F100005D04FF48030C4F80803C4F84061D4F8C9
:105F2000440101280DD1D4F8080310F4003F08D033
:105F30004FF40030C4F80803C4F844610120FFF7AF
:105F400006F8D4F8480101280DD1D4F8080310F45C
:105F5000802F08D04FF48020C4F80803C4F84861AB
:105F60000220FEF7F4FF5C48056070BD574810B58D
:105F700004685849564808604C490878002808BF0A
:105F800003201AD0464A4FF000401060454AC00B2B
:105F9000C2F8080303124FF0E02C0020CCF8803147
:105FA000414B1860C2F84001C2F8000208704A78FC
:105FB000002A1CBF4870002001D0FEF7C8FF4648E9
:105FC000046010BD4FF0E0214FF08070C1F8000276
:105FD00070474FF0E0214FF08070C1F880027047A9
:105FE0004FF0E0214FF40010C1F8000270474FF06D
:105FF000E0214FF40010C1F88002704729490120C8
:1060000008614FF0E0210002C1F880027047410AA8
:1060100043F609525143C0F3080010FB02F000F5AB
:10602000807001EB50207047430B48F2376C03FB44
:106030000CF31B0C4FEA432CC1F800C0DFF89CC0E6
:1060400003FB0C0326484CF2F72C5843400D10FB81
:106050000CFC0CEB432303F580735B1213700A688E
:10606000104408607047194810B504681949184869
:106070000860FFF705FB1848046010BD0BE000E066
:1060800018E000E000B0004004B50040408100404E
:1060900044B1004048B1004048B5004040B5004020
:1060A00008F5014000800040408500407800002055
:1060B00044B5004008B00040048500400885004019
:1060C0001085004004F5014004B000401005024076
:1060D000010000011805024014050240F7C2FFFF4D
:1060E0006F0C0100094810B504680A4908480860A7
:1060F000FFF72BF80848046010BD0849002008602D
:106100004FF0E0210220C1F88002704710050240E4
:10611000010000011805024014050240FC1F004068
:1061200070B41D78039C4FF0000CAA4204BF70BCF1
:1061300070478E5C864208BF4FF0010C02D0BCF164
:10614000000F05D0561CA64208BF00268E5D8E5457
:10615000561CA6420CBF0022521CD2B2AA42E8D161
:10616000BCF1000F04BF70BC70471878411E197055
